{
  "contractName": "Evaluator",
  "abi": [
    {
      "inputs": [
        {
          "internalType": "contract ERC20TD",
          "name": "_TDAMM",
          "type": "address"
        },
        {
          "internalType": "contract ERC20",
          "name": "_dummyToken",
          "type": "address"
        },
        {
          "internalType": "contract IUniswapV2Factory",
          "name": "_uniswapV2Factory",
          "type": "address"
        },
        {
          "internalType": "address",
          "name": "_WETH",
          "type": "address"
        }
      ],
      "stateMutability": "nonpayable",
      "type": "constructor"
    },
    {
      "anonymous": false,
      "inputs": [
        {
          "indexed": false,
          "internalType": "address",
          "name": "erc20Address",
          "type": "address"
        },
        {
          "indexed": false,
          "internalType": "address",
          "name": "dummyTokenAddress",
          "type": "address"
        },
        {
          "indexed": false,
          "internalType": "address",
          "name": "uniFactoryAddress",
          "type": "address"
        },
        {
          "indexed": false,
          "internalType": "address",
          "name": "wethAddress",
          "type": "address"
        }
      ],
      "name": "constructedCorrectly",
      "type": "event"
    },
    {
      "anonymous": false,
      "inputs": [
        {
          "indexed": false,
          "internalType": "string",
          "name": "ticker",
          "type": "string"
        },
        {
          "indexed": false,
          "internalType": "uint256",
          "name": "supply",
          "type": "uint256"
        }
      ],
      "name": "newRandomTickerAndSupply",
      "type": "event"
    },
    {
      "stateMutability": "payable",
      "type": "fallback"
    },
    {
      "inputs": [],
      "name": "TDAMM",
      "outputs": [
        {
          "internalType": "contract ERC20TD",
          "name": "",
          "type": "address"
        }
      ],
      "stateMutability": "view",
      "type": "function"
    },
    {
      "inputs": [],
      "name": "WETH",
      "outputs": [
        {
          "internalType": "address",
          "name": "",
          "type": "address"
        }
      ],
      "stateMutability": "view",
      "type": "function"
    },
    {
      "inputs": [
        {
          "internalType": "address",
          "name": "",
          "type": "address"
        }
      ],
      "name": "assignedSupply",
      "outputs": [
        {
          "internalType": "uint256",
          "name": "",
          "type": "uint256"
        }
      ],
      "stateMutability": "view",
      "type": "function"
    },
    {
      "inputs": [
        {
          "internalType": "address",
          "name": "",
          "type": "address"
        }
      ],
      "name": "assignedTicker",
      "outputs": [
        {
          "internalType": "string",
          "name": "",
          "type": "string"
        }
      ],
      "stateMutability": "view",
      "type": "function"
    },
    {
      "inputs": [],
      "name": "dummyToken",
      "outputs": [
        {
          "internalType": "contract ERC20",
          "name": "",
          "type": "address"
        }
      ],
      "stateMutability": "view",
      "type": "function"
    },
    {
      "inputs": [
        {
          "internalType": "address",
          "name": "",
          "type": "address"
        },
        {
          "internalType": "uint256",
          "name": "",
          "type": "uint256"
        }
      ],
      "name": "exerciceProgression",
      "outputs": [
        {
          "internalType": "bool",
          "name": "",
          "type": "bool"
        }
      ],
      "stateMutability": "view",
      "type": "function"
    },
    {
      "inputs": [
        {
          "internalType": "address",
          "name": "",
          "type": "address"
        }
      ],
      "name": "hasBeenPaired",
      "outputs": [
        {
          "internalType": "bool",
          "name": "",
          "type": "bool"
        }
      ],
      "stateMutability": "view",
      "type": "function"
    },
    {
      "inputs": [],
      "name": "nextValueStoreRank",
      "outputs": [
        {
          "internalType": "uint256",
          "name": "",
          "type": "uint256"
        }
      ],
      "stateMutability": "view",
      "type": "function"
    },
    {
      "inputs": [
        {
          "internalType": "address",
          "name": "",
          "type": "address"
        }
      ],
      "name": "studentErc20",
      "outputs": [
        {
          "internalType": "contract IRichERC20",
          "name": "",
          "type": "address"
        }
      ],
      "stateMutability": "view",
      "type": "function"
    },
    {
      "inputs": [
        {
          "internalType": "address",
          "name": "",
          "type": "address"
        }
      ],
      "name": "studentExercice",
      "outputs": [
        {
          "internalType": "contract IExerciceSolution",
          "name": "",
          "type": "address"
        }
      ],
      "stateMutability": "view",
      "type": "function"
    },
    {
      "inputs": [
        {
          "internalType": "address",
          "name": "",
          "type": "address"
        }
      ],
      "name": "teachers",
      "outputs": [
        {
          "internalType": "bool",
          "name": "",
          "type": "bool"
        }
      ],
      "stateMutability": "view",
      "type": "function"
    },
    {
      "inputs": [],
      "name": "uniswapV2Factory",
      "outputs": [
        {
          "internalType": "contract IUniswapV2Factory",
          "name": "",
          "type": "address"
        }
      ],
      "stateMutability": "view",
      "type": "function"
    },
    {
      "stateMutability": "payable",
      "type": "receive"
    },
    {
      "inputs": [],
      "name": "ex1_showIHaveTokens",
      "outputs": [],
      "stateMutability": "nonpayable",
      "type": "function"
    },
    {
      "inputs": [],
      "name": "ex2_showIProvidedLiquidity",
      "outputs": [],
      "stateMutability": "nonpayable",
      "type": "function"
    },
    {
      "inputs": [],
      "name": "ex6a_getTickerAndSupply",
      "outputs": [],
      "stateMutability": "nonpayable",
      "type": "function"
    },
    {
      "inputs": [],
      "name": "ex6b_testErc20TickerAndSupply",
      "outputs": [],
      "stateMutability": "nonpayable",
      "type": "function"
    },
    {
      "inputs": [],
      "name": "ex7_tokenIsTradableOnUniswap",
      "outputs": [],
      "stateMutability": "nonpayable",
      "type": "function"
    },
    {
      "inputs": [],
      "name": "ex8_contractCanProvideLiquidity",
      "outputs": [],
      "stateMutability": "nonpayable",
      "type": "function"
    },
    {
      "inputs": [],
      "name": "ex9_contractCanWithdrawLiquidity",
      "outputs": [],
      "stateMutability": "nonpayable",
      "type": "function"
    },
    {
      "inputs": [
        {
          "internalType": "contract IExerciceSolution",
          "name": "studentExercice_",
          "type": "address"
        }
      ],
      "name": "submitExercice",
      "outputs": [],
      "stateMutability": "nonpayable",
      "type": "function"
    },
    {
      "inputs": [
        {
          "internalType": "contract IRichERC20",
          "name": "studentErc20_",
          "type": "address"
        }
      ],
      "name": "submitErc20",
      "outputs": [],
      "stateMutability": "nonpayable",
      "type": "function"
    },
    {
      "inputs": [
        {
          "internalType": "bytes32",
          "name": "_bytes32",
          "type": "bytes32"
        }
      ],
      "name": "bytes32ToString",
      "outputs": [
        {
          "internalType": "string",
          "name": "",
          "type": "string"
        }
      ],
      "stateMutability": "pure",
      "type": "function"
    },
    {
      "inputs": [
        {
          "internalType": "address",
          "name": "studentAddres",
          "type": "address"
        }
      ],
      "name": "readTicker",
      "outputs": [
        {
          "internalType": "string",
          "name": "",
          "type": "string"
        }
      ],
      "stateMutability": "view",
      "type": "function"
    },
    {
      "inputs": [
        {
          "internalType": "address",
          "name": "studentAddres",
          "type": "address"
        }
      ],
      "name": "readSupply",
      "outputs": [
        {
          "internalType": "uint256",
          "name": "",
          "type": "uint256"
        }
      ],
      "stateMutability": "view",
      "type": "function"
    },
    {
      "inputs": [
        {
          "internalType": "uint256[20]",
          "name": "_randomSupplies",
          "type": "uint256[20]"
        },
        {
          "internalType": "string[20]",
          "name": "_randomTickers",
          "type": "string[20]"
        }
      ],
      "name": "setRandomTickersAndSupply",
      "outputs": [],
      "stateMutability": "nonpayable",
      "type": "function"
    }
  ],
  "bytecode": "0x60806040523480156200001157600080fd5b506040516200496038038062004960833981810160405262000037919081019062000202565b83600160006101000a81548173ffffffffffffffffffffffffffffffffffffffff021916908373ffffffffffffffffffffffffffffffffffffffff16021790555082600260006101000a81548173ffffffffffffffffffffffffffffffffffffffff021916908373ffffffffffffffffffffffffffffffffffffffff16021790555081600360006101000a81548173ffffffffffffffffffffffffffffffffffffffff021916908373ffffffffffffffffffffffffffffffffffffffff16021790555080600460006101000a81548173ffffffffffffffffffffffffffffffffffffffff021916908373ffffffffffffffffffffffffffffffffffffffff1602179055507f82169bf8e2a940653a3005b8fbe3a01d8ab56fd5bbbcd0bf31ac67b29cee1f97600160009054906101000a900473ffffffffffffffffffffffffffffffffffffffff168484846040516200019494939291906200027f565b60405180910390a150505050620003a4565b600081519050620001b7816200033c565b92915050565b600081519050620001ce8162000356565b92915050565b600081519050620001e58162000370565b92915050565b600081519050620001fc816200038a565b92915050565b600080600080608085870312156200021957600080fd5b60006200022987828801620001bd565b94505060206200023c87828801620001d4565b93505060406200024f87828801620001eb565b92505060606200026287828801620001a6565b91505092959194509250565b6200027981620002cc565b82525050565b60006080820190506200029660008301876200026e565b620002a560208301866200026e565b620002b460408301856200026e565b620002c360608301846200026e565b95945050505050565b6000620002d9826200031c565b9050919050565b6000620002ed82620002cc565b9050919050565b60006200030182620002cc565b9050919050565b60006200031582620002cc565b9050919050565b600073ffffffffffffffffffffffffffffffffffffffff82169050919050565b6200034781620002cc565b81146200035357600080fd5b50565b6200036181620002e0565b81146200036d57600080fd5b50565b6200037b81620002f4565b81146200038757600080fd5b50565b620003958162000308565b8114620003a157600080fd5b50565b6145ac80620003b46000396000f3fe6080604052600436106101695760003560e01c80639201de55116100d1578063cec7f2101161008a578063e22ebfd611610064578063e22ebfd6146104f9578063f0a47f7814610536578063f20bfb9c14610573578063f4fdbb881461058a57610170565b8063cec7f21014610468578063d1a2e76e14610493578063e22b5dcf146104bc57610170565b80639201de551461037e5780639b148f17146103bb5780639f91f516146103d2578063ad5c46481461040f578063c75993931461043a578063cd3560d71461045157610170565b806352954cf31161012357806352954cf31461029457806359d0f713146102ab57806367479ec5146102d65780636a3a789a146103015780637c83d61a146103185780637db60caf1461034157610170565b8062a3491a1461017257806305b12022146101af5780630c58c95c146101c65780632236d353146102035780632e64c5001461022c57806339119dce1461026957610170565b3661017057005b005b34801561017e57600080fd5b506101996004803603610194919081019061368d565b6105c7565b6040516101a69190613fd6565b60405180910390f35b3480156101bb57600080fd5b506101c4610677565b005b3480156101d257600080fd5b506101ed60048036036101e8919081019061368d565b610a8c565b6040516101fa9190613f85565b60405180910390f35b34801561020f57600080fd5b5061022a600480360361022591908101906137c3565b610abf565b005b34801561023857600080fd5b50610253600480360361024e91908101906136df565b610bef565b6040516102609190613f34565b60405180910390f35b34801561027557600080fd5b5061027e610c1e565b60405161028b919061414a565b60405180910390f35b3480156102a057600080fd5b506102a9610c24565b005b3480156102b757600080fd5b506102c0610e71565b6040516102cd9190613fbb565b60405180910390f35b3480156102e257600080fd5b506102eb610e97565b6040516102f89190613f6a565b60405180910390f35b34801561030d57600080fd5b50610316610ebd565b005b34801561032457600080fd5b5061033f600480360361033a91908101906137ec565b6114fa565b005b34801561034d57600080fd5b506103686004803603610363919081019061368d565b611769565b604051610375919061414a565b60405180910390f35b34801561038a57600080fd5b506103a560048036036103a0919081019061379a565b611781565b6040516103b29190613ff8565b60405180910390f35b3480156103c757600080fd5b506103d06118de565b005b3480156103de57600080fd5b506103f960048036036103f4919081019061368d565b611b2f565b604051610406919061414a565b60405180910390f35b34801561041b57600080fd5b50610424611b78565b6040516104319190613db6565b60405180910390f35b34801561044657600080fd5b5061044f611b9e565b005b34801561045d57600080fd5b50610466611f93565b005b34801561047457600080fd5b5061047d6128a2565b60405161048a9190613f4f565b60405180910390f35b34801561049f57600080fd5b506104ba60048036036104b5919081019061371b565b6128c8565b005b3480156104c857600080fd5b506104e360048036036104de919081019061368d565b612a1d565b6040516104f09190613ff8565b60405180910390f35b34801561050557600080fd5b50610520600480360361051b919081019061368d565b612afe565b60405161052d9190613fa0565b60405180910390f35b34801561054257600080fd5b5061055d6004803603610558919081019061368d565b612b31565b60405161056a9190613f34565b60405180910390f35b34801561057f57600080fd5b50610588612b51565b005b34801561059657600080fd5b506105b160048036036105ac919081019061368d565b61318e565b6040516105be9190613f34565b60405180910390f35b602e6020528060005260406000206000915090508054600181600116156101000203166002900480601f01602080910402602001604051908101604052809291908181526020018280546001816001161561010002031660029004801561066f5780601f106106445761010080835404028352916020019161066f565b820191906000526020600020905b81548152906001019060200180831161065257829003601f168201915b505050505081565b600080600460009054906101000a900473ffffffffffffffffffffffffffffffffffffffff1673ffffffffffffffffffffffffffffffffffffffff16603160003373ffffffffffffffffffffffffffffffffffffffff1673ffffffffffffffffffffffffffffffffffffffff16815260200190815260200160002060009054906101000a900473ffffffffffffffffffffffffffffffffffffffff1673ffffffffffffffffffffffffffffffffffffffff16106107b657600460009054906101000a900473ffffffffffffffffffffffffffffffffffffffff16603160003373ffffffffffffffffffffffffffffffffffffffff1673ffffffffffffffffffffffffffffffffffffffff16815260200190815260200160002060009054906101000a900473ffffffffffffffffffffffffffffffffffffffff1661083a565b603160003373ffffffffffffffffffffffffffffffffffffffff1673ffffffffffffffffffffffffffffffffffffffff16815260200190815260200160002060009054906101000a900473ffffffffffffffffffffffffffffffffffffffff16600460009054906101000a900473ffffffffffffffffffffffffffffffffffffffff165b915091506000600360009054906101000a900473ffffffffffffffffffffffffffffffffffffffff1673ffffffffffffffffffffffffffffffffffffffff1663e6a4390584846040518363ffffffff1660e01b815260040161089d929190613f0b565b60206040518083038186803b1580156108b557600080fd5b505afa1580156108c9573d6000803e3d6000fd5b505050506040513d601f19601f820116820180604052506108ed91908101906136b6565b9050600073ffffffffffffffffffffffffffffffffffffffff168173ffffffffffffffffffffffffffffffffffffffff16141561092957600080fd5b603060003373ffffffffffffffffffffffffffffffffffffffff1673ffffffffffffffffffffffffffffffffffffffff16815260200190815260200160002060006007815260200190815260200160002060009054906101000a900460ff16610a87576001603060003373ffffffffffffffffffffffffffffffffffffffff1673ffffffffffffffffffffffffffffffffffffffff16815260200190815260200160002060006007815260200190815260200160002060006101000a81548160ff021916908315150217905550600160009054906101000a900473ffffffffffffffffffffffffffffffffffffffff1673ffffffffffffffffffffffffffffffffffffffff1663158a49883360056040518363ffffffff1660e01b8152600401610a54929190613ee2565b600060405180830381600087803b158015610a6e57600080fd5b505af1158015610a82573d6000803e3d6000fd5b505050505b505050565b60326020528060005260406000206000915054906101000a900473ffffffffffffffffffffffffffffffffffffffff1681565b603360008273ffffffffffffffffffffffffffffffffffffffff1673ffffffffffffffffffffffffffffffffffffffff16815260200190815260200160002060009054906101000a900460ff1615610b1657600080fd5b80603260003373ffffffffffffffffffffffffffffffffffffffff1673ffffffffffffffffffffffffffffffffffffffff16815260200190815260200160002060006101000a81548173ffffffffffffffffffffffffffffffffffffffff021916908373ffffffffffffffffffffffffffffffffffffffff1602179055506001603360008373ffffffffffffffffffffffffffffffffffffffff1673ffffffffffffffffffffffffffffffffffffffff16815260200190815260200160002060006101000a81548160ff02191690831515021790555050565b60306020528160005260406000206020528060005260406000206000915091509054906101000a900460ff1681565b602d5481565b6000600260009054906101000a900473ffffffffffffffffffffffffffffffffffffffff1673ffffffffffffffffffffffffffffffffffffffff166370a08231336040518263ffffffff1660e01b8152600401610c819190613dd1565b60206040518083038186803b158015610c9957600080fd5b505afa158015610cad573d6000803e3d6000fd5b505050506040513d601f19601f82011682018060405250610cd191908101906138a5565b11610d11576040517f08c379a0000000000000000000000000000000000000000000000000000000008152600401610d089061408a565b60405180910390fd5b603060003373ffffffffffffffffffffffffffffffffffffffff1673ffffffffffffffffffffffffffffffffffffffff16815260200190815260200160002060006001815260200190815260200160002060009054906101000a900460ff16610e6f576001603060003373ffffffffffffffffffffffffffffffffffffffff1673ffffffffffffffffffffffffffffffffffffffff16815260200190815260200160002060006001815260200190815260200160002060006101000a81548160ff021916908315150217905550600160009054906101000a900473ffffffffffffffffffffffffffffffffffffffff1673ffffffffffffffffffffffffffffffffffffffff1663158a49883360026040518363ffffffff1660e01b8152600401610e3c929190613e67565b600060405180830381600087803b158015610e5657600080fd5b505af1158015610e6a573d6000803e3d6000fd5b505050505b565b600360009054906101000a900473ffffffffffffffffffffffffffffffffffffffff1681565b600260009054906101000a900473ffffffffffffffffffffffffffffffffffffffff1681565b600080600460009054906101000a900473ffffffffffffffffffffffffffffffffffffffff1673ffffffffffffffffffffffffffffffffffffffff16603160003373ffffffffffffffffffffffffffffffffffffffff1673ffffffffffffffffffffffffffffffffffffffff16815260200190815260200160002060009054906101000a900473ffffffffffffffffffffffffffffffffffffffff1673ffffffffffffffffffffffffffffffffffffffff1610610ffc57600460009054906101000a900473ffffffffffffffffffffffffffffffffffffffff16603160003373ffffffffffffffffffffffffffffffffffffffff1673ffffffffffffffffffffffffffffffffffffffff16815260200190815260200160002060009054906101000a900473ffffffffffffffffffffffffffffffffffffffff16611080565b603160003373ffffffffffffffffffffffffffffffffffffffff1673ffffffffffffffffffffffffffffffffffffffff16815260200190815260200160002060009054906101000a900473ffffffffffffffffffffffffffffffffffffffff16600460009054906101000a900473ffffffffffffffffffffffffffffffffffffffff165b915091506000600360009054906101000a900473ffffffffffffffffffffffffffffffffffffffff1673ffffffffffffffffffffffffffffffffffffffff1663e6a4390584846040518363ffffffff1660e01b81526004016110e3929190613f0b565b60206040518083038186803b1580156110fb57600080fd5b505afa15801561110f573d6000803e3d6000fd5b505050506040513d601f19601f8201168201806040525061113391908101906136b6565b905060008190506000808273ffffffffffffffffffffffffffffffffffffffff16630902f1ac6040518163ffffffff1660e01b815260040160606040518083038186803b15801561118357600080fd5b505afa158015611197573d6000803e3d6000fd5b505050506040513d601f19601f820116820180604052506111bb9190810190613856565b5091509150603260003373ffffffffffffffffffffffffffffffffffffffff1673ffffffffffffffffffffffffffffffffffffffff16815260200190815260200160002060009054906101000a900473ffffffffffffffffffffffffffffffffffffffff1673ffffffffffffffffffffffffffffffffffffffff1663e8078d946040518163ffffffff1660e01b8152600401600060405180830381600087803b15801561126757600080fd5b505af115801561127b573d6000803e3d6000fd5b505050506000808473ffffffffffffffffffffffffffffffffffffffff16630902f1ac6040518163ffffffff1660e01b815260040160606040518083038186803b1580156112c857600080fd5b505afa1580156112dc573d6000803e3d6000fd5b505050506040513d601f19601f820116820180604052506113009190810190613856565b5091509150816dffffffffffffffffffffffffffff16846dffffffffffffffffffffffffffff161080156113535750806dffffffffffffffffffffffffffff16836dffffffffffffffffffffffffffff16105b611392576040517f08c379a0000000000000000000000000000000000000000000000000000000008152600401611389906140ea565b60405180910390fd5b603060003373ffffffffffffffffffffffffffffffffffffffff1673ffffffffffffffffffffffffffffffffffffffff16815260200190815260200160002060006008815260200190815260200160002060009054906101000a900460ff166114f0576001603060003373ffffffffffffffffffffffffffffffffffffffff1673ffffffffffffffffffffffffffffffffffffffff16815260200190815260200160002060006008815260200190815260200160002060006101000a81548160ff021916908315150217905550600160009054906101000a900473ffffffffffffffffffffffffffffffffffffffff1673ffffffffffffffffffffffffffffffffffffffff1663158a49883360036040518363ffffffff1660e01b81526004016114bd929190613e90565b600060405180830381600087803b1580156114d757600080fd5b505af11580156114eb573d6000803e3d6000fd5b505050505b5050505050505050565b80603160003373ffffffffffffffffffffffffffffffffffffffff1673ffffffffffffffffffffffffffffffffffffffff16815260200190815260200160002060006101000a81548173ffffffffffffffffffffffffffffffffffffffff021916908373ffffffffffffffffffffffffffffffffffffffff160217905550603060003373ffffffffffffffffffffffffffffffffffffffff1673ffffffffffffffffffffffffffffffffffffffff16815260200190815260200160002060006005815260200190815260200160002060009054906101000a900460ff16611766576001603060003373ffffffffffffffffffffffffffffffffffffffff1673ffffffffffffffffffffffffffffffffffffffff16815260200190815260200160002060006005815260200190815260200160002060006101000a81548160ff021916908315150217905550600160009054906101000a900473ffffffffffffffffffffffffffffffffffffffff1673ffffffffffffffffffffffffffffffffffffffff1663158a49883360026040518363ffffffff1660e01b81526004016116a3929190613e67565b600060405180830381600087803b1580156116bd57600080fd5b505af11580156116d1573d6000803e3d6000fd5b50505050600160009054906101000a900473ffffffffffffffffffffffffffffffffffffffff1673ffffffffffffffffffffffffffffffffffffffff1663158a49883360016040518363ffffffff1660e01b8152600401611733929190613e3e565b600060405180830381600087803b15801561174d57600080fd5b505af1158015611761573d6000803e3d6000fd5b505050505b50565b602f6020528060005260406000206000915090505481565b606060008090505b60208160ff161080156117d45750600060f81b838260ff16602081106117ab57fe5b1a60f81b7effffffffffffffffffffffffffffffffffffffffffffffffffffffffffffff191614155b156117e6578080600101915050611789565b60608160ff166040519080825280601f01601f19166020018201604052801561181e5781602001600182028038833980820191505090505b509050600091505b60208260ff161080156118715750600060f81b848360ff166020811061184857fe5b1a60f81b7effffffffffffffffffffffffffffffffffffffffffffffffffffffffffffff191614155b156118d457838260ff166020811061188557fe5b1a60f81b818360ff168151811061189857fe5b60200101907effffffffffffffffffffffffffffffffffffffffffffffffffffffffffffff1916908160001a9053508180600101925050611826565b8092505050919050565b670de0b6b3a76400006005602d54601481106118f657fe5b015402602f60003373ffffffffffffffffffffffffffffffffffffffff1673ffffffffffffffffffffffffffffffffffffffff168152602001908152602001600020819055506019602d546014811061194b57fe5b01602e60003373ffffffffffffffffffffffffffffffffffffffff1673ffffffffffffffffffffffffffffffffffffffff16815260200190815260200160002090805460018160011615610100020316600290046119aa929190613207565b506001602d600082825401925050819055506014602d54106119cf576000602d819055505b603060003373ffffffffffffffffffffffffffffffffffffffff1673ffffffffffffffffffffffffffffffffffffffff16815260200190815260200160002060006004815260200190815260200160002060009054906101000a900460ff16611b2d576001603060003373ffffffffffffffffffffffffffffffffffffffff1673ffffffffffffffffffffffffffffffffffffffff16815260200190815260200160002060006004815260200190815260200160002060006101000a81548160ff021916908315150217905550600160009054906101000a900473ffffffffffffffffffffffffffffffffffffffff1673ffffffffffffffffffffffffffffffffffffffff1663158a49883360026040518363ffffffff1660e01b8152600401611afa929190613e67565b600060405180830381600087803b158015611b1457600080fd5b505af1158015611b28573d6000803e3d6000fd5b505050505b565b6000602f60008373ffffffffffffffffffffffffffffffffffffffff1673ffffffffffffffffffffffffffffffffffffffff168152602001908152602001600020549050919050565b600460009054906101000a900473ffffffffffffffffffffffffffffffffffffffff1681565b600080600460009054906101000a900473ffffffffffffffffffffffffffffffffffffffff1673ffffffffffffffffffffffffffffffffffffffff16600260009054906101000a900473ffffffffffffffffffffffffffffffffffffffff1673ffffffffffffffffffffffffffffffffffffffff1610611c6357600460009054906101000a900473ffffffffffffffffffffffffffffffffffffffff16600260009054906101000a900473ffffffffffffffffffffffffffffffffffffffff16611caa565b600260009054906101000a900473ffffffffffffffffffffffffffffffffffffffff16600460009054906101000a900473ffffffffffffffffffffffffffffffffffffffff165b915091506000600360009054906101000a900473ffffffffffffffffffffffffffffffffffffffff1673ffffffffffffffffffffffffffffffffffffffff1663e6a4390584846040518363ffffffff1660e01b8152600401611d0d929190613f0b565b60206040518083038186803b158015611d2557600080fd5b505afa158015611d39573d6000803e3d6000fd5b505050506040513d601f19601f82011682018060405250611d5d91908101906136b6565b9050600081905060008173ffffffffffffffffffffffffffffffffffffffff166370a08231336040518263ffffffff1660e01b8152600401611d9f9190613dd1565b60206040518083038186803b158015611db757600080fd5b505afa158015611dcb573d6000803e3d6000fd5b505050506040513d601f19601f82011682018060405250611def91908101906138a5565b11611e2f576040517f08c379a0000000000000000000000000000000000000000000000000000000008152600401611e26906140aa565b60405180910390fd5b603060003373ffffffffffffffffffffffffffffffffffffffff1673ffffffffffffffffffffffffffffffffffffffff16815260200190815260200160002060006002815260200190815260200160002060009054906101000a900460ff16611f8d576001603060003373ffffffffffffffffffffffffffffffffffffffff1673ffffffffffffffffffffffffffffffffffffffff16815260200190815260200160002060006002815260200190815260200160002060006101000a81548160ff021916908315150217905550600160009054906101000a900473ffffffffffffffffffffffffffffffffffffffff1673ffffffffffffffffffffffffffffffffffffffff1663158a49883360026040518363ffffffff1660e01b8152600401611f5a929190613e67565b600060405180830381600087803b158015611f7457600080fd5b505af1158015611f88573d6000803e3d6000fd5b505050505b50505050565b603060003373ffffffffffffffffffffffffffffffffffffffff1673ffffffffffffffffffffffffffffffffffffffff16815260200190815260200160002060006001815260200190815260200160002060009054906101000a900460ff16611ffb57600080fd5b603060003373ffffffffffffffffffffffffffffffffffffffff1673ffffffffffffffffffffffffffffffffffffffff168152602001908152602001600020600080815260200190815260200160002060009054906101000a900460ff1661206257600080fd5b612224602e60003373ffffffffffffffffffffffffffffffffffffffff1673ffffffffffffffffffffffffffffffffffffffff1681526020019081526020016000208054600181600116156101000203166002900480601f0160208091040260200160405190810160405280929190818152602001828054600181600116156101000203166002900480156121385780601f1061210d57610100808354040283529160200191612138565b820191906000526020600020905b81548152906001019060200180831161211b57829003601f168201915b5050505050603160003373ffffffffffffffffffffffffffffffffffffffff1673ffffffffffffffffffffffffffffffffffffffff16815260200190815260200160002060009054906101000a900473ffffffffffffffffffffffffffffffffffffffff1673ffffffffffffffffffffffffffffffffffffffff166395d89b416040518163ffffffff1660e01b815260040160006040518083038186803b1580156121e257600080fd5b505afa1580156121f6573d6000803e3d6000fd5b505050506040513d6000823e3d601f19601f8201168201806040525061221f9190810190613815565b6131ae565b612263576040517f08c379a000000000000000000000000000000000000000000000000000000000815260040161225a9061406a565b60405180910390fd5b603160003373ffffffffffffffffffffffffffffffffffffffff1673ffffffffffffffffffffffffffffffffffffffff16815260200190815260200160002060009054906101000a900473ffffffffffffffffffffffffffffffffffffffff1673ffffffffffffffffffffffffffffffffffffffff166318160ddd6040518163ffffffff1660e01b815260040160206040518083038186803b15801561230857600080fd5b505afa15801561231c573d6000803e3d6000fd5b505050506040513d601f19601f8201168201806040525061234091908101906138a5565b602f60003373ffffffffffffffffffffffffffffffffffffffff1673ffffffffffffffffffffffffffffffffffffffff16815260200190815260200160002054146123c0576040517f08c379a00000000000000000000000000000000000000000000000000000000081526004016123b79061410a565b60405180910390fd5b6000603160003373ffffffffffffffffffffffffffffffffffffffff1673ffffffffffffffffffffffffffffffffffffffff16815260200190815260200160002060009054906101000a900473ffffffffffffffffffffffffffffffffffffffff1673ffffffffffffffffffffffffffffffffffffffff1663dd62ed3e30336040518363ffffffff1660e01b815260040161245c929190613dec565b60206040518083038186803b15801561247457600080fd5b505afa158015612488573d6000803e3d6000fd5b505050506040513d601f19601f820116820180604052506124ac91908101906138a5565b146124ec576040517f08c379a00000000000000000000000000000000000000000000000000000000081526004016124e39061412a565b60405180910390fd5b6000603160003373ffffffffffffffffffffffffffffffffffffffff1673ffffffffffffffffffffffffffffffffffffffff16815260200190815260200160002060009054906101000a900473ffffffffffffffffffffffffffffffffffffffff1673ffffffffffffffffffffffffffffffffffffffff166370a08231306040518263ffffffff1660e01b81526004016125869190613dd1565b60206040518083038186803b15801561259e57600080fd5b505afa1580156125b2573d6000803e3d6000fd5b505050506040513d601f19601f820116820180604052506125d691908101906138a5565b14612616576040517f08c379a000000000000000000000000000000000000000000000000000000000815260040161260d906140ca565b60405180910390fd5b603160003373ffffffffffffffffffffffffffffffffffffffff1673ffffffffffffffffffffffffffffffffffffffff16815260200190815260200160002060009054906101000a900473ffffffffffffffffffffffffffffffffffffffff1673ffffffffffffffffffffffffffffffffffffffff1663095ea7b333600a6040518363ffffffff1660e01b81526004016126b1929190613e15565b602060405180830381600087803b1580156126cb57600080fd5b505af11580156126df573d6000803e3d6000fd5b505050506040513d601f19601f820116820180604052506127039190810190613771565b612742576040517f08c379a00000000000000000000000000000000000000000000000000000000081526004016127399061404a565b60405180910390fd5b603060003373ffffffffffffffffffffffffffffffffffffffff1673ffffffffffffffffffffffffffffffffffffffff16815260200190815260200160002060006006815260200190815260200160002060009054906101000a900460ff166128a0576001603060003373ffffffffffffffffffffffffffffffffffffffff1673ffffffffffffffffffffffffffffffffffffffff16815260200190815260200160002060006006815260200190815260200160002060006101000a81548160ff021916908315150217905550600160009054906101000a900473ffffffffffffffffffffffffffffffffffffffff1673ffffffffffffffffffffffffffffffffffffffff1663158a49883360026040518363ffffffff1660e01b815260040161286d929190613e67565b600060405180830381600087803b15801561288757600080fd5b505af115801561289b573d6000803e3d6000fd5b505050505b565b600160009054906101000a900473ffffffffffffffffffffffffffffffffffffffff1681565b600160009054906101000a900473ffffffffffffffffffffffffffffffffffffffff1673ffffffffffffffffffffffffffffffffffffffff1663f0a47f78336040518263ffffffff1660e01b81526004016129239190613dd1565b60206040518083038186803b15801561293b57600080fd5b505afa15801561294f573d6000803e3d6000fd5b505050506040513d601f19601f820116820180604052506129739190810190613771565b61297c57600080fd5b81600590601461298d92919061328e565b5080601990601461299f9291906132ce565b506000602d8190555060008090505b6014811015612a18577fcc783cf5d663570e7c7576cec91f24975b35b957c8dd67766710be25c48cf602601982601481106129e557fe5b01600583601481106129f357fe5b0154604051612a0392919061401a565b60405180910390a180806001019150506129ae565b505050565b6060602e60008373ffffffffffffffffffffffffffffffffffffffff1673ffffffffffffffffffffffffffffffffffffffff1681526020019081526020016000208054600181600116156101000203166002900480601f016020809104026020016040519081016040528092919081815260200182805460018160011615610100020316600290048015612af25780601f10612ac757610100808354040283529160200191612af2565b820191906000526020600020905b815481529060010190602001808311612ad557829003601f168201915b50505050509050919050565b60316020528060005260406000206000915054906101000a900473ffffffffffffffffffffffffffffffffffffffff1681565b60006020528060005260406000206000915054906101000a900460ff1681565b600080600460009054906101000a900473ffffffffffffffffffffffffffffffffffffffff1673ffffffffffffffffffffffffffffffffffffffff16603160003373ffffffffffffffffffffffffffffffffffffffff1673ffffffffffffffffffffffffffffffffffffffff16815260200190815260200160002060009054906101000a900473ffffffffffffffffffffffffffffffffffffffff1673ffffffffffffffffffffffffffffffffffffffff1610612c9057600460009054906101000a900473ffffffffffffffffffffffffffffffffffffffff16603160003373ffffffffffffffffffffffffffffffffffffffff1673ffffffffffffffffffffffffffffffffffffffff16815260200190815260200160002060009054906101000a900473ffffffffffffffffffffffffffffffffffffffff16612d14565b603160003373ffffffffffffffffffffffffffffffffffffffff1673ffffffffffffffffffffffffffffffffffffffff16815260200190815260200160002060009054906101000a900473ffffffffffffffffffffffffffffffffffffffff16600460009054906101000a900473ffffffffffffffffffffffffffffffffffffffff165b915091506000600360009054906101000a900473ffffffffffffffffffffffffffffffffffffffff1673ffffffffffffffffffffffffffffffffffffffff1663e6a4390584846040518363ffffffff1660e01b8152600401612d77929190613f0b565b60206040518083038186803b158015612d8f57600080fd5b505afa158015612da3573d6000803e3d6000fd5b505050506040513d601f19601f82011682018060405250612dc791908101906136b6565b905060008190506000808273ffffffffffffffffffffffffffffffffffffffff16630902f1ac6040518163ffffffff1660e01b815260040160606040518083038186803b158015612e1757600080fd5b505afa158015612e2b573d6000803e3d6000fd5b505050506040513d601f19601f82011682018060405250612e4f9190810190613856565b5091509150603260003373ffffffffffffffffffffffffffffffffffffffff1673ffffffffffffffffffffffffffffffffffffffff16815260200190815260200160002060009054906101000a900473ffffffffffffffffffffffffffffffffffffffff1673ffffffffffffffffffffffffffffffffffffffff16637ea382c16040518163ffffffff1660e01b8152600401600060405180830381600087803b158015612efb57600080fd5b505af1158015612f0f573d6000803e3d6000fd5b505050506000808473ffffffffffffffffffffffffffffffffffffffff16630902f1ac6040518163ffffffff1660e01b815260040160606040518083038186803b158015612f5c57600080fd5b505afa158015612f70573d6000803e3d6000fd5b505050506040513d601f19601f82011682018060405250612f949190810190613856565b5091509150816dffffffffffffffffffffffffffff16846dffffffffffffffffffffffffffff16118015612fe75750806dffffffffffffffffffffffffffff16836dffffffffffffffffffffffffffff16115b613026576040517f08c379a000000000000000000000000000000000000000000000000000000000815260040161301d906140ea565b60405180910390fd5b603060003373ffffffffffffffffffffffffffffffffffffffff1673ffffffffffffffffffffffffffffffffffffffff16815260200190815260200160002060006009815260200190815260200160002060009054906101000a900460ff16613184576001603060003373ffffffffffffffffffffffffffffffffffffffff1673ffffffffffffffffffffffffffffffffffffffff16815260200190815260200160002060006009815260200190815260200160002060006101000a81548160ff021916908315150217905550600160009054906101000a900473ffffffffffffffffffffffffffffffffffffffff1673ffffffffffffffffffffffffffffffffffffffff1663158a49883360046040518363ffffffff1660e01b8152600401613151929190613eb9565b600060405180830381600087803b15801561316b57600080fd5b505af115801561317f573d6000803e3d6000fd5b505050505b5050505050505050565b60336020528060005260406000206000915054906101000a900460ff1681565b6000816040516020016131c19190613d9f565b60405160208183030381529060405280519060200120836040516020016131e89190613d9f565b6040516020818303038152906040528051906020012014905092915050565b828054600181600116156101000203166002900490600052602060002090601f016020900481019282601f10613240578054855561327d565b8280016001018555821561327d57600052602060002091601f016020900482015b8281111561327c578254825591600101919060010190613261565b5b50905061328a9190613321565b5090565b82601481019282156132bd579160200282015b828111156132bc5782518255916020019190600101906132a1565b5b5090506132ca9190613321565b5090565b8260148101928215613310579160200282015b8281111561330f5782518290805190602001906132ff929190613346565b50916020019190600101906132e1565b5b50905061331d91906133c6565b5090565b61334391905b8082111561333f576000816000905550600101613327565b5090565b90565b828054600181600116156101000203166002900490600052602060002090601f016020900481019282601f1061338757805160ff19168380011785556133b5565b828001600101855582156133b5579182015b828111156133b4578251825591602001919060010190613399565b5b5090506133c29190613321565b5090565b6133ef91905b808211156133eb57600081816133e291906133f2565b506001016133cc565b5090565b90565b50805460018160011615610100020316600290046000825580601f106134185750613437565b601f0160209004906000526020600020908101906134369190613321565b5b50565b600081359050613449816144be565b92915050565b60008151905061345e816144be565b92915050565b600082601f83011261347557600080fd5b601461348861348382614192565b614165565b9150818360005b838110156134bf57813586016134a58882613591565b84526020840193506020830192505060018101905061348f565b5050505092915050565b600082601f8301126134da57600080fd5b60146134ed6134e8826141b4565b614165565b9150818385602084028201111561350357600080fd5b60005b838110156135335781613519888261364e565b845260208401935060208301925050600181019050613506565b5050505092915050565b60008151905061354c816144d5565b92915050565b600081359050613561816144ec565b92915050565b60008135905061357681614503565b92915050565b60008135905061358b8161451a565b92915050565b600082601f8301126135a257600080fd5b81356135b56135b0826141d6565b614165565b915080825260208301602083018583830111156135d157600080fd5b6135dc83828461446b565b50505092915050565b600082601f8301126135f657600080fd5b815161360961360482614202565b614165565b9150808252602083016020830185838301111561362557600080fd5b61363083828461447a565b50505092915050565b60008151905061364881614531565b92915050565b60008135905061365d81614548565b92915050565b60008151905061367281614548565b92915050565b6000815190506136878161455f565b92915050565b60006020828403121561369f57600080fd5b60006136ad8482850161343a565b91505092915050565b6000602082840312156136c857600080fd5b60006136d68482850161344f565b91505092915050565b600080604083850312156136f257600080fd5b60006137008582860161343a565b92505060206137118582860161364e565b9150509250929050565b6000806102a0838503121561372f57600080fd5b600061373d858286016134c9565b92505061028083013567ffffffffffffffff81111561375b57600080fd5b61376785828601613464565b9150509250929050565b60006020828403121561378357600080fd5b60006137918482850161353d565b91505092915050565b6000602082840312156137ac57600080fd5b60006137ba84828501613552565b91505092915050565b6000602082840312156137d557600080fd5b60006137e384828501613567565b91505092915050565b6000602082840312156137fe57600080fd5b600061380c8482850161357c565b91505092915050565b60006020828403121561382757600080fd5b600082015167ffffffffffffffff81111561384157600080fd5b61384d848285016135e5565b91505092915050565b60008060006060848603121561386b57600080fd5b600061387986828701613639565b935050602061388a86828701613639565b925050604061389b86828701613678565b9150509250925092565b6000602082840312156138b757600080fd5b60006138c584828501613663565b91505092915050565b6138d781614315565b82525050565b6138e681614275565b82525050565b6138f581614287565b82525050565b61390481614327565b82525050565b6139138161434b565b82525050565b6139228161436f565b82525050565b61393181614393565b82525050565b613940816143b7565b82525050565b61394f816143db565b82525050565b61395e816143ed565b82525050565b61396d816143ff565b82525050565b61397c81614411565b82525050565b61398b81614423565b82525050565b61399a81614435565b82525050565b60006139ab8261424e565b6139b58185614259565b93506139c581856020860161447a565b6139ce816144ad565b840191505092915050565b60006139e48261424e565b6139ee818561426a565b93506139fe81856020860161447a565b80840191505092915050565b6000613a1582614243565b613a1f8185614259565b9350613a2f81856020860161447a565b613a38816144ad565b840191505092915050565b600081546001811660008114613a605760018114613a8657613aca565b607f6002830416613a718187614259565b955060ff198316865260208601935050613aca565b60028204613a948187614259565b9550613a9f8561422e565b60005b82811015613ac157815481890152600182019150602081019050613aa2565b80880195505050505b505092915050565b6000613adf601783614259565b91507f417070726f7665206e6f7420696d706c656d656e7465640000000000000000006000830152602082019050919050565b6000613b1f601083614259565b91507f496e636f7272656374207469636b6572000000000000000000000000000000006000830152602082019050919050565b6000613b5f603083614259565b91507f596f7520646f206e6f7420686f6c642064756d6d79546f6b656e732e2042757960008301527f207468656d206f6e20556e6973776170000000000000000000000000000000006020830152604082019050919050565b6000613bc5602e83614259565b91507f596f7520646f206e6f7420686f6c64206c697175696469747920696e2074686560008301527f20726571756972656420706f6f6c0000000000000000000000000000000000006020830152604082019050919050565b6000613c2b602c83614259565b91507f42616c616e63654f66206e6f7420696d706c656d656e746564206f7220696e6360008301527f6f72726563746c792073657400000000000000000000000000000000000000006020830152604082019050919050565b6000613c91602883614259565b91507f4e6f206c6971756964697479206368616e676520696e20796f757220746f6b6560008301527f6e277320706f6f6c0000000000000000000000000000000000000000000000006020830152604082019050919050565b6000613cf7601083614259565b91507f496e636f727265637420737570706c79000000000000000000000000000000006000830152602082019050919050565b6000613d37602c83614259565b91507f416c6c6f77616e6365206e6f7420696d706c656d656e746564206f7220696e6360008301527f6f72726563746c792073657400000000000000000000000000000000000000006020830152604082019050919050565b613d99816142fb565b82525050565b6000613dab82846139d9565b915081905092915050565b6000602082019050613dcb60008301846138dd565b92915050565b6000602082019050613de660008301846138ce565b92915050565b6000604082019050613e0160008301856138ce565b613e0e60208301846138ce565b9392505050565b6000604082019050613e2a60008301856138ce565b613e376020830184613946565b9392505050565b6000604082019050613e5360008301856138ce565b613e606020830184613955565b9392505050565b6000604082019050613e7c60008301856138ce565b613e896020830184613964565b9392505050565b6000604082019050613ea560008301856138ce565b613eb26020830184613973565b9392505050565b6000604082019050613ece60008301856138ce565b613edb6020830184613982565b9392505050565b6000604082019050613ef760008301856138ce565b613f046020830184613991565b9392505050565b6000604082019050613f2060008301856138dd565b613f2d60208301846138dd565b9392505050565b6000602082019050613f4960008301846138ec565b92915050565b6000602082019050613f6460008301846138fb565b92915050565b6000602082019050613f7f600083018461390a565b92915050565b6000602082019050613f9a6000830184613919565b92915050565b6000602082019050613fb56000830184613928565b92915050565b6000602082019050613fd06000830184613937565b92915050565b60006020820190508181036000830152613ff08184613a0a565b905092915050565b6000602082019050818103600083015261401281846139a0565b905092915050565b600060408201905081810360008301526140348185613a43565b90506140436020830184613d90565b9392505050565b6000602082019050818103600083015261406381613ad2565b9050919050565b6000602082019050818103600083015261408381613b12565b9050919050565b600060208201905081810360008301526140a381613b52565b9050919050565b600060208201905081810360008301526140c381613bb8565b9050919050565b600060208201905081810360008301526140e381613c1e565b9050919050565b6000602082019050818103600083015261410381613c84565b9050919050565b6000602082019050818103600083015261412381613cea565b9050919050565b6000602082019050818103600083015261414381613d2a565b9050919050565b600060208201905061415f6000830184613d90565b92915050565b6000604051905081810181811067ffffffffffffffff8211171561418857600080fd5b8060405250919050565b600067ffffffffffffffff8211156141a957600080fd5b602082029050919050565b600067ffffffffffffffff8211156141cb57600080fd5b602082029050919050565b600067ffffffffffffffff8211156141ed57600080fd5b601f19601f8301169050602081019050919050565b600067ffffffffffffffff82111561421957600080fd5b601f19601f8301169050602081019050919050565b60008190508160005260206000209050919050565b600081519050919050565b600081519050919050565b600082825260208201905092915050565b600081905092915050565b6000614280826142db565b9050919050565b60008115159050919050565b6000819050919050565b60006142a882614275565b9050919050565b60006142ba82614275565b9050919050565b60006dffffffffffffffffffffffffffff82169050919050565b600073ffffffffffffffffffffffffffffffffffffffff82169050919050565b6000819050919050565b600063ffffffff82169050919050565b600061432082614447565b9050919050565b600061433282614339565b9050919050565b6000614344826142db565b9050919050565b60006143568261435d565b9050919050565b6000614368826142db565b9050919050565b600061437a82614381565b9050919050565b600061438c826142db565b9050919050565b600061439e826143a5565b9050919050565b60006143b0826142db565b9050919050565b60006143c2826143c9565b9050919050565b60006143d4826142db565b9050919050565b60006143e6826142fb565b9050919050565b60006143f8826142fb565b9050919050565b600061440a826142fb565b9050919050565b600061441c826142fb565b9050919050565b600061442e826142fb565b9050919050565b6000614440826142fb565b9050919050565b600061445282614459565b9050919050565b6000614464826142db565b9050919050565b82818337600083830152505050565b60005b8381101561449857808201518184015260208101905061447d565b838111156144a7576000848401525b50505050565b6000601f19601f8301169050919050565b6144c781614275565b81146144d257600080fd5b50565b6144de81614287565b81146144e957600080fd5b50565b6144f581614293565b811461450057600080fd5b50565b61450c8161429d565b811461451757600080fd5b50565b614523816142af565b811461452e57600080fd5b50565b61453a816142c1565b811461454557600080fd5b50565b614551816142fb565b811461455c57600080fd5b50565b61456881614305565b811461457357600080fd5b5056fea26469706673582212200c08e8c7deca456db571ac9e632f2ee52eda5673a0cb3c1a205a0b317e38429164736f6c63430006020033",
  "source": "pragma solidity ^0.6.0;\npragma experimental ABIEncoderV2;\n\nimport \"./ERC20TD.sol\";\nimport \"./IExerciceSolution.sol\";\nimport \"./IRichERC20.sol\";\nimport \"./utils/IUniswapV2Factory.sol\";\nimport \"./utils/IUniswapV2Pair.sol\";\n\ncontract Evaluator \n{\n\n\tmapping(address => bool) public teachers;\n\tERC20TD public TDAMM;\n\tERC20 public dummyToken;\n\n\tIUniswapV2Factory public uniswapV2Factory;\n\taddress public WETH;\n\n\tuint256[20] private randomSupplies;\n\tstring[20] private randomTickers;\n \tuint public nextValueStoreRank;\n\n \tmapping(address => string) public assignedTicker;\n \tmapping(address => uint256) public assignedSupply;\n \tmapping(address => mapping(uint256 => bool)) public exerciceProgression;\n \tmapping(address => IRichERC20) public studentErc20;\n \tmapping(address => IExerciceSolution) public studentExercice;\n \tmapping(address => bool) public hasBeenPaired;\n\n \tevent newRandomTickerAndSupply(string ticker, uint256 supply);\n \tevent constructedCorrectly(address erc20Address, address dummyTokenAddress, address uniFactoryAddress, address wethAddress);\n\tconstructor(ERC20TD _TDAMM, ERC20 _dummyToken, IUniswapV2Factory _uniswapV2Factory, address _WETH) \n\tpublic \n\t{\n\t\tTDAMM = _TDAMM;\n\t\tdummyToken = _dummyToken;\n\t\tuniswapV2Factory = _uniswapV2Factory;\n\t\tWETH = _WETH;\n\t\temit constructedCorrectly(address(TDAMM), address(_dummyToken), address(_uniswapV2Factory), _WETH);\n\n\t}\n\n\tfallback () external payable \n\t{}\n\n\treceive () external payable \n\t{}\n\n\tfunction ex1_showIHaveTokens()\n\tpublic\n\t{\n\t\trequire(dummyToken.balanceOf(msg.sender) > 0, \"You do not hold dummyTokens. Buy them on Uniswap\");\n\n\t\tif (!exerciceProgression[msg.sender][1])\n\t\t{\n\t\t\texerciceProgression[msg.sender][1] = true;\n\t\t\tTDAMM.distributeTokens(msg.sender, 2);\n\t\t}\n\n\t}\n\n\tfunction ex2_showIProvidedLiquidity()\n\tpublic\n\t{\n\t\t// Getting address from factory for pair dummyToken / WETH\n\t\t(address token0, address token1) = address(dummyToken) < WETH ? (address(dummyToken), WETH) : (WETH, address(dummyToken));\n\t\taddress dummyTokenAndWethPair = uniswapV2Factory.getPair(token0, token1);\n\n\t\t// Checking if caller holds LP token\n\t\tERC20 dummyTokenAndWethPairAsERC20 = ERC20(dummyTokenAndWethPair);\n\t\trequire(dummyTokenAndWethPairAsERC20.balanceOf(msg.sender) > 0, \"You do not hold liquidity in the required pool\");\n\t\tif (!exerciceProgression[msg.sender][2])\n\t\t{\n\t\t\texerciceProgression[msg.sender][2] = true;\n\t\t\tTDAMM.distributeTokens(msg.sender, 2);\n\t\t}\n\t}\n\n\tfunction ex6a_getTickerAndSupply()\n\tpublic\n\t{\n\t\tassignedSupply[msg.sender] = randomSupplies[nextValueStoreRank]*1000000000000000000;\n\t\t// assignedTicker[msg.sender] = bytes32ToString(randomTickers[nextValueStoreRank]);\n\t\tassignedTicker[msg.sender] = randomTickers[nextValueStoreRank];\n\n\t\tnextValueStoreRank += 1;\n\t\tif (nextValueStoreRank >= 20)\n\t\t{\n\t\t\tnextValueStoreRank = 0;\n\t\t}\n\n\t\t// Crediting points\n\t\tif (!exerciceProgression[msg.sender][4])\n\t\t{\n\t\t\texerciceProgression[msg.sender][4] = true;\n\t\t\tTDAMM.distributeTokens(msg.sender, 2);\n\t\t}\n\t}\n\n\tfunction ex6b_testErc20TickerAndSupply()\n\tpublic\n\t{\n\t\t// Checking ticker and supply were received\n\t\trequire(exerciceProgression[msg.sender][1]);\n\n\t\t// Checking exercice was submitted\n\t\trequire(exerciceProgression[msg.sender][0]);\n\n\t\t// Checking ticker was set properly\n\t\trequire(_compareStrings(assignedTicker[msg.sender], studentErc20[msg.sender].symbol()), \"Incorrect ticker\");\n\t\t// Checking supply was set properly\n\t\trequire(assignedSupply[msg.sender] == studentErc20[msg.sender].totalSupply(), \"Incorrect supply\");\n\t\t// Checking some ERC20 functions were created\n\t\trequire(studentErc20[msg.sender].allowance(address(this), msg.sender) == 0, \"Allowance not implemented or incorrectly set\");\n\t\trequire(studentErc20[msg.sender].balanceOf(address(this)) == 0, \"BalanceOf not implemented or incorrectly set\");\n\t\trequire(studentErc20[msg.sender].approve(msg.sender, 10), \"Approve not implemented\");\n\n\t\t// Crediting points\n\t\tif (!exerciceProgression[msg.sender][6])\n\t\t{\n\t\t\texerciceProgression[msg.sender][6] = true;\n\t\t\t// Creating ERC20\n\t\t\tTDAMM.distributeTokens(msg.sender, 2);\n\t\t}\n\n\t}\n\n\tfunction ex7_tokenIsTradableOnUniswap()\n\tpublic\n\t{\n\t\t// Retrieving address of pair from library\n\t\t(address token0, address token1) = address(studentErc20[msg.sender]) < WETH ? (address(studentErc20[msg.sender]), WETH) : (WETH, address(studentErc20[msg.sender]));\n\t\taddress studentTokenAndWethPair = uniswapV2Factory.getPair(token0, token1);\n\n\t\trequire(studentTokenAndWethPair != address(0));\n\n\t\t// Crediting points\n\t\tif (!exerciceProgression[msg.sender][7])\n\t\t{\n\t\t\texerciceProgression[msg.sender][7] = true;\n\t\t\t// Creating ERC20\n\t\t\tTDAMM.distributeTokens(msg.sender, 5);\n\t\t}\n\n\t}\n\n\tfunction ex8_contractCanProvideLiquidity()\n\tpublic\n\t{\n\t\t// Retrieving address of pair from library\n\t\t(address token0, address token1) = address(studentErc20[msg.sender]) < WETH ? (address(studentErc20[msg.sender]), WETH) : (WETH, address(studentErc20[msg.sender]));\n\t\taddress studentTokenAndWethPair = uniswapV2Factory.getPair(token0, token1);\n\n\t\t// Checking pair balance before calling exercice contract\n\t\tIUniswapV2Pair studentTokenAndWethPairInstance = IUniswapV2Pair(studentTokenAndWethPair);\n\t\t(uint112 reserve0, uint112 reserve1, ) = studentTokenAndWethPairInstance.getReserves();\n\n\t\t// Calling student contract to tell him to provide liquidity\n\t\tstudentExercice[msg.sender].addLiquidity();\n\n\t\t// Checking pair balance after calling exercice contract\n\t\t(uint112 reserve3, uint112 reserve4,) = studentTokenAndWethPairInstance.getReserves();\n\n\t\trequire((reserve0 < reserve3) && (reserve1 < reserve4), \"No liquidity change in your token's pool\");\n\n\t\t// Crediting points\n\t\tif (!exerciceProgression[msg.sender][8])\n\t\t{\n\t\t\texerciceProgression[msg.sender][8] = true;\n\t\t\t// Creating ERC20\n\t\t\tTDAMM.distributeTokens(msg.sender, 3);\n\t\t}\n\n\t}\n\n\tfunction ex9_contractCanWithdrawLiquidity()\n\tpublic\n\t{\n\t\t// Retrieving address of pair from library\n\t\t(address token0, address token1) = address(studentErc20[msg.sender]) < WETH ? (address(studentErc20[msg.sender]), WETH) : (WETH, address(studentErc20[msg.sender]));\n\t\taddress studentTokenAndWethPair = uniswapV2Factory.getPair(token0, token1);\n\n\t\t// Checking pair balance before calling exercice contract\n\t\tIUniswapV2Pair studentTokenAndWethPairInstance = IUniswapV2Pair(studentTokenAndWethPair);\n\t\t(uint112 reserve0, uint112 reserve1, ) = studentTokenAndWethPairInstance.getReserves();\n\n\t\t// Calling student contract to tell him to provide liquidity\n\t\tstudentExercice[msg.sender].withdrawLiquidity();\n\n\t\t// Checking pair balance after calling exercice contract\n\t\t(uint112 reserve3, uint112 reserve4,) = studentTokenAndWethPairInstance.getReserves();\n\n\t\trequire((reserve0 > reserve3) && (reserve1 > reserve4), \"No liquidity change in your token's pool\");\n\n\t\t// Crediting points\n\t\tif (!exerciceProgression[msg.sender][9])\n\t\t{\n\t\t\texerciceProgression[msg.sender][9] = true;\n\t\t\t// Creating ERC20\n\t\t\tTDAMM.distributeTokens(msg.sender, 4);\n\t\t}\n\n\t}\n\n\n\tmodifier onlyTeachers() \n\t{\n\n\t    require(TDAMM.teachers(msg.sender));\n\t    _;\n\t}\n\n\tfunction submitExercice(IExerciceSolution studentExercice_)\n\tpublic\n\t{\n\t\t// Checking this contract was not used by another group before\n\t\trequire(!hasBeenPaired[address(studentExercice_)]);\n\n\t\t// Assigning passed ERC20 as student ERC20\n\t\tstudentExercice[msg.sender] = studentExercice_;\n\t\thasBeenPaired[address(studentExercice_)] = true;\n\t\t\t\n\t}\n\n\tfunction submitErc20(IRichERC20 studentErc20_)\n\tpublic\n\t{\n\t\t// Assigning passed ERC20 as student ERC20\n\t\tstudentErc20[msg.sender] = studentErc20_;\n\t\tif (!exerciceProgression[msg.sender][5])\n\t\t{\n\t\t\texerciceProgression[msg.sender][5] = true;\n\t\t\t// Setup points\n\t\t\tTDAMM.distributeTokens(msg.sender, 2);\n\t\t\t// Creating contract points\n\t\t\tTDAMM.distributeTokens(msg.sender, 1);\n\t\t}\n\t\t\t\n\t}\n\n\tfunction _compareStrings(string memory a, string memory b) \n\tinternal \n\tpure \n\treturns (bool) \n\t{\n    \treturn (keccak256(abi.encodePacked((a))) == keccak256(abi.encodePacked((b))));\n\t}\n\n\tfunction bytes32ToString(bytes32 _bytes32) \n\tpublic \n\tpure returns (string memory) \n\t{\n        uint8 i = 0;\n        while(i < 32 && _bytes32[i] != 0) {\n            i++;\n        }\n        bytes memory bytesArray = new bytes(i);\n        for (i = 0; i < 32 && _bytes32[i] != 0; i++) {\n            bytesArray[i] = _bytes32[i];\n        }\n        return string(bytesArray);\n    }\n\n\tfunction readTicker(address studentAddres)\n\tpublic\n\tview\n\treturns(string memory)\n\t{\n\t\treturn assignedTicker[studentAddres];\n\t}\n\n\tfunction readSupply(address studentAddres)\n\tpublic\n\tview\n\treturns(uint256)\n\t{\n\t\treturn assignedSupply[studentAddres];\n\t}\n\n\tfunction setRandomTickersAndSupply(uint256[20] memory _randomSupplies, string[20] memory _randomTickers) \n\tpublic \n\tonlyTeachers\n\t{\n\t\trandomSupplies = _randomSupplies;\n\t\trandomTickers = _randomTickers;\n\t\tnextValueStoreRank = 0;\n\t\tfor (uint i = 0; i < 20; i++)\n\t\t{\n\t\t\temit newRandomTickerAndSupply(randomTickers[i], randomSupplies[i]);\n\t\t}\n\t}\n\n\n\n\n}\n",
  "sourcePath": "/Users/henrilieutaud/Documents/Mes documents/ESILV/03 Blockchain Programmation/amm-101/contracts/Evaluator.sol",
  "compiler": {
    "name": "solc",
    "version": "0.6.2+commit.bacdbe57.Emscripten.clang"
  },
  "schemaVersion": "3.3.4",
  "updatedAt": "2021-12-02T16:50:04.244Z",
  "devdoc": {
    "methods": {}
  },
  "userdoc": {
    "methods": {}
  }
}