{
  "contractName": "Evaluator",
  "abi": [
    {
      "inputs": [
        {
          "internalType": "contract ERC20TD",
          "name": "_TDAMM",
          "type": "address"
        },
        {
          "internalType": "contract ERC20",
          "name": "_dummyToken",
          "type": "address"
        },
        {
          "internalType": "contract IUniswapV2Factory",
          "name": "_uniswapV2Factory",
          "type": "address"
        },
        {
          "internalType": "address",
          "name": "_WETH",
          "type": "address"
        }
      ],
      "stateMutability": "nonpayable",
      "type": "constructor"
    },
    {
      "anonymous": false,
      "inputs": [
        {
          "indexed": false,
          "internalType": "address",
          "name": "erc20Address",
          "type": "address"
        },
        {
          "indexed": false,
          "internalType": "address",
          "name": "dummyTokenAddress",
          "type": "address"
        },
        {
          "indexed": false,
          "internalType": "address",
          "name": "uniFactoryAddress",
          "type": "address"
        },
        {
          "indexed": false,
          "internalType": "address",
          "name": "wethAddress",
          "type": "address"
        }
      ],
      "name": "constructedCorrectly",
      "type": "event"
    },
    {
      "anonymous": false,
      "inputs": [
        {
          "indexed": false,
          "internalType": "string",
          "name": "ticker",
          "type": "string"
        },
        {
          "indexed": false,
          "internalType": "uint256",
          "name": "supply",
          "type": "uint256"
        }
      ],
      "name": "newRandomTickerAndSupply",
      "type": "event"
    },
    {
      "stateMutability": "payable",
      "type": "fallback",
      "payable": true
    },
    {
      "inputs": [],
      "name": "TDAMM",
      "outputs": [
        {
          "internalType": "contract ERC20TD",
          "name": "",
          "type": "address"
        }
      ],
      "stateMutability": "view",
      "type": "function",
      "constant": true
    },
    {
      "inputs": [],
      "name": "WETH",
      "outputs": [
        {
          "internalType": "address",
          "name": "",
          "type": "address"
        }
      ],
      "stateMutability": "view",
      "type": "function",
      "constant": true
    },
    {
      "inputs": [
        {
          "internalType": "address",
          "name": "",
          "type": "address"
        }
      ],
      "name": "assignedSupply",
      "outputs": [
        {
          "internalType": "uint256",
          "name": "",
          "type": "uint256"
        }
      ],
      "stateMutability": "view",
      "type": "function",
      "constant": true
    },
    {
      "inputs": [
        {
          "internalType": "address",
          "name": "",
          "type": "address"
        }
      ],
      "name": "assignedTicker",
      "outputs": [
        {
          "internalType": "string",
          "name": "",
          "type": "string"
        }
      ],
      "stateMutability": "view",
      "type": "function",
      "constant": true
    },
    {
      "inputs": [],
      "name": "dummyToken",
      "outputs": [
        {
          "internalType": "contract ERC20",
          "name": "",
          "type": "address"
        }
      ],
      "stateMutability": "view",
      "type": "function",
      "constant": true
    },
    {
      "inputs": [
        {
          "internalType": "address",
          "name": "",
          "type": "address"
        },
        {
          "internalType": "uint256",
          "name": "",
          "type": "uint256"
        }
      ],
      "name": "exerciceProgression",
      "outputs": [
        {
          "internalType": "bool",
          "name": "",
          "type": "bool"
        }
      ],
      "stateMutability": "view",
      "type": "function",
      "constant": true
    },
    {
      "inputs": [
        {
          "internalType": "address",
          "name": "",
          "type": "address"
        }
      ],
      "name": "hasBeenPaired",
      "outputs": [
        {
          "internalType": "bool",
          "name": "",
          "type": "bool"
        }
      ],
      "stateMutability": "view",
      "type": "function",
      "constant": true
    },
    {
      "inputs": [],
      "name": "nextValueStoreRank",
      "outputs": [
        {
          "internalType": "uint256",
          "name": "",
          "type": "uint256"
        }
      ],
      "stateMutability": "view",
      "type": "function",
      "constant": true
    },
    {
      "inputs": [
        {
          "internalType": "address",
          "name": "",
          "type": "address"
        }
      ],
      "name": "studentErc20",
      "outputs": [
        {
          "internalType": "contract IRichERC20",
          "name": "",
          "type": "address"
        }
      ],
      "stateMutability": "view",
      "type": "function",
      "constant": true
    },
    {
      "inputs": [
        {
          "internalType": "address",
          "name": "",
          "type": "address"
        }
      ],
      "name": "studentExercice",
      "outputs": [
        {
          "internalType": "contract IExerciceSolution",
          "name": "",
          "type": "address"
        }
      ],
      "stateMutability": "view",
      "type": "function",
      "constant": true
    },
    {
      "inputs": [
        {
          "internalType": "address",
          "name": "",
          "type": "address"
        }
      ],
      "name": "teachers",
      "outputs": [
        {
          "internalType": "bool",
          "name": "",
          "type": "bool"
        }
      ],
      "stateMutability": "view",
      "type": "function",
      "constant": true
    },
    {
      "inputs": [],
      "name": "uniswapV2Factory",
      "outputs": [
        {
          "internalType": "contract IUniswapV2Factory",
          "name": "",
          "type": "address"
        }
      ],
      "stateMutability": "view",
      "type": "function",
      "constant": true
    },
    {
      "stateMutability": "payable",
      "type": "receive",
      "payable": true
    },
    {
      "inputs": [],
      "name": "ex1_showIHaveTokens",
      "outputs": [],
      "stateMutability": "nonpayable",
      "type": "function"
    },
    {
      "inputs": [],
      "name": "ex2_showIProvidedLiquidity",
      "outputs": [],
      "stateMutability": "nonpayable",
      "type": "function"
    },
    {
      "inputs": [],
      "name": "ex6a_getTickerAndSupply",
      "outputs": [],
      "stateMutability": "nonpayable",
      "type": "function"
    },
    {
      "inputs": [],
      "name": "ex6b_testErc20TickerAndSupply",
      "outputs": [],
      "stateMutability": "nonpayable",
      "type": "function"
    },
    {
      "inputs": [],
      "name": "ex7_tokenIsTradableOnUniswap",
      "outputs": [],
      "stateMutability": "nonpayable",
      "type": "function"
    },
    {
      "inputs": [],
      "name": "ex8_contractCanSwapVsEth",
      "outputs": [],
      "stateMutability": "nonpayable",
      "type": "function"
    },
    {
      "inputs": [],
      "name": "ex9_contractCanSwapVsDummyToken",
      "outputs": [],
      "stateMutability": "nonpayable",
      "type": "function"
    },
    {
      "inputs": [],
      "name": "ex10_contractCanProvideLiquidity",
      "outputs": [],
      "stateMutability": "nonpayable",
      "type": "function"
    },
    {
      "inputs": [],
      "name": "ex11_contractCanWithdrawLiquidity",
      "outputs": [],
      "stateMutability": "nonpayable",
      "type": "function"
    },
    {
      "inputs": [
        {
          "internalType": "contract IExerciceSolution",
          "name": "studentExercice_",
          "type": "address"
        }
      ],
      "name": "submitExercice",
      "outputs": [],
      "stateMutability": "nonpayable",
      "type": "function"
    },
    {
      "inputs": [
        {
          "internalType": "contract IRichERC20",
          "name": "studentErc20_",
          "type": "address"
        }
      ],
      "name": "submitErc20",
      "outputs": [],
      "stateMutability": "nonpayable",
      "type": "function"
    },
    {
      "inputs": [
        {
          "internalType": "bytes32",
          "name": "_bytes32",
          "type": "bytes32"
        }
      ],
      "name": "bytes32ToString",
      "outputs": [
        {
          "internalType": "string",
          "name": "",
          "type": "string"
        }
      ],
      "stateMutability": "pure",
      "type": "function",
      "constant": true
    },
    {
      "inputs": [
        {
          "internalType": "address",
          "name": "studentAddres",
          "type": "address"
        }
      ],
      "name": "readTicker",
      "outputs": [
        {
          "internalType": "string",
          "name": "",
          "type": "string"
        }
      ],
      "stateMutability": "view",
      "type": "function",
      "constant": true
    },
    {
      "inputs": [
        {
          "internalType": "address",
          "name": "studentAddres",
          "type": "address"
        }
      ],
      "name": "readSupply",
      "outputs": [
        {
          "internalType": "uint256",
          "name": "",
          "type": "uint256"
        }
      ],
      "stateMutability": "view",
      "type": "function",
      "constant": true
    },
    {
      "inputs": [
        {
          "internalType": "uint256[20]",
          "name": "_randomSupplies",
          "type": "uint256[20]"
        },
        {
          "internalType": "string[20]",
          "name": "_randomTickers",
          "type": "string[20]"
        }
      ],
      "name": "setRandomTickersAndSupply",
      "outputs": [],
      "stateMutability": "nonpayable",
      "type": "function"
    }
  ],
  "bytecode": "0x60806040523480156200001157600080fd5b5060405162005a6938038062005a69833981810160405262000037919081019062000202565b83600160006101000a81548173ffffffffffffffffffffffffffffffffffffffff021916908373ffffffffffffffffffffffffffffffffffffffff16021790555082600260006101000a81548173ffffffffffffffffffffffffffffffffffffffff021916908373ffffffffffffffffffffffffffffffffffffffff16021790555081600360006101000a81548173ffffffffffffffffffffffffffffffffffffffff021916908373ffffffffffffffffffffffffffffffffffffffff16021790555080600460006101000a81548173ffffffffffffffffffffffffffffffffffffffff021916908373ffffffffffffffffffffffffffffffffffffffff1602179055507f82169bf8e2a940653a3005b8fbe3a01d8ab56fd5bbbcd0bf31ac67b29cee1f97600160009054906101000a900473ffffffffffffffffffffffffffffffffffffffff168484846040516200019494939291906200027f565b60405180910390a150505050620003a4565b600081519050620001b7816200033c565b92915050565b600081519050620001ce8162000356565b92915050565b600081519050620001e58162000370565b92915050565b600081519050620001fc816200038a565b92915050565b600080600080608085870312156200021957600080fd5b60006200022987828801620001bd565b94505060206200023c87828801620001d4565b93505060406200024f87828801620001eb565b92505060606200026287828801620001a6565b91505092959194509250565b6200027981620002cc565b82525050565b60006080820190506200029660008301876200026e565b620002a560208301866200026e565b620002b460408301856200026e565b620002c360608301846200026e565b95945050505050565b6000620002d9826200031c565b9050919050565b6000620002ed82620002cc565b9050919050565b60006200030182620002cc565b9050919050565b60006200031582620002cc565b9050919050565b600073ffffffffffffffffffffffffffffffffffffffff82169050919050565b6200034781620002cc565b81146200035357600080fd5b50565b6200036181620002e0565b81146200036d57600080fd5b50565b6200037b81620002f4565b81146200038757600080fd5b50565b620003958162000308565b8114620003a157600080fd5b50565b6156b580620003b46000396000f3fe60806040526004361061019f5760003560e01c80639b148f17116100ec578063cec7f2101161008a578063e22ebfd611610064578063e22ebfd61461055d578063e84092a91461059a578063f0a47f78146105b1578063f4fdbb88146105ee576101a6565b8063cec7f210146104cc578063d1a2e76e146104f7578063e22b5dcf14610520576101a6565b8063c7599393116100c6578063c759939314610470578063ca5cd0c214610487578063cc093e7a1461049e578063cd3560d7146104b5576101a6565b80639b148f17146103f15780639f91f51614610408578063ad5c464814610445576101a6565b806352954cf31161015957806367479ec51161013357806367479ec5146103235780637c83d61a1461034e5780637db60caf146103775780639201de55146103b4576101a6565b806352954cf3146102ca57806359d0f713146102e15780635d54c3701461030c576101a6565b8062a3491a146101a857806305b12022146101e55780630c58c95c146101fc5780632236d353146102395780632e64c5001461026257806339119dce1461029f576101a6565b366101a657005b005b3480156101b457600080fd5b506101cf60048036036101ca91908101906147a4565b61062b565b6040516101dc91906150e3565b60405180910390f35b3480156101f157600080fd5b506101fa6106db565b005b34801561020857600080fd5b50610223600480360361021e91908101906147a4565b610af0565b6040516102309190615092565b60405180910390f35b34801561024557600080fd5b50610260600480360361025b91908101906148da565b610b23565b005b34801561026e57600080fd5b50610289600480360361028491908101906147f6565b610c53565b6040516102969190615041565b60405180910390f35b3480156102ab57600080fd5b506102b4610c82565b6040516102c19190615277565b60405180910390f35b3480156102d657600080fd5b506102df610c88565b005b3480156102ed57600080fd5b506102f6610ed5565b60405161030391906150c8565b60405180910390f35b34801561031857600080fd5b50610321610efb565b005b34801561032f57600080fd5b506103386118f8565b6040516103459190615077565b60405180910390f35b34801561035a57600080fd5b5061037560048036036103709190810190614903565b61191e565b005b34801561038357600080fd5b5061039e600480360361039991908101906147a4565b611a4e565b6040516103ab9190615277565b60405180910390f35b3480156103c057600080fd5b506103db60048036036103d691908101906148b1565b611a66565b6040516103e89190615105565b60405180910390f35b3480156103fd57600080fd5b50610406611bc3565b005b34801561041457600080fd5b5061042f600480360361042a91908101906147a4565b611e14565b60405161043c9190615277565b60405180910390f35b34801561045157600080fd5b5061045a611e5d565b6040516104679190614f15565b60405180910390f35b34801561047c57600080fd5b50610485611e83565b005b34801561049357600080fd5b5061049c612278565b005b3480156104aa57600080fd5b506104b36128b5565b005b3480156104c157600080fd5b506104ca613111565b005b3480156104d857600080fd5b506104e16139b9565b6040516104ee919061505c565b60405180910390f35b34801561050357600080fd5b5061051e60048036036105199190810190614832565b6139df565b005b34801561052c57600080fd5b50610547600480360361054291908101906147a4565b613b34565b6040516105549190615105565b60405180910390f35b34801561056957600080fd5b50610584600480360361057f91908101906147a4565b613c15565b60405161059191906150ad565b60405180910390f35b3480156105a657600080fd5b506105af613c48565b005b3480156105bd57600080fd5b506105d860048036036105d391908101906147a4565b614285565b6040516105e59190615041565b60405180910390f35b3480156105fa57600080fd5b50610615600480360361061091908101906147a4565b6142a5565b6040516106229190615041565b60405180910390f35b602e6020528060005260406000206000915090508054600181600116156101000203166002900480601f0160208091040260200160405190810160405280929190818152602001828054600181600116156101000203166002900480156106d35780601f106106a8576101008083540402835291602001916106d3565b820191906000526020600020905b8154815290600101906020018083116106b657829003601f168201915b505050505081565b600080600460009054906101000a900473ffffffffffffffffffffffffffffffffffffffff1673ffffffffffffffffffffffffffffffffffffffff16603160003373ffffffffffffffffffffffffffffffffffffffff1673ffffffffffffffffffffffffffffffffffffffff16815260200190815260200160002060009054906101000a900473ffffffffffffffffffffffffffffffffffffffff1673ffffffffffffffffffffffffffffffffffffffff161061081a57600460009054906101000a900473ffffffffffffffffffffffffffffffffffffffff16603160003373ffffffffffffffffffffffffffffffffffffffff1673ffffffffffffffffffffffffffffffffffffffff16815260200190815260200160002060009054906101000a900473ffffffffffffffffffffffffffffffffffffffff1661089e565b603160003373ffffffffffffffffffffffffffffffffffffffff1673ffffffffffffffffffffffffffffffffffffffff16815260200190815260200160002060009054906101000a900473ffffffffffffffffffffffffffffffffffffffff16600460009054906101000a900473ffffffffffffffffffffffffffffffffffffffff165b915091506000600360009054906101000a900473ffffffffffffffffffffffffffffffffffffffff1673ffffffffffffffffffffffffffffffffffffffff1663e6a4390584846040518363ffffffff1660e01b8152600401610901929190615018565b60206040518083038186803b15801561091957600080fd5b505afa15801561092d573d6000803e3d6000fd5b505050506040513d601f19601f8201168201806040525061095191908101906147cd565b9050600073ffffffffffffffffffffffffffffffffffffffff168173ffffffffffffffffffffffffffffffffffffffff16141561098d57600080fd5b603060003373ffffffffffffffffffffffffffffffffffffffff1673ffffffffffffffffffffffffffffffffffffffff16815260200190815260200160002060006007815260200190815260200160002060009054906101000a900460ff16610aeb576001603060003373ffffffffffffffffffffffffffffffffffffffff1673ffffffffffffffffffffffffffffffffffffffff16815260200190815260200160002060006007815260200190815260200160002060006101000a81548160ff021916908315150217905550600160009054906101000a900473ffffffffffffffffffffffffffffffffffffffff1673ffffffffffffffffffffffffffffffffffffffff1663158a49883360056040518363ffffffff1660e01b8152600401610ab8929190614fef565b600060405180830381600087803b158015610ad257600080fd5b505af1158015610ae6573d6000803e3d6000fd5b505050505b505050565b60326020528060005260406000206000915054906101000a900473ffffffffffffffffffffffffffffffffffffffff1681565b603360008273ffffffffffffffffffffffffffffffffffffffff1673ffffffffffffffffffffffffffffffffffffffff16815260200190815260200160002060009054906101000a900460ff1615610b7a57600080fd5b80603260003373ffffffffffffffffffffffffffffffffffffffff1673ffffffffffffffffffffffffffffffffffffffff16815260200190815260200160002060006101000a81548173ffffffffffffffffffffffffffffffffffffffff021916908373ffffffffffffffffffffffffffffffffffffffff1602179055506001603360008373ffffffffffffffffffffffffffffffffffffffff1673ffffffffffffffffffffffffffffffffffffffff16815260200190815260200160002060006101000a81548160ff02191690831515021790555050565b60306020528160005260406000206020528060005260406000206000915091509054906101000a900460ff1681565b602d5481565b6000600260009054906101000a900473ffffffffffffffffffffffffffffffffffffffff1673ffffffffffffffffffffffffffffffffffffffff166370a08231336040518263ffffffff1660e01b8152600401610ce59190614f30565b60206040518083038186803b158015610cfd57600080fd5b505afa158015610d11573d6000803e3d6000fd5b505050506040513d601f19601f82011682018060405250610d3591908101906149bc565b11610d75576040517f08c379a0000000000000000000000000000000000000000000000000000000008152600401610d6c906151b7565b60405180910390fd5b603060003373ffffffffffffffffffffffffffffffffffffffff1673ffffffffffffffffffffffffffffffffffffffff16815260200190815260200160002060006001815260200190815260200160002060009054906101000a900460ff16610ed3576001603060003373ffffffffffffffffffffffffffffffffffffffff1673ffffffffffffffffffffffffffffffffffffffff16815260200190815260200160002060006001815260200190815260200160002060006101000a81548160ff021916908315150217905550600160009054906101000a900473ffffffffffffffffffffffffffffffffffffffff1673ffffffffffffffffffffffffffffffffffffffff1663158a49883360026040518363ffffffff1660e01b8152600401610ea0929190614fc6565b600060405180830381600087803b158015610eba57600080fd5b505af1158015610ece573d6000803e3d6000fd5b505050505b565b600360009054906101000a900473ffffffffffffffffffffffffffffffffffffffff1681565b600080600260009054906101000a900473ffffffffffffffffffffffffffffffffffffffff1673ffffffffffffffffffffffffffffffffffffffff16603160003373ffffffffffffffffffffffffffffffffffffffff1673ffffffffffffffffffffffffffffffffffffffff16815260200190815260200160002060009054906101000a900473ffffffffffffffffffffffffffffffffffffffff1673ffffffffffffffffffffffffffffffffffffffff161061103a57600260009054906101000a900473ffffffffffffffffffffffffffffffffffffffff16603160003373ffffffffffffffffffffffffffffffffffffffff1673ffffffffffffffffffffffffffffffffffffffff16815260200190815260200160002060009054906101000a900473ffffffffffffffffffffffffffffffffffffffff166110be565b603160003373ffffffffffffffffffffffffffffffffffffffff1673ffffffffffffffffffffffffffffffffffffffff16815260200190815260200160002060009054906101000a900473ffffffffffffffffffffffffffffffffffffffff16600260009054906101000a900473ffffffffffffffffffffffffffffffffffffffff165b915091506000600360009054906101000a900473ffffffffffffffffffffffffffffffffffffffff1673ffffffffffffffffffffffffffffffffffffffff1663e6a4390584846040518363ffffffff1660e01b8152600401611121929190615018565b60206040518083038186803b15801561113957600080fd5b505afa15801561114d573d6000803e3d6000fd5b505050506040513d601f19601f8201168201806040525061117191908101906147cd565b905060008190506000808273ffffffffffffffffffffffffffffffffffffffff16630902f1ac6040518163ffffffff1660e01b815260040160606040518083038186803b1580156111c157600080fd5b505afa1580156111d5573d6000803e3d6000fd5b505050506040513d601f19601f820116820180604052506111f9919081019061496d565b50915091506000603160003373ffffffffffffffffffffffffffffffffffffffff1673ffffffffffffffffffffffffffffffffffffffff16815260200190815260200160002060009054906101000a900473ffffffffffffffffffffffffffffffffffffffff1673ffffffffffffffffffffffffffffffffffffffff166370a08231336040518263ffffffff1660e01b81526004016112989190614f30565b60206040518083038186803b1580156112b057600080fd5b505afa1580156112c4573d6000803e3d6000fd5b505050506040513d601f19601f820116820180604052506112e891908101906149bc565b90506000600260009054906101000a900473ffffffffffffffffffffffffffffffffffffffff1673ffffffffffffffffffffffffffffffffffffffff166370a08231336040518263ffffffff1660e01b81526004016113479190614f30565b60206040518083038186803b15801561135f57600080fd5b505afa158015611373573d6000803e3d6000fd5b505050506040513d601f19601f8201168201806040525061139791908101906149bc565b9050603260003373ffffffffffffffffffffffffffffffffffffffff1673ffffffffffffffffffffffffffffffffffffffff16815260200190815260200160002060009054906101000a900473ffffffffffffffffffffffffffffffffffffffff1673ffffffffffffffffffffffffffffffffffffffff16637c587b226040518163ffffffff1660e01b8152600401600060405180830381600087803b15801561144057600080fd5b505af1158015611454573d6000803e3d6000fd5b505050506000808673ffffffffffffffffffffffffffffffffffffffff16630902f1ac6040518163ffffffff1660e01b815260040160606040518083038186803b1580156114a157600080fd5b505afa1580156114b5573d6000803e3d6000fd5b505050506040513d601f19601f820116820180604052506114d9919081019061496d565b5091509150816dffffffffffffffffffffffffffff16866dffffffffffffffffffffffffffff1610801561152c5750806dffffffffffffffffffffffffffff16856dffffffffffffffffffffffffffff16105b61156b576040517f08c379a000000000000000000000000000000000000000000000000000000000815260040161156290615217565b60405180910390fd5b6000603160003373ffffffffffffffffffffffffffffffffffffffff1673ffffffffffffffffffffffffffffffffffffffff16815260200190815260200160002060009054906101000a900473ffffffffffffffffffffffffffffffffffffffff1673ffffffffffffffffffffffffffffffffffffffff166370a08231336040518263ffffffff1660e01b81526004016116059190614f30565b60206040518083038186803b15801561161d57600080fd5b505afa158015611631573d6000803e3d6000fd5b505050506040513d601f19601f8201168201806040525061165591908101906149bc565b90508085141561169a576040517f08c379a000000000000000000000000000000000000000000000000000000000815260040161169190615177565b60405180910390fd5b6000600260009054906101000a900473ffffffffffffffffffffffffffffffffffffffff1673ffffffffffffffffffffffffffffffffffffffff166370a08231336040518263ffffffff1660e01b81526004016116f79190614f30565b60206040518083038186803b15801561170f57600080fd5b505afa158015611723573d6000803e3d6000fd5b505050506040513d601f19601f8201168201806040525061174791908101906149bc565b90508085141561178c576040517f08c379a000000000000000000000000000000000000000000000000000000000815260040161178390615177565b60405180910390fd5b603060003373ffffffffffffffffffffffffffffffffffffffff1673ffffffffffffffffffffffffffffffffffffffff16815260200190815260200160002060006009815260200190815260200160002060009054906101000a900460ff166118ea576001603060003373ffffffffffffffffffffffffffffffffffffffff1673ffffffffffffffffffffffffffffffffffffffff16815260200190815260200160002060006009815260200190815260200160002060006101000a81548160ff021916908315150217905550600160009054906101000a900473ffffffffffffffffffffffffffffffffffffffff1673ffffffffffffffffffffffffffffffffffffffff1663158a49883360026040518363ffffffff1660e01b81526004016118b7929190614fc6565b600060405180830381600087803b1580156118d157600080fd5b505af11580156118e5573d6000803e3d6000fd5b505050505b505050505050505050505050565b600260009054906101000a900473ffffffffffffffffffffffffffffffffffffffff1681565b603360008273ffffffffffffffffffffffffffffffffffffffff1673ffffffffffffffffffffffffffffffffffffffff16815260200190815260200160002060009054906101000a900460ff161561197557600080fd5b80603160003373ffffffffffffffffffffffffffffffffffffffff1673ffffffffffffffffffffffffffffffffffffffff16815260200190815260200160002060006101000a81548173ffffffffffffffffffffffffffffffffffffffff021916908373ffffffffffffffffffffffffffffffffffffffff1602179055506001603360008373ffffffffffffffffffffffffffffffffffffffff1673ffffffffffffffffffffffffffffffffffffffff16815260200190815260200160002060006101000a81548160ff02191690831515021790555050565b602f6020528060005260406000206000915090505481565b606060008090505b60208160ff16108015611ab95750600060f81b838260ff1660208110611a9057fe5b1a60f81b7effffffffffffffffffffffffffffffffffffffffffffffffffffffffffffff191614155b15611acb578080600101915050611a6e565b60608160ff166040519080825280601f01601f191660200182016040528015611b035781602001600182028038833980820191505090505b509050600091505b60208260ff16108015611b565750600060f81b848360ff1660208110611b2d57fe5b1a60f81b7effffffffffffffffffffffffffffffffffffffffffffffffffffffffffffff191614155b15611bb957838260ff1660208110611b6a57fe5b1a60f81b818360ff1681518110611b7d57fe5b60200101907effffffffffffffffffffffffffffffffffffffffffffffffffffffffffffff1916908160001a9053508180600101925050611b0b565b8092505050919050565b670de0b6b3a76400006005602d5460148110611bdb57fe5b015402602f60003373ffffffffffffffffffffffffffffffffffffffff1673ffffffffffffffffffffffffffffffffffffffff168152602001908152602001600020819055506019602d5460148110611c3057fe5b01602e60003373ffffffffffffffffffffffffffffffffffffffff1673ffffffffffffffffffffffffffffffffffffffff1681526020019081526020016000209080546001816001161561010002031660029004611c8f92919061431e565b506001602d600082825401925050819055506014602d5410611cb4576000602d819055505b603060003373ffffffffffffffffffffffffffffffffffffffff1673ffffffffffffffffffffffffffffffffffffffff16815260200190815260200160002060006005815260200190815260200160002060009054906101000a900460ff16611e12576001603060003373ffffffffffffffffffffffffffffffffffffffff1673ffffffffffffffffffffffffffffffffffffffff16815260200190815260200160002060006005815260200190815260200160002060006101000a81548160ff021916908315150217905550600160009054906101000a900473ffffffffffffffffffffffffffffffffffffffff1673ffffffffffffffffffffffffffffffffffffffff1663158a49883360026040518363ffffffff1660e01b8152600401611ddf929190614fc6565b600060405180830381600087803b158015611df957600080fd5b505af1158015611e0d573d6000803e3d6000fd5b505050505b565b6000602f60008373ffffffffffffffffffffffffffffffffffffffff1673ffffffffffffffffffffffffffffffffffffffff168152602001908152602001600020549050919050565b600460009054906101000a900473ffffffffffffffffffffffffffffffffffffffff1681565b600080600460009054906101000a900473ffffffffffffffffffffffffffffffffffffffff1673ffffffffffffffffffffffffffffffffffffffff16600260009054906101000a900473ffffffffffffffffffffffffffffffffffffffff1673ffffffffffffffffffffffffffffffffffffffff1610611f4857600460009054906101000a900473ffffffffffffffffffffffffffffffffffffffff16600260009054906101000a900473ffffffffffffffffffffffffffffffffffffffff16611f8f565b600260009054906101000a900473ffffffffffffffffffffffffffffffffffffffff16600460009054906101000a900473ffffffffffffffffffffffffffffffffffffffff165b915091506000600360009054906101000a900473ffffffffffffffffffffffffffffffffffffffff1673ffffffffffffffffffffffffffffffffffffffff1663e6a4390584846040518363ffffffff1660e01b8152600401611ff2929190615018565b60206040518083038186803b15801561200a57600080fd5b505afa15801561201e573d6000803e3d6000fd5b505050506040513d601f19601f8201168201806040525061204291908101906147cd565b9050600081905060008173ffffffffffffffffffffffffffffffffffffffff166370a08231336040518263ffffffff1660e01b81526004016120849190614f30565b60206040518083038186803b15801561209c57600080fd5b505afa1580156120b0573d6000803e3d6000fd5b505050506040513d601f19601f820116820180604052506120d491908101906149bc565b11612114576040517f08c379a000000000000000000000000000000000000000000000000000000000815260040161210b906151d7565b60405180910390fd5b603060003373ffffffffffffffffffffffffffffffffffffffff1673ffffffffffffffffffffffffffffffffffffffff16815260200190815260200160002060006002815260200190815260200160002060009054906101000a900460ff16612272576001603060003373ffffffffffffffffffffffffffffffffffffffff1673ffffffffffffffffffffffffffffffffffffffff16815260200190815260200160002060006002815260200190815260200160002060006101000a81548160ff021916908315150217905550600160009054906101000a900473ffffffffffffffffffffffffffffffffffffffff1673ffffffffffffffffffffffffffffffffffffffff1663158a49883360026040518363ffffffff1660e01b815260040161223f929190614fc6565b600060405180830381600087803b15801561225957600080fd5b505af115801561226d573d6000803e3d6000fd5b505050505b50505050565b600080600460009054906101000a900473ffffffffffffffffffffffffffffffffffffffff1673ffffffffffffffffffffffffffffffffffffffff16603160003373ffffffffffffffffffffffffffffffffffffffff1673ffffffffffffffffffffffffffffffffffffffff16815260200190815260200160002060009054906101000a900473ffffffffffffffffffffffffffffffffffffffff1673ffffffffffffffffffffffffffffffffffffffff16106123b757600460009054906101000a900473ffffffffffffffffffffffffffffffffffffffff16603160003373ffffffffffffffffffffffffffffffffffffffff1673ffffffffffffffffffffffffffffffffffffffff16815260200190815260200160002060009054906101000a900473ffffffffffffffffffffffffffffffffffffffff1661243b565b603160003373ffffffffffffffffffffffffffffffffffffffff1673ffffffffffffffffffffffffffffffffffffffff16815260200190815260200160002060009054906101000a900473ffffffffffffffffffffffffffffffffffffffff16600460009054906101000a900473ffffffffffffffffffffffffffffffffffffffff165b915091506000600360009054906101000a900473ffffffffffffffffffffffffffffffffffffffff1673ffffffffffffffffffffffffffffffffffffffff1663e6a4390584846040518363ffffffff1660e01b815260040161249e929190615018565b60206040518083038186803b1580156124b657600080fd5b505afa1580156124ca573d6000803e3d6000fd5b505050506040513d601f19601f820116820180604052506124ee91908101906147cd565b905060008190506000808273ffffffffffffffffffffffffffffffffffffffff16630902f1ac6040518163ffffffff1660e01b815260040160606040518083038186803b15801561253e57600080fd5b505afa158015612552573d6000803e3d6000fd5b505050506040513d601f19601f82011682018060405250612576919081019061496d565b5091509150603260003373ffffffffffffffffffffffffffffffffffffffff1673ffffffffffffffffffffffffffffffffffffffff16815260200190815260200160002060009054906101000a900473ffffffffffffffffffffffffffffffffffffffff1673ffffffffffffffffffffffffffffffffffffffff16637ea382c16040518163ffffffff1660e01b8152600401600060405180830381600087803b15801561262257600080fd5b505af1158015612636573d6000803e3d6000fd5b505050506000808473ffffffffffffffffffffffffffffffffffffffff16630902f1ac6040518163ffffffff1660e01b815260040160606040518083038186803b15801561268357600080fd5b505afa158015612697573d6000803e3d6000fd5b505050506040513d601f19601f820116820180604052506126bb919081019061496d565b5091509150816dffffffffffffffffffffffffffff16846dffffffffffffffffffffffffffff1611801561270e5750806dffffffffffffffffffffffffffff16836dffffffffffffffffffffffffffff16115b61274d576040517f08c379a000000000000000000000000000000000000000000000000000000000815260040161274490615217565b60405180910390fd5b603060003373ffffffffffffffffffffffffffffffffffffffff1673ffffffffffffffffffffffffffffffffffffffff1681526020019081526020016000206000600b815260200190815260200160002060009054906101000a900460ff166128ab576001603060003373ffffffffffffffffffffffffffffffffffffffff1673ffffffffffffffffffffffffffffffffffffffff1681526020019081526020016000206000600b815260200190815260200160002060006101000a81548160ff021916908315150217905550600160009054906101000a900473ffffffffffffffffffffffffffffffffffffffff1673ffffffffffffffffffffffffffffffffffffffff1663158a49883360026040518363ffffffff1660e01b8152600401612878929190614fc6565b600060405180830381600087803b15801561289257600080fd5b505af11580156128a6573d6000803e3d6000fd5b505050505b5050505050505050565b600080600460009054906101000a900473ffffffffffffffffffffffffffffffffffffffff1673ffffffffffffffffffffffffffffffffffffffff16603160003373ffffffffffffffffffffffffffffffffffffffff1673ffffffffffffffffffffffffffffffffffffffff16815260200190815260200160002060009054906101000a900473ffffffffffffffffffffffffffffffffffffffff1673ffffffffffffffffffffffffffffffffffffffff16106129f457600460009054906101000a900473ffffffffffffffffffffffffffffffffffffffff16603160003373ffffffffffffffffffffffffffffffffffffffff1673ffffffffffffffffffffffffffffffffffffffff16815260200190815260200160002060009054906101000a900473ffffffffffffffffffffffffffffffffffffffff16612a78565b603160003373ffffffffffffffffffffffffffffffffffffffff1673ffffffffffffffffffffffffffffffffffffffff16815260200190815260200160002060009054906101000a900473ffffffffffffffffffffffffffffffffffffffff16600460009054906101000a900473ffffffffffffffffffffffffffffffffffffffff165b915091506000600360009054906101000a900473ffffffffffffffffffffffffffffffffffffffff1673ffffffffffffffffffffffffffffffffffffffff1663e6a4390584846040518363ffffffff1660e01b8152600401612adb929190615018565b60206040518083038186803b158015612af357600080fd5b505afa158015612b07573d6000803e3d6000fd5b505050506040513d601f19601f82011682018060405250612b2b91908101906147cd565b905060008190506000808273ffffffffffffffffffffffffffffffffffffffff16630902f1ac6040518163ffffffff1660e01b815260040160606040518083038186803b158015612b7b57600080fd5b505afa158015612b8f573d6000803e3d6000fd5b505050506040513d601f19601f82011682018060405250612bb3919081019061496d565b50915091506000603160003373ffffffffffffffffffffffffffffffffffffffff1673ffffffffffffffffffffffffffffffffffffffff16815260200190815260200160002060009054906101000a900473ffffffffffffffffffffffffffffffffffffffff1673ffffffffffffffffffffffffffffffffffffffff166370a08231336040518263ffffffff1660e01b8152600401612c529190614f30565b60206040518083038186803b158015612c6a57600080fd5b505afa158015612c7e573d6000803e3d6000fd5b505050506040513d601f19601f82011682018060405250612ca291908101906149bc565b9050603260003373ffffffffffffffffffffffffffffffffffffffff1673ffffffffffffffffffffffffffffffffffffffff16815260200190815260200160002060009054906101000a900473ffffffffffffffffffffffffffffffffffffffff1673ffffffffffffffffffffffffffffffffffffffff1663c4a859936040518163ffffffff1660e01b8152600401600060405180830381600087803b158015612d4b57600080fd5b505af1158015612d5f573d6000803e3d6000fd5b505050506000808573ffffffffffffffffffffffffffffffffffffffff16630902f1ac6040518163ffffffff1660e01b815260040160606040518083038186803b158015612dac57600080fd5b505afa158015612dc0573d6000803e3d6000fd5b505050506040513d601f19601f82011682018060405250612de4919081019061496d565b5091509150816dffffffffffffffffffffffffffff16856dffffffffffffffffffffffffffff1614158015612e395750806dffffffffffffffffffffffffffff16846dffffffffffffffffffffffffffff1614155b612e78576040517f08c379a0000000000000000000000000000000000000000000000000000000008152600401612e6f90615217565b60405180910390fd5b6000603160003373ffffffffffffffffffffffffffffffffffffffff1673ffffffffffffffffffffffffffffffffffffffff16815260200190815260200160002060009054906101000a900473ffffffffffffffffffffffffffffffffffffffff1673ffffffffffffffffffffffffffffffffffffffff166370a08231336040518263ffffffff1660e01b8152600401612f129190614f30565b60206040518083038186803b158015612f2a57600080fd5b505afa158015612f3e573d6000803e3d6000fd5b505050506040513d601f19601f82011682018060405250612f6291908101906149bc565b905080841415612fa7576040517f08c379a0000000000000000000000000000000000000000000000000000000008152600401612f9e90615177565b60405180910390fd5b603060003373ffffffffffffffffffffffffffffffffffffffff1673ffffffffffffffffffffffffffffffffffffffff16815260200190815260200160002060006008815260200190815260200160002060009054906101000a900460ff16613105576001603060003373ffffffffffffffffffffffffffffffffffffffff1673ffffffffffffffffffffffffffffffffffffffff16815260200190815260200160002060006008815260200190815260200160002060006101000a81548160ff021916908315150217905550600160009054906101000a900473ffffffffffffffffffffffffffffffffffffffff1673ffffffffffffffffffffffffffffffffffffffff1663158a49883360016040518363ffffffff1660e01b81526004016130d2929190614f9d565b600060405180830381600087803b1580156130ec57600080fd5b505af1158015613100573d6000803e3d6000fd5b505050505b50505050505050505050565b603060003373ffffffffffffffffffffffffffffffffffffffff1673ffffffffffffffffffffffffffffffffffffffff16815260200190815260200160002060006005815260200190815260200160002060009054906101000a900460ff1661317957600080fd5b61333b602e60003373ffffffffffffffffffffffffffffffffffffffff1673ffffffffffffffffffffffffffffffffffffffff1681526020019081526020016000208054600181600116156101000203166002900480601f01602080910402602001604051908101604052809291908181526020018280546001816001161561010002031660029004801561324f5780601f106132245761010080835404028352916020019161324f565b820191906000526020600020905b81548152906001019060200180831161323257829003601f168201915b5050505050603160003373ffffffffffffffffffffffffffffffffffffffff1673ffffffffffffffffffffffffffffffffffffffff16815260200190815260200160002060009054906101000a900473ffffffffffffffffffffffffffffffffffffffff1673ffffffffffffffffffffffffffffffffffffffff166395d89b416040518163ffffffff1660e01b815260040160006040518083038186803b1580156132f957600080fd5b505afa15801561330d573d6000803e3d6000fd5b505050506040513d6000823e3d601f19601f82011682018060405250613336919081019061492c565b6142c5565b61337a576040517f08c379a000000000000000000000000000000000000000000000000000000000815260040161337190615197565b60405180910390fd5b603160003373ffffffffffffffffffffffffffffffffffffffff1673ffffffffffffffffffffffffffffffffffffffff16815260200190815260200160002060009054906101000a900473ffffffffffffffffffffffffffffffffffffffff1673ffffffffffffffffffffffffffffffffffffffff166318160ddd6040518163ffffffff1660e01b815260040160206040518083038186803b15801561341f57600080fd5b505afa158015613433573d6000803e3d6000fd5b505050506040513d601f19601f8201168201806040525061345791908101906149bc565b602f60003373ffffffffffffffffffffffffffffffffffffffff1673ffffffffffffffffffffffffffffffffffffffff16815260200190815260200160002054146134d7576040517f08c379a00000000000000000000000000000000000000000000000000000000081526004016134ce90615237565b60405180910390fd5b6000603160003373ffffffffffffffffffffffffffffffffffffffff1673ffffffffffffffffffffffffffffffffffffffff16815260200190815260200160002060009054906101000a900473ffffffffffffffffffffffffffffffffffffffff1673ffffffffffffffffffffffffffffffffffffffff1663dd62ed3e30336040518363ffffffff1660e01b8152600401613573929190614f4b565b60206040518083038186803b15801561358b57600080fd5b505afa15801561359f573d6000803e3d6000fd5b505050506040513d601f19601f820116820180604052506135c391908101906149bc565b14613603576040517f08c379a00000000000000000000000000000000000000000000000000000000081526004016135fa90615257565b60405180910390fd5b6000603160003373ffffffffffffffffffffffffffffffffffffffff1673ffffffffffffffffffffffffffffffffffffffff16815260200190815260200160002060009054906101000a900473ffffffffffffffffffffffffffffffffffffffff1673ffffffffffffffffffffffffffffffffffffffff166370a08231306040518263ffffffff1660e01b815260040161369d9190614f30565b60206040518083038186803b1580156136b557600080fd5b505afa1580156136c9573d6000803e3d6000fd5b505050506040513d601f19601f820116820180604052506136ed91908101906149bc565b1461372d576040517f08c379a0000000000000000000000000000000000000000000000000000000008152600401613724906151f7565b60405180910390fd5b603160003373ffffffffffffffffffffffffffffffffffffffff1673ffffffffffffffffffffffffffffffffffffffff16815260200190815260200160002060009054906101000a900473ffffffffffffffffffffffffffffffffffffffff1673ffffffffffffffffffffffffffffffffffffffff1663095ea7b333600a6040518363ffffffff1660e01b81526004016137c8929190614f74565b602060405180830381600087803b1580156137e257600080fd5b505af11580156137f6573d6000803e3d6000fd5b505050506040513d601f19601f8201168201806040525061381a9190810190614888565b613859576040517f08c379a000000000000000000000000000000000000000000000000000000000815260040161385090615157565b60405180910390fd5b603060003373ffffffffffffffffffffffffffffffffffffffff1673ffffffffffffffffffffffffffffffffffffffff16815260200190815260200160002060006006815260200190815260200160002060009054906101000a900460ff166139b7576001603060003373ffffffffffffffffffffffffffffffffffffffff1673ffffffffffffffffffffffffffffffffffffffff16815260200190815260200160002060006006815260200190815260200160002060006101000a81548160ff021916908315150217905550600160009054906101000a900473ffffffffffffffffffffffffffffffffffffffff1673ffffffffffffffffffffffffffffffffffffffff1663158a49883360026040518363ffffffff1660e01b8152600401613984929190614fc6565b600060405180830381600087803b15801561399e57600080fd5b505af11580156139b2573d6000803e3d6000fd5b505050505b565b600160009054906101000a900473ffffffffffffffffffffffffffffffffffffffff1681565b600160009054906101000a900473ffffffffffffffffffffffffffffffffffffffff1673ffffffffffffffffffffffffffffffffffffffff1663f0a47f78336040518263ffffffff1660e01b8152600401613a3a9190614f30565b60206040518083038186803b158015613a5257600080fd5b505afa158015613a66573d6000803e3d6000fd5b505050506040513d601f19601f82011682018060405250613a8a9190810190614888565b613a9357600080fd5b816005906014613aa49291906143a5565b50806019906014613ab69291906143e5565b506000602d8190555060008090505b6014811015613b2f577fcc783cf5d663570e7c7576cec91f24975b35b957c8dd67766710be25c48cf60260198260148110613afc57fe5b0160058360148110613b0a57fe5b0154604051613b1a929190615127565b60405180910390a18080600101915050613ac5565b505050565b6060602e60008373ffffffffffffffffffffffffffffffffffffffff1673ffffffffffffffffffffffffffffffffffffffff1681526020019081526020016000208054600181600116156101000203166002900480601f016020809104026020016040519081016040528092919081815260200182805460018160011615610100020316600290048015613c095780601f10613bde57610100808354040283529160200191613c09565b820191906000526020600020905b815481529060010190602001808311613bec57829003601f168201915b50505050509050919050565b60316020528060005260406000206000915054906101000a900473ffffffffffffffffffffffffffffffffffffffff1681565b600080600460009054906101000a900473ffffffffffffffffffffffffffffffffffffffff1673ffffffffffffffffffffffffffffffffffffffff16603160003373ffffffffffffffffffffffffffffffffffffffff1673ffffffffffffffffffffffffffffffffffffffff16815260200190815260200160002060009054906101000a900473ffffffffffffffffffffffffffffffffffffffff1673ffffffffffffffffffffffffffffffffffffffff1610613d8757600460009054906101000a900473ffffffffffffffffffffffffffffffffffffffff16603160003373ffffffffffffffffffffffffffffffffffffffff1673ffffffffffffffffffffffffffffffffffffffff16815260200190815260200160002060009054906101000a900473ffffffffffffffffffffffffffffffffffffffff16613e0b565b603160003373ffffffffffffffffffffffffffffffffffffffff1673ffffffffffffffffffffffffffffffffffffffff16815260200190815260200160002060009054906101000a900473ffffffffffffffffffffffffffffffffffffffff16600460009054906101000a900473ffffffffffffffffffffffffffffffffffffffff165b915091506000600360009054906101000a900473ffffffffffffffffffffffffffffffffffffffff1673ffffffffffffffffffffffffffffffffffffffff1663e6a4390584846040518363ffffffff1660e01b8152600401613e6e929190615018565b60206040518083038186803b158015613e8657600080fd5b505afa158015613e9a573d6000803e3d6000fd5b505050506040513d601f19601f82011682018060405250613ebe91908101906147cd565b905060008190506000808273ffffffffffffffffffffffffffffffffffffffff16630902f1ac6040518163ffffffff1660e01b815260040160606040518083038186803b158015613f0e57600080fd5b505afa158015613f22573d6000803e3d6000fd5b505050506040513d601f19601f82011682018060405250613f46919081019061496d565b5091509150603260003373ffffffffffffffffffffffffffffffffffffffff1673ffffffffffffffffffffffffffffffffffffffff16815260200190815260200160002060009054906101000a900473ffffffffffffffffffffffffffffffffffffffff1673ffffffffffffffffffffffffffffffffffffffff1663e8078d946040518163ffffffff1660e01b8152600401600060405180830381600087803b158015613ff257600080fd5b505af1158015614006573d6000803e3d6000fd5b505050506000808473ffffffffffffffffffffffffffffffffffffffff16630902f1ac6040518163ffffffff1660e01b815260040160606040518083038186803b15801561405357600080fd5b505afa158015614067573d6000803e3d6000fd5b505050506040513d601f19601f8201168201806040525061408b919081019061496d565b5091509150816dffffffffffffffffffffffffffff16846dffffffffffffffffffffffffffff161080156140de5750806dffffffffffffffffffffffffffff16836dffffffffffffffffffffffffffff16105b61411d576040517f08c379a000000000000000000000000000000000000000000000000000000000815260040161411490615217565b60405180910390fd5b603060003373ffffffffffffffffffffffffffffffffffffffff1673ffffffffffffffffffffffffffffffffffffffff1681526020019081526020016000206000600a815260200190815260200160002060009054906101000a900460ff1661427b576001603060003373ffffffffffffffffffffffffffffffffffffffff1673ffffffffffffffffffffffffffffffffffffffff1681526020019081526020016000206000600a815260200190815260200160002060006101000a81548160ff021916908315150217905550600160009054906101000a900473ffffffffffffffffffffffffffffffffffffffff1673ffffffffffffffffffffffffffffffffffffffff1663158a49883360026040518363ffffffff1660e01b8152600401614248929190614fc6565b600060405180830381600087803b15801561426257600080fd5b505af1158015614276573d6000803e3d6000fd5b505050505b5050505050505050565b60006020528060005260406000206000915054906101000a900460ff1681565b60336020528060005260406000206000915054906101000a900460ff1681565b6000816040516020016142d89190614efe565b60405160208183030381529060405280519060200120836040516020016142ff9190614efe565b6040516020818303038152906040528051906020012014905092915050565b828054600181600116156101000203166002900490600052602060002090601f016020900481019282601f106143575780548555614394565b8280016001018555821561439457600052602060002091601f016020900482015b82811115614393578254825591600101919060010190614378565b5b5090506143a19190614438565b5090565b82601481019282156143d4579160200282015b828111156143d35782518255916020019190600101906143b8565b5b5090506143e19190614438565b5090565b8260148101928215614427579160200282015b8281111561442657825182908051906020019061441692919061445d565b50916020019190600101906143f8565b5b50905061443491906144dd565b5090565b61445a91905b8082111561445657600081600090555060010161443e565b5090565b90565b828054600181600116156101000203166002900490600052602060002090601f016020900481019282601f1061449e57805160ff19168380011785556144cc565b828001600101855582156144cc579182015b828111156144cb5782518255916020019190600101906144b0565b5b5090506144d99190614438565b5090565b61450691905b8082111561450257600081816144f99190614509565b506001016144e3565b5090565b90565b50805460018160011615610100020316600290046000825580601f1061452f575061454e565b601f01602090049060005260206000209081019061454d9190614438565b5b50565b600081359050614560816155c7565b92915050565b600081519050614575816155c7565b92915050565b600082601f83011261458c57600080fd5b601461459f61459a826152bf565b615292565b9150818360005b838110156145d657813586016145bc88826146a8565b8452602084019350602083019250506001810190506145a6565b5050505092915050565b600082601f8301126145f157600080fd5b60146146046145ff826152e1565b615292565b9150818385602084028201111561461a57600080fd5b60005b8381101561464a57816146308882614765565b84526020840193506020830192505060018101905061461d565b5050505092915050565b600081519050614663816155de565b92915050565b600081359050614678816155f5565b92915050565b60008135905061468d8161560c565b92915050565b6000813590506146a281615623565b92915050565b600082601f8301126146b957600080fd5b81356146cc6146c782615303565b615292565b915080825260208301602083018583830111156146e857600080fd5b6146f3838284615574565b50505092915050565b600082601f83011261470d57600080fd5b815161472061471b8261532f565b615292565b9150808252602083016020830185838301111561473c57600080fd5b614747838284615583565b50505092915050565b60008151905061475f8161563a565b92915050565b60008135905061477481615651565b92915050565b60008151905061478981615651565b92915050565b60008151905061479e81615668565b92915050565b6000602082840312156147b657600080fd5b60006147c484828501614551565b91505092915050565b6000602082840312156147df57600080fd5b60006147ed84828501614566565b91505092915050565b6000806040838503121561480957600080fd5b600061481785828601614551565b925050602061482885828601614765565b9150509250929050565b6000806102a0838503121561484657600080fd5b6000614854858286016145e0565b92505061028083013567ffffffffffffffff81111561487257600080fd5b61487e8582860161457b565b9150509250929050565b60006020828403121561489a57600080fd5b60006148a884828501614654565b91505092915050565b6000602082840312156148c357600080fd5b60006148d184828501614669565b91505092915050565b6000602082840312156148ec57600080fd5b60006148fa8482850161467e565b91505092915050565b60006020828403121561491557600080fd5b600061492384828501614693565b91505092915050565b60006020828403121561493e57600080fd5b600082015167ffffffffffffffff81111561495857600080fd5b614964848285016146fc565b91505092915050565b60008060006060848603121561498257600080fd5b600061499086828701614750565b93505060206149a186828701614750565b92505060406149b28682870161478f565b9150509250925092565b6000602082840312156149ce57600080fd5b60006149dc8482850161477a565b91505092915050565b6149ee81615442565b82525050565b6149fd816153a2565b82525050565b614a0c816153b4565b82525050565b614a1b81615454565b82525050565b614a2a81615478565b82525050565b614a398161549c565b82525050565b614a48816154c0565b82525050565b614a57816154e4565b82525050565b614a6681615508565b82525050565b614a758161551a565b82525050565b614a848161552c565b82525050565b614a938161553e565b82525050565b6000614aa48261537b565b614aae8185615386565b9350614abe818560208601615583565b614ac7816155b6565b840191505092915050565b6000614add8261537b565b614ae78185615397565b9350614af7818560208601615583565b80840191505092915050565b6000614b0e82615370565b614b188185615386565b9350614b28818560208601615583565b614b31816155b6565b840191505092915050565b600081546001811660008114614b595760018114614b7f57614bc3565b607f6002830416614b6a8187615386565b955060ff198316865260208601935050614bc3565b60028204614b8d8187615386565b9550614b988561535b565b60005b82811015614bba57815481890152600182019150602081019050614b9b565b80880195505050505b505092915050565b6000614bd8601783615386565b91507f417070726f7665206e6f7420696d706c656d656e7465640000000000000000006000830152602082019050919050565b6000614c18602783615386565b91507f596f75207374696c6c2068617665207468652073616d6520616d6f6e74206f6660008301527f20746f6b656e73000000000000000000000000000000000000000000000000006020830152604082019050919050565b6000614c7e601083615386565b91507f496e636f7272656374207469636b6572000000000000000000000000000000006000830152602082019050919050565b6000614cbe603083615386565b91507f596f7520646f206e6f7420686f6c642064756d6d79546f6b656e732e2042757960008301527f207468656d206f6e20556e6973776170000000000000000000000000000000006020830152604082019050919050565b6000614d24602e83615386565b91507f596f7520646f206e6f7420686f6c64206c697175696469747920696e2074686560008301527f20726571756972656420706f6f6c0000000000000000000000000000000000006020830152604082019050919050565b6000614d8a602c83615386565b91507f42616c616e63654f66206e6f7420696d706c656d656e746564206f7220696e6360008301527f6f72726563746c792073657400000000000000000000000000000000000000006020830152604082019050919050565b6000614df0602883615386565b91507f4e6f206c6971756964697479206368616e676520696e20796f757220746f6b6560008301527f6e277320706f6f6c0000000000000000000000000000000000000000000000006020830152604082019050919050565b6000614e56601083615386565b91507f496e636f727265637420737570706c79000000000000000000000000000000006000830152602082019050919050565b6000614e96602c83615386565b91507f416c6c6f77616e6365206e6f7420696d706c656d656e746564206f7220696e6360008301527f6f72726563746c792073657400000000000000000000000000000000000000006020830152604082019050919050565b614ef881615428565b82525050565b6000614f0a8284614ad2565b915081905092915050565b6000602082019050614f2a60008301846149f4565b92915050565b6000602082019050614f4560008301846149e5565b92915050565b6000604082019050614f6060008301856149e5565b614f6d60208301846149e5565b9392505050565b6000604082019050614f8960008301856149e5565b614f966020830184614a5d565b9392505050565b6000604082019050614fb260008301856149e5565b614fbf6020830184614a6c565b9392505050565b6000604082019050614fdb60008301856149e5565b614fe86020830184614a7b565b9392505050565b600060408201905061500460008301856149e5565b6150116020830184614a8a565b9392505050565b600060408201905061502d60008301856149f4565b61503a60208301846149f4565b9392505050565b60006020820190506150566000830184614a03565b92915050565b60006020820190506150716000830184614a12565b92915050565b600060208201905061508c6000830184614a21565b92915050565b60006020820190506150a76000830184614a30565b92915050565b60006020820190506150c26000830184614a3f565b92915050565b60006020820190506150dd6000830184614a4e565b92915050565b600060208201905081810360008301526150fd8184614b03565b905092915050565b6000602082019050818103600083015261511f8184614a99565b905092915050565b600060408201905081810360008301526151418185614b3c565b90506151506020830184614eef565b9392505050565b6000602082019050818103600083015261517081614bcb565b9050919050565b6000602082019050818103600083015261519081614c0b565b9050919050565b600060208201905081810360008301526151b081614c71565b9050919050565b600060208201905081810360008301526151d081614cb1565b9050919050565b600060208201905081810360008301526151f081614d17565b9050919050565b6000602082019050818103600083015261521081614d7d565b9050919050565b6000602082019050818103600083015261523081614de3565b9050919050565b6000602082019050818103600083015261525081614e49565b9050919050565b6000602082019050818103600083015261527081614e89565b9050919050565b600060208201905061528c6000830184614eef565b92915050565b6000604051905081810181811067ffffffffffffffff821117156152b557600080fd5b8060405250919050565b600067ffffffffffffffff8211156152d657600080fd5b602082029050919050565b600067ffffffffffffffff8211156152f857600080fd5b602082029050919050565b600067ffffffffffffffff82111561531a57600080fd5b601f19601f8301169050602081019050919050565b600067ffffffffffffffff82111561534657600080fd5b601f19601f8301169050602081019050919050565b60008190508160005260206000209050919050565b600081519050919050565b600081519050919050565b600082825260208201905092915050565b600081905092915050565b60006153ad82615408565b9050919050565b60008115159050919050565b6000819050919050565b60006153d5826153a2565b9050919050565b60006153e7826153a2565b9050919050565b60006dffffffffffffffffffffffffffff82169050919050565b600073ffffffffffffffffffffffffffffffffffffffff82169050919050565b6000819050919050565b600063ffffffff82169050919050565b600061544d82615550565b9050919050565b600061545f82615466565b9050919050565b600061547182615408565b9050919050565b60006154838261548a565b9050919050565b600061549582615408565b9050919050565b60006154a7826154ae565b9050919050565b60006154b982615408565b9050919050565b60006154cb826154d2565b9050919050565b60006154dd82615408565b9050919050565b60006154ef826154f6565b9050919050565b600061550182615408565b9050919050565b600061551382615428565b9050919050565b600061552582615428565b9050919050565b600061553782615428565b9050919050565b600061554982615428565b9050919050565b600061555b82615562565b9050919050565b600061556d82615408565b9050919050565b82818337600083830152505050565b60005b838110156155a1578082015181840152602081019050615586565b838111156155b0576000848401525b50505050565b6000601f19601f8301169050919050565b6155d0816153a2565b81146155db57600080fd5b50565b6155e7816153b4565b81146155f257600080fd5b50565b6155fe816153c0565b811461560957600080fd5b50565b615615816153ca565b811461562057600080fd5b50565b61562c816153dc565b811461563757600080fd5b50565b615643816153ee565b811461564e57600080fd5b50565b61565a81615428565b811461566557600080fd5b50565b61567181615432565b811461567c57600080fd5b5056fea26469706673582212200738e86e2349f30e10c1d0ab42f98f95fac7335524f75cfa7b553ff90f8166a064736f6c63430006020033",
  "source": "pragma solidity ^0.6.0;\npragma experimental ABIEncoderV2;\n\nimport \"./ERC20TD.sol\";\nimport \"./IExerciceSolution.sol\";\nimport \"./IRichERC20.sol\";\nimport \"./utils/IUniswapV2Factory.sol\";\nimport \"./utils/IUniswapV2Pair.sol\";\n\ncontract Evaluator \n{\n\n\tmapping(address => bool) public teachers;\n\tERC20TD public TDAMM;\n\n\tERC20 public dummyToken;\n\tIUniswapV2Factory public uniswapV2Factory;\n\taddress public WETH;\n\n\tuint256[20] private randomSupplies;\n\tstring[20] private randomTickers;\n \tuint public nextValueStoreRank;\n\n \tmapping(address => string) public assignedTicker;\n \tmapping(address => uint256) public assignedSupply;\n \tmapping(address => mapping(uint256 => bool)) public exerciceProgression;\n \tmapping(address => IRichERC20) public studentErc20;\n \tmapping(address => IExerciceSolution) public studentExercice;\n \tmapping(address => bool) public hasBeenPaired;\n\n \tevent newRandomTickerAndSupply(string ticker, uint256 supply);\n \tevent constructedCorrectly(address erc20Address, address dummyTokenAddress, address uniFactoryAddress, address wethAddress);\n\tconstructor(ERC20TD _TDAMM, ERC20 _dummyToken, IUniswapV2Factory _uniswapV2Factory, address _WETH) \n\tpublic \n\t{\n\t\tTDAMM = _TDAMM;\n\t\tdummyToken = _dummyToken;\n\t\tuniswapV2Factory = _uniswapV2Factory;\n\t\tWETH = _WETH;\n\t\temit constructedCorrectly(address(TDAMM), address(_dummyToken), address(_uniswapV2Factory), _WETH);\n\n\t}\n\n\tfallback () external payable \n\t{}\n\n\treceive () external payable \n\t{}\n\n\tfunction ex1_showIHaveTokens()\n\tpublic\n\t{\n\t\trequire(dummyToken.balanceOf(msg.sender) > 0, \"You do not hold dummyTokens. Buy them on Uniswap\");\n\n\t\tif (!exerciceProgression[msg.sender][1])\n\t\t{\n\t\t\texerciceProgression[msg.sender][1] = true;\n\t\t\tTDAMM.distributeTokens(msg.sender, 2);\n\t\t}\n\n\t}\n\n\tfunction ex2_showIProvidedLiquidity()\n\tpublic\n\t{\n\t\t// Getting address from factory for pair dummyToken / WETH\n\t\t(address token0, address token1) = address(dummyToken) < WETH ? (address(dummyToken), WETH) : (WETH, address(dummyToken));\n\t\taddress dummyTokenAndWethPair = uniswapV2Factory.getPair(token0, token1);\n\n\t\t// Checking if caller holds LP token\n\t\tERC20 dummyTokenAndWethPairAsERC20 = ERC20(dummyTokenAndWethPair);\n\t\trequire(dummyTokenAndWethPairAsERC20.balanceOf(msg.sender) > 0, \"You do not hold liquidity in the required pool\");\n\t\tif (!exerciceProgression[msg.sender][2])\n\t\t{\n\t\t\texerciceProgression[msg.sender][2] = true;\n\t\t\tTDAMM.distributeTokens(msg.sender, 2);\n\t\t}\n\t}\n\n\tfunction ex6a_getTickerAndSupply()\n\tpublic\n\t{\n\t\tassignedSupply[msg.sender] = randomSupplies[nextValueStoreRank]*1000000000000000000;\n\t\t// assignedTicker[msg.sender] = bytes32ToString(randomTickers[nextValueStoreRank]);\n\t\tassignedTicker[msg.sender] = randomTickers[nextValueStoreRank];\n\n\t\tnextValueStoreRank += 1;\n\t\tif (nextValueStoreRank >= 20)\n\t\t{\n\t\t\tnextValueStoreRank = 0;\n\t\t}\n\n\t\t// Crediting points\n\t\tif (!exerciceProgression[msg.sender][5])\n\t\t{\n\t\t\texerciceProgression[msg.sender][5] = true;\n\t\t\tTDAMM.distributeTokens(msg.sender, 2);\n\t\t}\n\t}\n\n\tfunction ex6b_testErc20TickerAndSupply()\n\tpublic\n\t{\n\t\t// Checking ticker and supply were received\n\t\trequire(exerciceProgression[msg.sender][5]);\n\n\t\t// Checking ticker was set properly\n\t\trequire(_compareStrings(assignedTicker[msg.sender], studentErc20[msg.sender].symbol()), \"Incorrect ticker\");\n\t\t// Checking supply was set properly\n\t\trequire(assignedSupply[msg.sender] == studentErc20[msg.sender].totalSupply(), \"Incorrect supply\");\n\t\t// Checking some ERC20 functions were created\n\t\trequire(studentErc20[msg.sender].allowance(address(this), msg.sender) == 0, \"Allowance not implemented or incorrectly set\");\n\t\trequire(studentErc20[msg.sender].balanceOf(address(this)) == 0, \"BalanceOf not implemented or incorrectly set\");\n\t\trequire(studentErc20[msg.sender].approve(msg.sender, 10), \"Approve not implemented\");\n\n\t\t// Crediting points\n\t\tif (!exerciceProgression[msg.sender][6])\n\t\t{\n\t\t\texerciceProgression[msg.sender][6] = true;\n\t\t\t// Creating ERC20\n\t\t\tTDAMM.distributeTokens(msg.sender, 2);\n\t\t}\n\n\t}\n\n\tfunction ex7_tokenIsTradableOnUniswap()\n\tpublic\n\t{\n\t\t// Retrieving address of pair from library\n\t\t(address token0, address token1) = address(studentErc20[msg.sender]) < WETH ? (address(studentErc20[msg.sender]), WETH) : (WETH, address(studentErc20[msg.sender]));\n\t\taddress studentTokenAndWethPair = uniswapV2Factory.getPair(token0, token1);\n\n\t\trequire(studentTokenAndWethPair != address(0));\n\n\t\t// Crediting points\n\t\tif (!exerciceProgression[msg.sender][7])\n\t\t{\n\t\t\texerciceProgression[msg.sender][7] = true;\n\t\t\t// Creating ERC20\n\t\t\tTDAMM.distributeTokens(msg.sender, 5);\n\t\t}\n\n\t}\n\n\tfunction ex8_contractCanSwapVsEth()\n\tpublic\n\t{\n\t\t// Retrieving address of pair from library\n\t\t(address token0, address token1) = address(studentErc20[msg.sender]) < WETH ? (address(studentErc20[msg.sender]), WETH) : (WETH, address(studentErc20[msg.sender]));\n\t\taddress studentTokenAndWethPair = uniswapV2Factory.getPair(token0, token1);\n\n\t\t// Checking pair balance before calling exercice contract\n\t\tIUniswapV2Pair studentTokenAndWethPairInstance = IUniswapV2Pair(studentTokenAndWethPair);\n\t\t(uint112 reserve0, uint112 reserve1, ) = studentTokenAndWethPairInstance.getReserves();\n\n\t\t// Checking caller balance before executing contract\n\t\tuint initBalance = studentErc20[msg.sender].balanceOf(msg.sender);\n\n\t\t// Calling student contract to tell him to provide liquidity\n\t\tstudentExercice[msg.sender].swapYourTokenForEth();\n\n\t\t// Checking pair balance after calling exercice contract\n\t\t(uint112 reserve3, uint112 reserve4,) = studentTokenAndWethPairInstance.getReserves();\n\t\trequire((reserve0 != reserve3) && (reserve1 != reserve4), \"No liquidity change in your token's pool\");\n\n\t\t// Checking your token balance after calling the exercice\n\t\tuint endBalance = studentErc20[msg.sender].balanceOf(msg.sender);\n\t\trequire(initBalance != endBalance, \"You still have the same amont of tokens\");\n\n\t\t// Crediting points\n\t\tif (!exerciceProgression[msg.sender][8])\n\t\t{\n\t\t\texerciceProgression[msg.sender][8] = true;\n\t\t\t// Creating ERC20\n\t\t\tTDAMM.distributeTokens(msg.sender, 1);\n\t\t}\n\n\t}\n\n\tfunction ex9_contractCanSwapVsDummyToken()\n\tpublic\n\t{\n\t\t// Retrieving address of pair from library\n\t\t(address token0, address token1) = address(studentErc20[msg.sender]) < address(dummyToken) ? (address(studentErc20[msg.sender]), address(dummyToken)) : (address(dummyToken), address(studentErc20[msg.sender]));\n\t\taddress studentTokenAndWethPair = uniswapV2Factory.getPair(token0, token1);\n\n\t\t// Checking pair balance before calling exercice contract\n\t\tIUniswapV2Pair studentTokenAndWethPairInstance = IUniswapV2Pair(studentTokenAndWethPair);\n\t\t(uint112 reserve0, uint112 reserve1, ) = studentTokenAndWethPairInstance.getReserves();\n\t\t\n\t\t// Checking caller balance before executing contract\n\t\tuint initTokenBalance = studentErc20[msg.sender].balanceOf(msg.sender);\n\t\tuint initDummyBalance = dummyToken.balanceOf(msg.sender);\n\n\t\t// Calling student contract to tell him to provide liquidity\n\t\tstudentExercice[msg.sender].swapYourTokenForDummyToken();\n\n\t\t// Checking pair balance after calling exercice contract\n\t\t(uint112 reserve3, uint112 reserve4,) = studentTokenAndWethPairInstance.getReserves();\n\t\trequire((reserve0 < reserve3) && (reserve1 < reserve4), \"No liquidity change in your token's pool\");\n\n\t\t// Checking your token balance after calling the exercice\n\t\tuint endTokenBalance = studentErc20[msg.sender].balanceOf(msg.sender);\n\t\trequire(initTokenBalance != endTokenBalance, \"You still have the same amont of tokens\");\n\t\tuint endDummyBalance = dummyToken.balanceOf(msg.sender);\n\t\trequire(initDummyBalance != endDummyBalance, \"You still have the same amont of tokens\");\n\n\t\t// Crediting points\n\t\tif (!exerciceProgression[msg.sender][9])\n\t\t{\n\t\t\texerciceProgression[msg.sender][9] = true;\n\t\t\t// Creating ERC20\n\t\t\tTDAMM.distributeTokens(msg.sender, 2);\n\t\t}\n\n\t}\n\tfunction ex10_contractCanProvideLiquidity()\n\tpublic\n\t{\n\t\t// Retrieving address of pair from library\n\t\t(address token0, address token1) = address(studentErc20[msg.sender]) < WETH ? (address(studentErc20[msg.sender]), WETH) : (WETH, address(studentErc20[msg.sender]));\n\t\taddress studentTokenAndWethPair = uniswapV2Factory.getPair(token0, token1);\n\n\t\t// Checking pair balance before calling exercice contract\n\t\tIUniswapV2Pair studentTokenAndWethPairInstance = IUniswapV2Pair(studentTokenAndWethPair);\n\t\t(uint112 reserve0, uint112 reserve1, ) = studentTokenAndWethPairInstance.getReserves();\n\n\t\t// Calling student contract to tell him to provide liquidity\n\t\tstudentExercice[msg.sender].addLiquidity();\n\n\t\t// Checking pair balance after calling exercice contract\n\t\t(uint112 reserve3, uint112 reserve4,) = studentTokenAndWethPairInstance.getReserves();\n\n\t\trequire((reserve0 < reserve3) && (reserve1 < reserve4), \"No liquidity change in your token's pool\");\n\n\t\t// Crediting points\n\t\tif (!exerciceProgression[msg.sender][10])\n\t\t{\n\t\t\texerciceProgression[msg.sender][10] = true;\n\t\t\t// Creating ERC20\n\t\t\tTDAMM.distributeTokens(msg.sender, 2);\n\t\t}\n\n\t}\n\n\tfunction ex11_contractCanWithdrawLiquidity()\n\tpublic\n\t{\n\t\t// Retrieving address of pair from library\n\t\t(address token0, address token1) = address(studentErc20[msg.sender]) < WETH ? (address(studentErc20[msg.sender]), WETH) : (WETH, address(studentErc20[msg.sender]));\n\t\taddress studentTokenAndWethPair = uniswapV2Factory.getPair(token0, token1);\n\n\t\t// Checking pair balance before calling exercice contract\n\t\tIUniswapV2Pair studentTokenAndWethPairInstance = IUniswapV2Pair(studentTokenAndWethPair);\n\t\t(uint112 reserve0, uint112 reserve1, ) = studentTokenAndWethPairInstance.getReserves();\n\n\t\t// Calling student contract to tell him to provide liquidity\n\t\tstudentExercice[msg.sender].withdrawLiquidity();\n\n\t\t// Checking pair balance after calling exercice contract\n\t\t(uint112 reserve3, uint112 reserve4,) = studentTokenAndWethPairInstance.getReserves();\n\n\t\trequire((reserve0 > reserve3) && (reserve1 > reserve4), \"No liquidity change in your token's pool\");\n\n\t\t// Crediting points\n\t\tif (!exerciceProgression[msg.sender][11])\n\t\t{\n\t\t\texerciceProgression[msg.sender][11] = true;\n\t\t\t// Creating ERC20\n\t\t\tTDAMM.distributeTokens(msg.sender, 2);\n\t\t}\n\n\t}\n\n\n\tmodifier onlyTeachers() \n\t{\n\n\t    require(TDAMM.teachers(msg.sender));\n\t    _;\n\t}\n\n\tfunction submitExercice(IExerciceSolution studentExercice_)\n\tpublic\n\t{\n\t\t// Checking this contract was not used by another group before\n\t\trequire(!hasBeenPaired[address(studentExercice_)]);\n\n\t\t// Assigning passed ERC20 as student ERC20\n\t\tstudentExercice[msg.sender] = studentExercice_;\n\t\thasBeenPaired[address(studentExercice_)] = true;\n\t\t\t\n\t}\n\n\tfunction submitErc20(IRichERC20 studentErc20_)\n\tpublic\n\t{\n\t\t// Checking this contract was not used by another group before\n\t\trequire(!hasBeenPaired[address(studentErc20_)]);\n\t\t// Assigning passed ERC20 as student ERC20\n\t\tstudentErc20[msg.sender] = studentErc20_;\n\t\thasBeenPaired[address(studentErc20_)] = true;\n\t\t\t\n\t}\n\n\tfunction _compareStrings(string memory a, string memory b) \n\tinternal \n\tpure \n\treturns (bool) \n\t{\n    \treturn (keccak256(abi.encodePacked((a))) == keccak256(abi.encodePacked((b))));\n\t}\n\n\tfunction bytes32ToString(bytes32 _bytes32) \n\tpublic \n\tpure returns (string memory) \n\t{\n        uint8 i = 0;\n        while(i < 32 && _bytes32[i] != 0) {\n            i++;\n        }\n        bytes memory bytesArray = new bytes(i);\n        for (i = 0; i < 32 && _bytes32[i] != 0; i++) {\n            bytesArray[i] = _bytes32[i];\n        }\n        return string(bytesArray);\n    }\n\n\tfunction readTicker(address studentAddres)\n\tpublic\n\tview\n\treturns(string memory)\n\t{\n\t\treturn assignedTicker[studentAddres];\n\t}\n\n\tfunction readSupply(address studentAddres)\n\tpublic\n\tview\n\treturns(uint256)\n\t{\n\t\treturn assignedSupply[studentAddres];\n\t}\n\n\tfunction setRandomTickersAndSupply(uint256[20] memory _randomSupplies, string[20] memory _randomTickers) \n\tpublic \n\tonlyTeachers\n\t{\n\t\trandomSupplies = _randomSupplies;\n\t\trandomTickers = _randomTickers;\n\t\tnextValueStoreRank = 0;\n\t\tfor (uint i = 0; i < 20; i++)\n\t\t{\n\t\t\temit newRandomTickerAndSupply(randomTickers[i], randomSupplies[i]);\n\t\t}\n\t}\n\n\n\n\n}\n",
  "sourcePath": "/Users/henrilieutaud/Documents/Mes documents/ESILV/03 Blockchain Programmation/amm-101/contracts/Evaluator.sol",
  "compiler": {
    "name": "solc",
    "version": "0.6.2+commit.bacdbe57.Emscripten.clang"
  },
  "schemaVersion": "3.3.4",
  "updatedAt": "2021-12-03T11:42:46.180Z",
  "networkType": "ethereum",
  "devdoc": {
    "methods": {}
  },
  "userdoc": {
    "methods": {}
  }
}