{
  "contractName": "Evaluator",
  "abi": [
    {
      "inputs": [
        {
          "internalType": "contract ERC20TD",
          "name": "_TDAMM",
          "type": "address"
        },
        {
          "internalType": "contract ERC20",
          "name": "_dummyToken",
          "type": "address"
        },
        {
          "internalType": "contract IUniswapV2Factory",
          "name": "_uniswapV2Factory",
          "type": "address"
        },
        {
          "internalType": "address",
          "name": "_WETH",
          "type": "address"
        }
      ],
      "stateMutability": "nonpayable",
      "type": "constructor"
    },
    {
      "anonymous": false,
      "inputs": [
        {
          "indexed": false,
          "internalType": "address",
          "name": "erc20Address",
          "type": "address"
        },
        {
          "indexed": false,
          "internalType": "address",
          "name": "dummyTokenAddress",
          "type": "address"
        },
        {
          "indexed": false,
          "internalType": "address",
          "name": "uniFactoryAddress",
          "type": "address"
        },
        {
          "indexed": false,
          "internalType": "address",
          "name": "wethAddress",
          "type": "address"
        }
      ],
      "name": "constructedCorrectly",
      "type": "event"
    },
    {
      "anonymous": false,
      "inputs": [
        {
          "indexed": false,
          "internalType": "string",
          "name": "ticker",
          "type": "string"
        },
        {
          "indexed": false,
          "internalType": "uint256",
          "name": "supply",
          "type": "uint256"
        }
      ],
      "name": "newRandomTickerAndSupply",
      "type": "event"
    },
    {
      "stateMutability": "payable",
      "type": "fallback",
      "payable": true
    },
    {
      "inputs": [],
      "name": "TDAMM",
      "outputs": [
        {
          "internalType": "contract ERC20TD",
          "name": "",
          "type": "address"
        }
      ],
      "stateMutability": "view",
      "type": "function",
      "constant": true
    },
    {
      "inputs": [],
      "name": "WETH",
      "outputs": [
        {
          "internalType": "address",
          "name": "",
          "type": "address"
        }
      ],
      "stateMutability": "view",
      "type": "function",
      "constant": true
    },
    {
      "inputs": [
        {
          "internalType": "address",
          "name": "",
          "type": "address"
        }
      ],
      "name": "assignedSupply",
      "outputs": [
        {
          "internalType": "uint256",
          "name": "",
          "type": "uint256"
        }
      ],
      "stateMutability": "view",
      "type": "function",
      "constant": true
    },
    {
      "inputs": [
        {
          "internalType": "address",
          "name": "",
          "type": "address"
        }
      ],
      "name": "assignedTicker",
      "outputs": [
        {
          "internalType": "string",
          "name": "",
          "type": "string"
        }
      ],
      "stateMutability": "view",
      "type": "function",
      "constant": true
    },
    {
      "inputs": [],
      "name": "dummyToken",
      "outputs": [
        {
          "internalType": "contract ERC20",
          "name": "",
          "type": "address"
        }
      ],
      "stateMutability": "view",
      "type": "function",
      "constant": true
    },
    {
      "inputs": [
        {
          "internalType": "address",
          "name": "",
          "type": "address"
        },
        {
          "internalType": "uint256",
          "name": "",
          "type": "uint256"
        }
      ],
      "name": "exerciceProgression",
      "outputs": [
        {
          "internalType": "bool",
          "name": "",
          "type": "bool"
        }
      ],
      "stateMutability": "view",
      "type": "function",
      "constant": true
    },
    {
      "inputs": [
        {
          "internalType": "address",
          "name": "",
          "type": "address"
        }
      ],
      "name": "hasBeenPaired",
      "outputs": [
        {
          "internalType": "bool",
          "name": "",
          "type": "bool"
        }
      ],
      "stateMutability": "view",
      "type": "function",
      "constant": true
    },
    {
      "inputs": [],
      "name": "nextValueStoreRank",
      "outputs": [
        {
          "internalType": "uint256",
          "name": "",
          "type": "uint256"
        }
      ],
      "stateMutability": "view",
      "type": "function",
      "constant": true
    },
    {
      "inputs": [
        {
          "internalType": "address",
          "name": "",
          "type": "address"
        }
      ],
      "name": "studentErc20",
      "outputs": [
        {
          "internalType": "contract IRichERC20",
          "name": "",
          "type": "address"
        }
      ],
      "stateMutability": "view",
      "type": "function",
      "constant": true
    },
    {
      "inputs": [
        {
          "internalType": "address",
          "name": "",
          "type": "address"
        }
      ],
      "name": "studentExercice",
      "outputs": [
        {
          "internalType": "contract IExerciceSolution",
          "name": "",
          "type": "address"
        }
      ],
      "stateMutability": "view",
      "type": "function",
      "constant": true
    },
    {
      "inputs": [
        {
          "internalType": "address",
          "name": "",
          "type": "address"
        }
      ],
      "name": "teachers",
      "outputs": [
        {
          "internalType": "bool",
          "name": "",
          "type": "bool"
        }
      ],
      "stateMutability": "view",
      "type": "function",
      "constant": true
    },
    {
      "inputs": [],
      "name": "uniswapV2Factory",
      "outputs": [
        {
          "internalType": "contract IUniswapV2Factory",
          "name": "",
          "type": "address"
        }
      ],
      "stateMutability": "view",
      "type": "function",
      "constant": true
    },
    {
      "stateMutability": "payable",
      "type": "receive",
      "payable": true
    },
    {
      "inputs": [],
      "name": "ex1_showIHaveTokens",
      "outputs": [],
      "stateMutability": "nonpayable",
      "type": "function"
    },
    {
      "inputs": [],
      "name": "ex2_showIProvidedLiquidity",
      "outputs": [],
      "stateMutability": "nonpayable",
      "type": "function"
    },
    {
      "inputs": [],
      "name": "ex6a_getTickerAndSupply",
      "outputs": [],
      "stateMutability": "nonpayable",
      "type": "function"
    },
    {
      "inputs": [],
      "name": "ex6b_testErc20TickerAndSupply",
      "outputs": [],
      "stateMutability": "nonpayable",
      "type": "function"
    },
    {
      "inputs": [],
      "name": "ex7_tokenIsTradableOnUniswap",
      "outputs": [],
      "stateMutability": "nonpayable",
      "type": "function"
    },
    {
      "inputs": [],
      "name": "ex8_contractCanSwapVsEth",
      "outputs": [],
      "stateMutability": "nonpayable",
      "type": "function"
    },
    {
      "inputs": [],
      "name": "ex9_contractCanSwapVsDummyToken",
      "outputs": [],
      "stateMutability": "nonpayable",
      "type": "function"
    },
    {
      "inputs": [],
      "name": "ex10_contractCanProvideLiquidity",
      "outputs": [],
      "stateMutability": "nonpayable",
      "type": "function"
    },
    {
      "inputs": [],
      "name": "ex11_contractCanWithdrawLiquidity",
      "outputs": [],
      "stateMutability": "nonpayable",
      "type": "function"
    },
    {
      "inputs": [
        {
          "internalType": "contract IExerciceSolution",
          "name": "studentExercice_",
          "type": "address"
        }
      ],
      "name": "submitExercice",
      "outputs": [],
      "stateMutability": "nonpayable",
      "type": "function"
    },
    {
      "inputs": [
        {
          "internalType": "contract IRichERC20",
          "name": "studentErc20_",
          "type": "address"
        }
      ],
      "name": "submitErc20",
      "outputs": [],
      "stateMutability": "nonpayable",
      "type": "function"
    },
    {
      "inputs": [
        {
          "internalType": "bytes32",
          "name": "_bytes32",
          "type": "bytes32"
        }
      ],
      "name": "bytes32ToString",
      "outputs": [
        {
          "internalType": "string",
          "name": "",
          "type": "string"
        }
      ],
      "stateMutability": "pure",
      "type": "function",
      "constant": true
    },
    {
      "inputs": [
        {
          "internalType": "address",
          "name": "studentAddres",
          "type": "address"
        }
      ],
      "name": "readTicker",
      "outputs": [
        {
          "internalType": "string",
          "name": "",
          "type": "string"
        }
      ],
      "stateMutability": "view",
      "type": "function",
      "constant": true
    },
    {
      "inputs": [
        {
          "internalType": "address",
          "name": "studentAddres",
          "type": "address"
        }
      ],
      "name": "readSupply",
      "outputs": [
        {
          "internalType": "uint256",
          "name": "",
          "type": "uint256"
        }
      ],
      "stateMutability": "view",
      "type": "function",
      "constant": true
    },
    {
      "inputs": [
        {
          "internalType": "uint256[20]",
          "name": "_randomSupplies",
          "type": "uint256[20]"
        },
        {
          "internalType": "string[20]",
          "name": "_randomTickers",
          "type": "string[20]"
        }
      ],
      "name": "setRandomTickersAndSupply",
      "outputs": [],
      "stateMutability": "nonpayable",
      "type": "function"
    }
  ],
  "bytecode": "0x60806040523480156200001157600080fd5b50604051620061a0380380620061a0833981810160405262000037919081019062000202565b83600160006101000a81548173ffffffffffffffffffffffffffffffffffffffff021916908373ffffffffffffffffffffffffffffffffffffffff16021790555082600260006101000a81548173ffffffffffffffffffffffffffffffffffffffff021916908373ffffffffffffffffffffffffffffffffffffffff16021790555081600360006101000a81548173ffffffffffffffffffffffffffffffffffffffff021916908373ffffffffffffffffffffffffffffffffffffffff16021790555080600460006101000a81548173ffffffffffffffffffffffffffffffffffffffff021916908373ffffffffffffffffffffffffffffffffffffffff1602179055507f82169bf8e2a940653a3005b8fbe3a01d8ab56fd5bbbcd0bf31ac67b29cee1f97600160009054906101000a900473ffffffffffffffffffffffffffffffffffffffff168484846040516200019494939291906200027f565b60405180910390a150505050620003a4565b600081519050620001b7816200033c565b92915050565b600081519050620001ce8162000356565b92915050565b600081519050620001e58162000370565b92915050565b600081519050620001fc816200038a565b92915050565b600080600080608085870312156200021957600080fd5b60006200022987828801620001bd565b94505060206200023c87828801620001d4565b93505060406200024f87828801620001eb565b92505060606200026287828801620001a6565b91505092959194509250565b6200027981620002cc565b82525050565b60006080820190506200029660008301876200026e565b620002a560208301866200026e565b620002b460408301856200026e565b620002c360608301846200026e565b95945050505050565b6000620002d9826200031c565b9050919050565b6000620002ed82620002cc565b9050919050565b60006200030182620002cc565b9050919050565b60006200031582620002cc565b9050919050565b600073ffffffffffffffffffffffffffffffffffffffff82169050919050565b6200034781620002cc565b81146200035357600080fd5b50565b6200036181620002e0565b81146200036d57600080fd5b50565b6200037b81620002f4565b81146200038757600080fd5b50565b620003958162000308565b8114620003a157600080fd5b50565b615dec80620003b46000396000f3fe60806040526004361061019f5760003560e01c80639b148f17116100ec578063cec7f2101161008a578063e22ebfd611610064578063e22ebfd61461055d578063e84092a91461059a578063f0a47f78146105b1578063f4fdbb88146105ee576101a6565b8063cec7f210146104cc578063d1a2e76e146104f7578063e22b5dcf14610520576101a6565b8063c7599393116100c6578063c759939314610470578063ca5cd0c214610487578063cc093e7a1461049e578063cd3560d7146104b5576101a6565b80639b148f17146103f15780639f91f51614610408578063ad5c464814610445576101a6565b806352954cf31161015957806367479ec51161013357806367479ec5146103235780637c83d61a1461034e5780637db60caf146103775780639201de55146103b4576101a6565b806352954cf3146102ca57806359d0f713146102e15780635d54c3701461030c576101a6565b8062a3491a146101a857806305b12022146101e55780630c58c95c146101fc5780632236d353146102395780632e64c5001461026257806339119dce1461029f576101a6565b366101a657005b005b3480156101b457600080fd5b506101cf60048036036101ca9190810190614d49565b61062b565b6040516101dc91906157ba565b60405180910390f35b3480156101f157600080fd5b506101fa6106db565b005b34801561020857600080fd5b50610223600480360361021e9190810190614d49565b610af0565b6040516102309190615769565b60405180910390f35b34801561024557600080fd5b50610260600480360361025b9190810190614e7f565b610b23565b005b34801561026e57600080fd5b5061028960048036036102849190810190614d9b565b610c53565b6040516102969190615718565b60405180910390f35b3480156102ab57600080fd5b506102b4610c82565b6040516102c191906159ae565b60405180910390f35b3480156102d657600080fd5b506102df610c88565b005b3480156102ed57600080fd5b506102f6610ed5565b604051610303919061579f565b60405180910390f35b34801561031857600080fd5b50610321610efb565b005b34801561032f57600080fd5b50610338611ddf565b604051610345919061574e565b60405180910390f35b34801561035a57600080fd5b5061037560048036036103709190810190614ea8565b611e05565b005b34801561038357600080fd5b5061039e60048036036103999190810190614d49565b611f35565b6040516103ab91906159ae565b60405180910390f35b3480156103c057600080fd5b506103db60048036036103d69190810190614e56565b611f4d565b6040516103e891906157dc565b60405180910390f35b3480156103fd57600080fd5b506104066120aa565b005b34801561041457600080fd5b5061042f600480360361042a9190810190614d49565b6122fb565b60405161043c91906159ae565b60405180910390f35b34801561045157600080fd5b5061045a612344565b60405161046791906155ec565b60405180910390f35b34801561047c57600080fd5b5061048561236a565b005b34801561049357600080fd5b5061049c61275f565b005b3480156104aa57600080fd5b506104b3612d9c565b005b3480156104c157600080fd5b506104ca6136b6565b005b3480156104d857600080fd5b506104e1613f5e565b6040516104ee9190615733565b60405180910390f35b34801561050357600080fd5b5061051e60048036036105199190810190614dd7565b613f84565b005b34801561052c57600080fd5b5061054760048036036105429190810190614d49565b6140d9565b60405161055491906157dc565b60405180910390f35b34801561056957600080fd5b50610584600480360361057f9190810190614d49565b6141ba565b6040516105919190615784565b60405180910390f35b3480156105a657600080fd5b506105af6141ed565b005b3480156105bd57600080fd5b506105d860048036036105d39190810190614d49565b61482a565b6040516105e59190615718565b60405180910390f35b3480156105fa57600080fd5b5061061560048036036106109190810190614d49565b61484a565b6040516106229190615718565b60405180910390f35b602e6020528060005260406000206000915090508054600181600116156101000203166002900480601f0160208091040260200160405190810160405280929190818152602001828054600181600116156101000203166002900480156106d35780601f106106a8576101008083540402835291602001916106d3565b820191906000526020600020905b8154815290600101906020018083116106b657829003601f168201915b505050505081565b600080600460009054906101000a900473ffffffffffffffffffffffffffffffffffffffff1673ffffffffffffffffffffffffffffffffffffffff16603160003373ffffffffffffffffffffffffffffffffffffffff1673ffffffffffffffffffffffffffffffffffffffff16815260200190815260200160002060009054906101000a900473ffffffffffffffffffffffffffffffffffffffff1673ffffffffffffffffffffffffffffffffffffffff161061081a57600460009054906101000a900473ffffffffffffffffffffffffffffffffffffffff16603160003373ffffffffffffffffffffffffffffffffffffffff1673ffffffffffffffffffffffffffffffffffffffff16815260200190815260200160002060009054906101000a900473ffffffffffffffffffffffffffffffffffffffff1661089e565b603160003373ffffffffffffffffffffffffffffffffffffffff1673ffffffffffffffffffffffffffffffffffffffff16815260200190815260200160002060009054906101000a900473ffffffffffffffffffffffffffffffffffffffff16600460009054906101000a900473ffffffffffffffffffffffffffffffffffffffff165b915091506000600360009054906101000a900473ffffffffffffffffffffffffffffffffffffffff1673ffffffffffffffffffffffffffffffffffffffff1663e6a4390584846040518363ffffffff1660e01b81526004016109019291906156ef565b60206040518083038186803b15801561091957600080fd5b505afa15801561092d573d6000803e3d6000fd5b505050506040513d601f19601f820116820180604052506109519190810190614d72565b9050600073ffffffffffffffffffffffffffffffffffffffff168173ffffffffffffffffffffffffffffffffffffffff16141561098d57600080fd5b603060003373ffffffffffffffffffffffffffffffffffffffff1673ffffffffffffffffffffffffffffffffffffffff16815260200190815260200160002060006007815260200190815260200160002060009054906101000a900460ff16610aeb576001603060003373ffffffffffffffffffffffffffffffffffffffff1673ffffffffffffffffffffffffffffffffffffffff16815260200190815260200160002060006007815260200190815260200160002060006101000a81548160ff021916908315150217905550600160009054906101000a900473ffffffffffffffffffffffffffffffffffffffff1673ffffffffffffffffffffffffffffffffffffffff1663158a49883360056040518363ffffffff1660e01b8152600401610ab89291906156c6565b600060405180830381600087803b158015610ad257600080fd5b505af1158015610ae6573d6000803e3d6000fd5b505050505b505050565b60326020528060005260406000206000915054906101000a900473ffffffffffffffffffffffffffffffffffffffff1681565b603360008273ffffffffffffffffffffffffffffffffffffffff1673ffffffffffffffffffffffffffffffffffffffff16815260200190815260200160002060009054906101000a900460ff1615610b7a57600080fd5b80603260003373ffffffffffffffffffffffffffffffffffffffff1673ffffffffffffffffffffffffffffffffffffffff16815260200190815260200160002060006101000a81548173ffffffffffffffffffffffffffffffffffffffff021916908373ffffffffffffffffffffffffffffffffffffffff1602179055506001603360008373ffffffffffffffffffffffffffffffffffffffff1673ffffffffffffffffffffffffffffffffffffffff16815260200190815260200160002060006101000a81548160ff02191690831515021790555050565b60306020528160005260406000206020528060005260406000206000915091509054906101000a900460ff1681565b602d5481565b6000600260009054906101000a900473ffffffffffffffffffffffffffffffffffffffff1673ffffffffffffffffffffffffffffffffffffffff166370a08231336040518263ffffffff1660e01b8152600401610ce59190615607565b60206040518083038186803b158015610cfd57600080fd5b505afa158015610d11573d6000803e3d6000fd5b505050506040513d601f19601f82011682018060405250610d359190810190614f61565b11610d75576040517f08c379a0000000000000000000000000000000000000000000000000000000008152600401610d6c9061588e565b60405180910390fd5b603060003373ffffffffffffffffffffffffffffffffffffffff1673ffffffffffffffffffffffffffffffffffffffff16815260200190815260200160002060006001815260200190815260200160002060009054906101000a900460ff16610ed3576001603060003373ffffffffffffffffffffffffffffffffffffffff1673ffffffffffffffffffffffffffffffffffffffff16815260200190815260200160002060006001815260200190815260200160002060006101000a81548160ff021916908315150217905550600160009054906101000a900473ffffffffffffffffffffffffffffffffffffffff1673ffffffffffffffffffffffffffffffffffffffff1663158a49883360026040518363ffffffff1660e01b8152600401610ea092919061569d565b600060405180830381600087803b158015610eba57600080fd5b505af1158015610ece573d6000803e3d6000fd5b505050505b565b600360009054906101000a900473ffffffffffffffffffffffffffffffffffffffff1681565b600080600460009054906101000a900473ffffffffffffffffffffffffffffffffffffffff1673ffffffffffffffffffffffffffffffffffffffff16603160003373ffffffffffffffffffffffffffffffffffffffff1673ffffffffffffffffffffffffffffffffffffffff16815260200190815260200160002060009054906101000a900473ffffffffffffffffffffffffffffffffffffffff1673ffffffffffffffffffffffffffffffffffffffff161061103a57600460009054906101000a900473ffffffffffffffffffffffffffffffffffffffff16603160003373ffffffffffffffffffffffffffffffffffffffff1673ffffffffffffffffffffffffffffffffffffffff16815260200190815260200160002060009054906101000a900473ffffffffffffffffffffffffffffffffffffffff166110be565b603160003373ffffffffffffffffffffffffffffffffffffffff1673ffffffffffffffffffffffffffffffffffffffff16815260200190815260200160002060009054906101000a900473ffffffffffffffffffffffffffffffffffffffff16600460009054906101000a900473ffffffffffffffffffffffffffffffffffffffff165b915091506000600360009054906101000a900473ffffffffffffffffffffffffffffffffffffffff1673ffffffffffffffffffffffffffffffffffffffff1663e6a4390584846040518363ffffffff1660e01b81526004016111219291906156ef565b60206040518083038186803b15801561113957600080fd5b505afa15801561114d573d6000803e3d6000fd5b505050506040513d601f19601f820116820180604052506111719190810190614d72565b9050600080600260009054906101000a900473ffffffffffffffffffffffffffffffffffffffff1673ffffffffffffffffffffffffffffffffffffffff16600460009054906101000a900473ffffffffffffffffffffffffffffffffffffffff1673ffffffffffffffffffffffffffffffffffffffff161061123857600260009054906101000a900473ffffffffffffffffffffffffffffffffffffffff16600460009054906101000a900473ffffffffffffffffffffffffffffffffffffffff1661127f565b600460009054906101000a900473ffffffffffffffffffffffffffffffffffffffff16600260009054906101000a900473ffffffffffffffffffffffffffffffffffffffff165b915091506000600360009054906101000a900473ffffffffffffffffffffffffffffffffffffffff1673ffffffffffffffffffffffffffffffffffffffff1663e6a4390584846040518363ffffffff1660e01b81526004016112e29291906156ef565b60206040518083038186803b1580156112fa57600080fd5b505afa15801561130e573d6000803e3d6000fd5b505050506040513d601f19601f820116820180604052506113329190810190614d72565b9050600084905060008290506000808373ffffffffffffffffffffffffffffffffffffffff16630902f1ac6040518163ffffffff1660e01b815260040160606040518083038186803b15801561138757600080fd5b505afa15801561139b573d6000803e3d6000fd5b505050506040513d601f19601f820116820180604052506113bf9190810190614f12565b50915091506000808473ffffffffffffffffffffffffffffffffffffffff16630902f1ac6040518163ffffffff1660e01b815260040160606040518083038186803b15801561140d57600080fd5b505afa158015611421573d6000803e3d6000fd5b505050506040513d601f19601f820116820180604052506114459190810190614f12565b50915091506000603160003373ffffffffffffffffffffffffffffffffffffffff1673ffffffffffffffffffffffffffffffffffffffff16815260200190815260200160002060009054906101000a900473ffffffffffffffffffffffffffffffffffffffff1673ffffffffffffffffffffffffffffffffffffffff166370a08231603260003373ffffffffffffffffffffffffffffffffffffffff1673ffffffffffffffffffffffffffffffffffffffff16815260200190815260200160002060009054906101000a900473ffffffffffffffffffffffffffffffffffffffff166040518263ffffffff1660e01b815260040161154391906155ec565b60206040518083038186803b15801561155b57600080fd5b505afa15801561156f573d6000803e3d6000fd5b505050506040513d601f19601f820116820180604052506115939190810190614f61565b90506000600260009054906101000a900473ffffffffffffffffffffffffffffffffffffffff1673ffffffffffffffffffffffffffffffffffffffff166370a08231603260003373ffffffffffffffffffffffffffffffffffffffff1673ffffffffffffffffffffffffffffffffffffffff16815260200190815260200160002060009054906101000a900473ffffffffffffffffffffffffffffffffffffffff166040518263ffffffff1660e01b815260040161165191906155ec565b60206040518083038186803b15801561166957600080fd5b505afa15801561167d573d6000803e3d6000fd5b505050506040513d601f19601f820116820180604052506116a19190810190614f61565b9050603260003373ffffffffffffffffffffffffffffffffffffffff1673ffffffffffffffffffffffffffffffffffffffff16815260200190815260200160002060009054906101000a900473ffffffffffffffffffffffffffffffffffffffff1673ffffffffffffffffffffffffffffffffffffffff16637c587b226040518163ffffffff1660e01b8152600401600060405180830381600087803b15801561174a57600080fd5b505af115801561175e573d6000803e3d6000fd5b505050506000808973ffffffffffffffffffffffffffffffffffffffff16630902f1ac6040518163ffffffff1660e01b815260040160606040518083038186803b1580156117ab57600080fd5b505afa1580156117bf573d6000803e3d6000fd5b505050506040513d601f19601f820116820180604052506117e39190810190614f12565b50915091506000808a73ffffffffffffffffffffffffffffffffffffffff16630902f1ac6040518163ffffffff1660e01b815260040160606040518083038186803b15801561183157600080fd5b505afa158015611845573d6000803e3d6000fd5b505050506040513d601f19601f820116820180604052506118699190810190614f12565b5091509150836dffffffffffffffffffffffffffff168a6dffffffffffffffffffffffffffff16141580156118be5750826dffffffffffffffffffffffffffff16896dffffffffffffffffffffffffffff1614155b6118fd576040517f08c379a00000000000000000000000000000000000000000000000000000000081526004016118f49061590e565b60405180910390fd5b816dffffffffffffffffffffffffffff16886dffffffffffffffffffffffffffff161415801561194d5750806dffffffffffffffffffffffffffff16876dffffffffffffffffffffffffffff1614155b61198c576040517f08c379a00000000000000000000000000000000000000000000000000000000081526004016119839061594e565b60405180910390fd5b6000603160003373ffffffffffffffffffffffffffffffffffffffff1673ffffffffffffffffffffffffffffffffffffffff16815260200190815260200160002060009054906101000a900473ffffffffffffffffffffffffffffffffffffffff1673ffffffffffffffffffffffffffffffffffffffff166370a08231603260003373ffffffffffffffffffffffffffffffffffffffff1673ffffffffffffffffffffffffffffffffffffffff16815260200190815260200160002060009054906101000a900473ffffffffffffffffffffffffffffffffffffffff166040518263ffffffff1660e01b8152600401611a8591906155ec565b60206040518083038186803b158015611a9d57600080fd5b505afa158015611ab1573d6000803e3d6000fd5b505050506040513d601f19601f82011682018060405250611ad59190810190614f61565b905080871415611b1a576040517f08c379a0000000000000000000000000000000000000000000000000000000008152600401611b119061598e565b60405180910390fd5b6000600260009054906101000a900473ffffffffffffffffffffffffffffffffffffffff1673ffffffffffffffffffffffffffffffffffffffff166370a08231603260003373ffffffffffffffffffffffffffffffffffffffff1673ffffffffffffffffffffffffffffffffffffffff16815260200190815260200160002060009054906101000a900473ffffffffffffffffffffffffffffffffffffffff166040518263ffffffff1660e01b8152600401611bd691906155ec565b60206040518083038186803b158015611bee57600080fd5b505afa158015611c02573d6000803e3d6000fd5b505050506040513d601f19601f82011682018060405250611c269190810190614f61565b905080871415611c6b576040517f08c379a0000000000000000000000000000000000000000000000000000000008152600401611c62906158ee565b60405180910390fd5b603060003373ffffffffffffffffffffffffffffffffffffffff1673ffffffffffffffffffffffffffffffffffffffff16815260200190815260200160002060006009815260200190815260200160002060009054906101000a900460ff16611dc9576001603060003373ffffffffffffffffffffffffffffffffffffffff1673ffffffffffffffffffffffffffffffffffffffff16815260200190815260200160002060006009815260200190815260200160002060006101000a81548160ff021916908315150217905550600160009054906101000a900473ffffffffffffffffffffffffffffffffffffffff1673ffffffffffffffffffffffffffffffffffffffff1663158a49883360026040518363ffffffff1660e01b8152600401611d9692919061569d565b600060405180830381600087803b158015611db057600080fd5b505af1158015611dc4573d6000803e3d6000fd5b505050505b5050505050505050505050505050505050505050565b600260009054906101000a900473ffffffffffffffffffffffffffffffffffffffff1681565b603360008273ffffffffffffffffffffffffffffffffffffffff1673ffffffffffffffffffffffffffffffffffffffff16815260200190815260200160002060009054906101000a900460ff1615611e5c57600080fd5b80603160003373ffffffffffffffffffffffffffffffffffffffff1673ffffffffffffffffffffffffffffffffffffffff16815260200190815260200160002060006101000a81548173ffffffffffffffffffffffffffffffffffffffff021916908373ffffffffffffffffffffffffffffffffffffffff1602179055506001603360008373ffffffffffffffffffffffffffffffffffffffff1673ffffffffffffffffffffffffffffffffffffffff16815260200190815260200160002060006101000a81548160ff02191690831515021790555050565b602f6020528060005260406000206000915090505481565b606060008090505b60208160ff16108015611fa05750600060f81b838260ff1660208110611f7757fe5b1a60f81b7effffffffffffffffffffffffffffffffffffffffffffffffffffffffffffff191614155b15611fb2578080600101915050611f55565b60608160ff166040519080825280601f01601f191660200182016040528015611fea5781602001600182028038833980820191505090505b509050600091505b60208260ff1610801561203d5750600060f81b848360ff166020811061201457fe5b1a60f81b7effffffffffffffffffffffffffffffffffffffffffffffffffffffffffffff191614155b156120a057838260ff166020811061205157fe5b1a60f81b818360ff168151811061206457fe5b60200101907effffffffffffffffffffffffffffffffffffffffffffffffffffffffffffff1916908160001a9053508180600101925050611ff2565b8092505050919050565b670de0b6b3a76400006005602d54601481106120c257fe5b015402602f60003373ffffffffffffffffffffffffffffffffffffffff1673ffffffffffffffffffffffffffffffffffffffff168152602001908152602001600020819055506019602d546014811061211757fe5b01602e60003373ffffffffffffffffffffffffffffffffffffffff1673ffffffffffffffffffffffffffffffffffffffff16815260200190815260200160002090805460018160011615610100020316600290046121769291906148c3565b506001602d600082825401925050819055506014602d541061219b576000602d819055505b603060003373ffffffffffffffffffffffffffffffffffffffff1673ffffffffffffffffffffffffffffffffffffffff16815260200190815260200160002060006005815260200190815260200160002060009054906101000a900460ff166122f9576001603060003373ffffffffffffffffffffffffffffffffffffffff1673ffffffffffffffffffffffffffffffffffffffff16815260200190815260200160002060006005815260200190815260200160002060006101000a81548160ff021916908315150217905550600160009054906101000a900473ffffffffffffffffffffffffffffffffffffffff1673ffffffffffffffffffffffffffffffffffffffff1663158a49883360026040518363ffffffff1660e01b81526004016122c692919061569d565b600060405180830381600087803b1580156122e057600080fd5b505af11580156122f4573d6000803e3d6000fd5b505050505b565b6000602f60008373ffffffffffffffffffffffffffffffffffffffff1673ffffffffffffffffffffffffffffffffffffffff168152602001908152602001600020549050919050565b600460009054906101000a900473ffffffffffffffffffffffffffffffffffffffff1681565b600080600460009054906101000a900473ffffffffffffffffffffffffffffffffffffffff1673ffffffffffffffffffffffffffffffffffffffff16600260009054906101000a900473ffffffffffffffffffffffffffffffffffffffff1673ffffffffffffffffffffffffffffffffffffffff161061242f57600460009054906101000a900473ffffffffffffffffffffffffffffffffffffffff16600260009054906101000a900473ffffffffffffffffffffffffffffffffffffffff16612476565b600260009054906101000a900473ffffffffffffffffffffffffffffffffffffffff16600460009054906101000a900473ffffffffffffffffffffffffffffffffffffffff165b915091506000600360009054906101000a900473ffffffffffffffffffffffffffffffffffffffff1673ffffffffffffffffffffffffffffffffffffffff1663e6a4390584846040518363ffffffff1660e01b81526004016124d99291906156ef565b60206040518083038186803b1580156124f157600080fd5b505afa158015612505573d6000803e3d6000fd5b505050506040513d601f19601f820116820180604052506125299190810190614d72565b9050600081905060008173ffffffffffffffffffffffffffffffffffffffff166370a08231336040518263ffffffff1660e01b815260040161256b9190615607565b60206040518083038186803b15801561258357600080fd5b505afa158015612597573d6000803e3d6000fd5b505050506040513d601f19601f820116820180604052506125bb9190810190614f61565b116125fb576040517f08c379a00000000000000000000000000000000000000000000000000000000081526004016125f2906158ae565b60405180910390fd5b603060003373ffffffffffffffffffffffffffffffffffffffff1673ffffffffffffffffffffffffffffffffffffffff16815260200190815260200160002060006002815260200190815260200160002060009054906101000a900460ff16612759576001603060003373ffffffffffffffffffffffffffffffffffffffff1673ffffffffffffffffffffffffffffffffffffffff16815260200190815260200160002060006002815260200190815260200160002060006101000a81548160ff021916908315150217905550600160009054906101000a900473ffffffffffffffffffffffffffffffffffffffff1673ffffffffffffffffffffffffffffffffffffffff1663158a49883360026040518363ffffffff1660e01b815260040161272692919061569d565b600060405180830381600087803b15801561274057600080fd5b505af1158015612754573d6000803e3d6000fd5b505050505b50505050565b600080600460009054906101000a900473ffffffffffffffffffffffffffffffffffffffff1673ffffffffffffffffffffffffffffffffffffffff16603160003373ffffffffffffffffffffffffffffffffffffffff1673ffffffffffffffffffffffffffffffffffffffff16815260200190815260200160002060009054906101000a900473ffffffffffffffffffffffffffffffffffffffff1673ffffffffffffffffffffffffffffffffffffffff161061289e57600460009054906101000a900473ffffffffffffffffffffffffffffffffffffffff16603160003373ffffffffffffffffffffffffffffffffffffffff1673ffffffffffffffffffffffffffffffffffffffff16815260200190815260200160002060009054906101000a900473ffffffffffffffffffffffffffffffffffffffff16612922565b603160003373ffffffffffffffffffffffffffffffffffffffff1673ffffffffffffffffffffffffffffffffffffffff16815260200190815260200160002060009054906101000a900473ffffffffffffffffffffffffffffffffffffffff16600460009054906101000a900473ffffffffffffffffffffffffffffffffffffffff165b915091506000600360009054906101000a900473ffffffffffffffffffffffffffffffffffffffff1673ffffffffffffffffffffffffffffffffffffffff1663e6a4390584846040518363ffffffff1660e01b81526004016129859291906156ef565b60206040518083038186803b15801561299d57600080fd5b505afa1580156129b1573d6000803e3d6000fd5b505050506040513d601f19601f820116820180604052506129d59190810190614d72565b905060008190506000808273ffffffffffffffffffffffffffffffffffffffff16630902f1ac6040518163ffffffff1660e01b815260040160606040518083038186803b158015612a2557600080fd5b505afa158015612a39573d6000803e3d6000fd5b505050506040513d601f19601f82011682018060405250612a5d9190810190614f12565b5091509150603260003373ffffffffffffffffffffffffffffffffffffffff1673ffffffffffffffffffffffffffffffffffffffff16815260200190815260200160002060009054906101000a900473ffffffffffffffffffffffffffffffffffffffff1673ffffffffffffffffffffffffffffffffffffffff16637ea382c16040518163ffffffff1660e01b8152600401600060405180830381600087803b158015612b0957600080fd5b505af1158015612b1d573d6000803e3d6000fd5b505050506000808473ffffffffffffffffffffffffffffffffffffffff16630902f1ac6040518163ffffffff1660e01b815260040160606040518083038186803b158015612b6a57600080fd5b505afa158015612b7e573d6000803e3d6000fd5b505050506040513d601f19601f82011682018060405250612ba29190810190614f12565b5091509150816dffffffffffffffffffffffffffff16846dffffffffffffffffffffffffffff16118015612bf55750806dffffffffffffffffffffffffffff16836dffffffffffffffffffffffffffff16115b612c34576040517f08c379a0000000000000000000000000000000000000000000000000000000008152600401612c2b9061590e565b60405180910390fd5b603060003373ffffffffffffffffffffffffffffffffffffffff1673ffffffffffffffffffffffffffffffffffffffff1681526020019081526020016000206000600b815260200190815260200160002060009054906101000a900460ff16612d92576001603060003373ffffffffffffffffffffffffffffffffffffffff1673ffffffffffffffffffffffffffffffffffffffff1681526020019081526020016000206000600b815260200190815260200160002060006101000a81548160ff021916908315150217905550600160009054906101000a900473ffffffffffffffffffffffffffffffffffffffff1673ffffffffffffffffffffffffffffffffffffffff1663158a49883360026040518363ffffffff1660e01b8152600401612d5f92919061569d565b600060405180830381600087803b158015612d7957600080fd5b505af1158015612d8d573d6000803e3d6000fd5b505050505b5050505050505050565b600080600460009054906101000a900473ffffffffffffffffffffffffffffffffffffffff1673ffffffffffffffffffffffffffffffffffffffff16603160003373ffffffffffffffffffffffffffffffffffffffff1673ffffffffffffffffffffffffffffffffffffffff16815260200190815260200160002060009054906101000a900473ffffffffffffffffffffffffffffffffffffffff1673ffffffffffffffffffffffffffffffffffffffff1610612edb57600460009054906101000a900473ffffffffffffffffffffffffffffffffffffffff16603160003373ffffffffffffffffffffffffffffffffffffffff1673ffffffffffffffffffffffffffffffffffffffff16815260200190815260200160002060009054906101000a900473ffffffffffffffffffffffffffffffffffffffff16612f5f565b603160003373ffffffffffffffffffffffffffffffffffffffff1673ffffffffffffffffffffffffffffffffffffffff16815260200190815260200160002060009054906101000a900473ffffffffffffffffffffffffffffffffffffffff16600460009054906101000a900473ffffffffffffffffffffffffffffffffffffffff165b915091506000600360009054906101000a900473ffffffffffffffffffffffffffffffffffffffff1673ffffffffffffffffffffffffffffffffffffffff1663e6a4390584846040518363ffffffff1660e01b8152600401612fc29291906156ef565b60206040518083038186803b158015612fda57600080fd5b505afa158015612fee573d6000803e3d6000fd5b505050506040513d601f19601f820116820180604052506130129190810190614d72565b905060008190506000808273ffffffffffffffffffffffffffffffffffffffff16630902f1ac6040518163ffffffff1660e01b815260040160606040518083038186803b15801561306257600080fd5b505afa158015613076573d6000803e3d6000fd5b505050506040513d601f19601f8201168201806040525061309a9190810190614f12565b50915091506000603160003373ffffffffffffffffffffffffffffffffffffffff1673ffffffffffffffffffffffffffffffffffffffff16815260200190815260200160002060009054906101000a900473ffffffffffffffffffffffffffffffffffffffff1673ffffffffffffffffffffffffffffffffffffffff166370a08231603260003373ffffffffffffffffffffffffffffffffffffffff1673ffffffffffffffffffffffffffffffffffffffff16815260200190815260200160002060009054906101000a900473ffffffffffffffffffffffffffffffffffffffff166040518263ffffffff1660e01b815260040161319891906155ec565b60206040518083038186803b1580156131b057600080fd5b505afa1580156131c4573d6000803e3d6000fd5b505050506040513d601f19601f820116820180604052506131e89190810190614f61565b9050603260003373ffffffffffffffffffffffffffffffffffffffff1673ffffffffffffffffffffffffffffffffffffffff16815260200190815260200160002060009054906101000a900473ffffffffffffffffffffffffffffffffffffffff1673ffffffffffffffffffffffffffffffffffffffff1663c4a859936040518163ffffffff1660e01b8152600401600060405180830381600087803b15801561329157600080fd5b505af11580156132a5573d6000803e3d6000fd5b505050506000808573ffffffffffffffffffffffffffffffffffffffff16630902f1ac6040518163ffffffff1660e01b815260040160606040518083038186803b1580156132f257600080fd5b505afa158015613306573d6000803e3d6000fd5b505050506040513d601f19601f8201168201806040525061332a9190810190614f12565b5091509150816dffffffffffffffffffffffffffff16856dffffffffffffffffffffffffffff161415801561337f5750806dffffffffffffffffffffffffffff16846dffffffffffffffffffffffffffff1614155b6133be576040517f08c379a00000000000000000000000000000000000000000000000000000000081526004016133b59061590e565b60405180910390fd5b6000603160003373ffffffffffffffffffffffffffffffffffffffff1673ffffffffffffffffffffffffffffffffffffffff16815260200190815260200160002060009054906101000a900473ffffffffffffffffffffffffffffffffffffffff1673ffffffffffffffffffffffffffffffffffffffff166370a08231603260003373ffffffffffffffffffffffffffffffffffffffff1673ffffffffffffffffffffffffffffffffffffffff16815260200190815260200160002060009054906101000a900473ffffffffffffffffffffffffffffffffffffffff166040518263ffffffff1660e01b81526004016134b791906155ec565b60206040518083038186803b1580156134cf57600080fd5b505afa1580156134e3573d6000803e3d6000fd5b505050506040513d601f19601f820116820180604052506135079190810190614f61565b90508084141561354c576040517f08c379a00000000000000000000000000000000000000000000000000000000081526004016135439061582e565b60405180910390fd5b603060003373ffffffffffffffffffffffffffffffffffffffff1673ffffffffffffffffffffffffffffffffffffffff16815260200190815260200160002060006008815260200190815260200160002060009054906101000a900460ff166136aa576001603060003373ffffffffffffffffffffffffffffffffffffffff1673ffffffffffffffffffffffffffffffffffffffff16815260200190815260200160002060006008815260200190815260200160002060006101000a81548160ff021916908315150217905550600160009054906101000a900473ffffffffffffffffffffffffffffffffffffffff1673ffffffffffffffffffffffffffffffffffffffff1663158a49883360016040518363ffffffff1660e01b8152600401613677929190615674565b600060405180830381600087803b15801561369157600080fd5b505af11580156136a5573d6000803e3d6000fd5b505050505b50505050505050505050565b603060003373ffffffffffffffffffffffffffffffffffffffff1673ffffffffffffffffffffffffffffffffffffffff16815260200190815260200160002060006005815260200190815260200160002060009054906101000a900460ff1661371e57600080fd5b6138e0602e60003373ffffffffffffffffffffffffffffffffffffffff1673ffffffffffffffffffffffffffffffffffffffff1681526020019081526020016000208054600181600116156101000203166002900480601f0160208091040260200160405190810160405280929190818152602001828054600181600116156101000203166002900480156137f45780601f106137c9576101008083540402835291602001916137f4565b820191906000526020600020905b8154815290600101906020018083116137d757829003601f168201915b5050505050603160003373ffffffffffffffffffffffffffffffffffffffff1673ffffffffffffffffffffffffffffffffffffffff16815260200190815260200160002060009054906101000a900473ffffffffffffffffffffffffffffffffffffffff1673ffffffffffffffffffffffffffffffffffffffff166395d89b416040518163ffffffff1660e01b815260040160006040518083038186803b15801561389e57600080fd5b505afa1580156138b2573d6000803e3d6000fd5b505050506040513d6000823e3d601f19601f820116820180604052506138db9190810190614ed1565b61486a565b61391f576040517f08c379a00000000000000000000000000000000000000000000000000000000081526004016139169061586e565b60405180910390fd5b603160003373ffffffffffffffffffffffffffffffffffffffff1673ffffffffffffffffffffffffffffffffffffffff16815260200190815260200160002060009054906101000a900473ffffffffffffffffffffffffffffffffffffffff1673ffffffffffffffffffffffffffffffffffffffff166318160ddd6040518163ffffffff1660e01b815260040160206040518083038186803b1580156139c457600080fd5b505afa1580156139d8573d6000803e3d6000fd5b505050506040513d601f19601f820116820180604052506139fc9190810190614f61565b602f60003373ffffffffffffffffffffffffffffffffffffffff1673ffffffffffffffffffffffffffffffffffffffff1681526020019081526020016000205414613a7c576040517f08c379a0000000000000000000000000000000000000000000000000000000008152600401613a739061592e565b60405180910390fd5b6000603160003373ffffffffffffffffffffffffffffffffffffffff1673ffffffffffffffffffffffffffffffffffffffff16815260200190815260200160002060009054906101000a900473ffffffffffffffffffffffffffffffffffffffff1673ffffffffffffffffffffffffffffffffffffffff1663dd62ed3e30336040518363ffffffff1660e01b8152600401613b18929190615622565b60206040518083038186803b158015613b3057600080fd5b505afa158015613b44573d6000803e3d6000fd5b505050506040513d601f19601f82011682018060405250613b689190810190614f61565b14613ba8576040517f08c379a0000000000000000000000000000000000000000000000000000000008152600401613b9f9061596e565b60405180910390fd5b6000603160003373ffffffffffffffffffffffffffffffffffffffff1673ffffffffffffffffffffffffffffffffffffffff16815260200190815260200160002060009054906101000a900473ffffffffffffffffffffffffffffffffffffffff1673ffffffffffffffffffffffffffffffffffffffff166370a08231306040518263ffffffff1660e01b8152600401613c429190615607565b60206040518083038186803b158015613c5a57600080fd5b505afa158015613c6e573d6000803e3d6000fd5b505050506040513d601f19601f82011682018060405250613c929190810190614f61565b14613cd2576040517f08c379a0000000000000000000000000000000000000000000000000000000008152600401613cc9906158ce565b60405180910390fd5b603160003373ffffffffffffffffffffffffffffffffffffffff1673ffffffffffffffffffffffffffffffffffffffff16815260200190815260200160002060009054906101000a900473ffffffffffffffffffffffffffffffffffffffff1673ffffffffffffffffffffffffffffffffffffffff1663095ea7b333600a6040518363ffffffff1660e01b8152600401613d6d92919061564b565b602060405180830381600087803b158015613d8757600080fd5b505af1158015613d9b573d6000803e3d6000fd5b505050506040513d601f19601f82011682018060405250613dbf9190810190614e2d565b613dfe576040517f08c379a0000000000000000000000000000000000000000000000000000000008152600401613df59061584e565b60405180910390fd5b603060003373ffffffffffffffffffffffffffffffffffffffff1673ffffffffffffffffffffffffffffffffffffffff16815260200190815260200160002060006006815260200190815260200160002060009054906101000a900460ff16613f5c576001603060003373ffffffffffffffffffffffffffffffffffffffff1673ffffffffffffffffffffffffffffffffffffffff16815260200190815260200160002060006006815260200190815260200160002060006101000a81548160ff021916908315150217905550600160009054906101000a900473ffffffffffffffffffffffffffffffffffffffff1673ffffffffffffffffffffffffffffffffffffffff1663158a49883360026040518363ffffffff1660e01b8152600401613f2992919061569d565b600060405180830381600087803b158015613f4357600080fd5b505af1158015613f57573d6000803e3d6000fd5b505050505b565b600160009054906101000a900473ffffffffffffffffffffffffffffffffffffffff1681565b600160009054906101000a900473ffffffffffffffffffffffffffffffffffffffff1673ffffffffffffffffffffffffffffffffffffffff1663f0a47f78336040518263ffffffff1660e01b8152600401613fdf9190615607565b60206040518083038186803b158015613ff757600080fd5b505afa15801561400b573d6000803e3d6000fd5b505050506040513d601f19601f8201168201806040525061402f9190810190614e2d565b61403857600080fd5b81600590601461404992919061494a565b5080601990601461405b92919061498a565b506000602d8190555060008090505b60148110156140d4577fcc783cf5d663570e7c7576cec91f24975b35b957c8dd67766710be25c48cf602601982601481106140a157fe5b01600583601481106140af57fe5b01546040516140bf9291906157fe565b60405180910390a1808060010191505061406a565b505050565b6060602e60008373ffffffffffffffffffffffffffffffffffffffff1673ffffffffffffffffffffffffffffffffffffffff1681526020019081526020016000208054600181600116156101000203166002900480601f0160208091040260200160405190810160405280929190818152602001828054600181600116156101000203166002900480156141ae5780601f10614183576101008083540402835291602001916141ae565b820191906000526020600020905b81548152906001019060200180831161419157829003601f168201915b50505050509050919050565b60316020528060005260406000206000915054906101000a900473ffffffffffffffffffffffffffffffffffffffff1681565b600080600460009054906101000a900473ffffffffffffffffffffffffffffffffffffffff1673ffffffffffffffffffffffffffffffffffffffff16603160003373ffffffffffffffffffffffffffffffffffffffff1673ffffffffffffffffffffffffffffffffffffffff16815260200190815260200160002060009054906101000a900473ffffffffffffffffffffffffffffffffffffffff1673ffffffffffffffffffffffffffffffffffffffff161061432c57600460009054906101000a900473ffffffffffffffffffffffffffffffffffffffff16603160003373ffffffffffffffffffffffffffffffffffffffff1673ffffffffffffffffffffffffffffffffffffffff16815260200190815260200160002060009054906101000a900473ffffffffffffffffffffffffffffffffffffffff166143b0565b603160003373ffffffffffffffffffffffffffffffffffffffff1673ffffffffffffffffffffffffffffffffffffffff16815260200190815260200160002060009054906101000a900473ffffffffffffffffffffffffffffffffffffffff16600460009054906101000a900473ffffffffffffffffffffffffffffffffffffffff165b915091506000600360009054906101000a900473ffffffffffffffffffffffffffffffffffffffff1673ffffffffffffffffffffffffffffffffffffffff1663e6a4390584846040518363ffffffff1660e01b81526004016144139291906156ef565b60206040518083038186803b15801561442b57600080fd5b505afa15801561443f573d6000803e3d6000fd5b505050506040513d601f19601f820116820180604052506144639190810190614d72565b905060008190506000808273ffffffffffffffffffffffffffffffffffffffff16630902f1ac6040518163ffffffff1660e01b815260040160606040518083038186803b1580156144b357600080fd5b505afa1580156144c7573d6000803e3d6000fd5b505050506040513d601f19601f820116820180604052506144eb9190810190614f12565b5091509150603260003373ffffffffffffffffffffffffffffffffffffffff1673ffffffffffffffffffffffffffffffffffffffff16815260200190815260200160002060009054906101000a900473ffffffffffffffffffffffffffffffffffffffff1673ffffffffffffffffffffffffffffffffffffffff1663e8078d946040518163ffffffff1660e01b8152600401600060405180830381600087803b15801561459757600080fd5b505af11580156145ab573d6000803e3d6000fd5b505050506000808473ffffffffffffffffffffffffffffffffffffffff16630902f1ac6040518163ffffffff1660e01b815260040160606040518083038186803b1580156145f857600080fd5b505afa15801561460c573d6000803e3d6000fd5b505050506040513d601f19601f820116820180604052506146309190810190614f12565b5091509150816dffffffffffffffffffffffffffff16846dffffffffffffffffffffffffffff161080156146835750806dffffffffffffffffffffffffffff16836dffffffffffffffffffffffffffff16105b6146c2576040517f08c379a00000000000000000000000000000000000000000000000000000000081526004016146b99061590e565b60405180910390fd5b603060003373ffffffffffffffffffffffffffffffffffffffff1673ffffffffffffffffffffffffffffffffffffffff1681526020019081526020016000206000600a815260200190815260200160002060009054906101000a900460ff16614820576001603060003373ffffffffffffffffffffffffffffffffffffffff1673ffffffffffffffffffffffffffffffffffffffff1681526020019081526020016000206000600a815260200190815260200160002060006101000a81548160ff021916908315150217905550600160009054906101000a900473ffffffffffffffffffffffffffffffffffffffff1673ffffffffffffffffffffffffffffffffffffffff1663158a49883360026040518363ffffffff1660e01b81526004016147ed92919061569d565b600060405180830381600087803b15801561480757600080fd5b505af115801561481b573d6000803e3d6000fd5b505050505b5050505050505050565b60006020528060005260406000206000915054906101000a900460ff1681565b60336020528060005260406000206000915054906101000a900460ff1681565b60008160405160200161487d91906155d5565b60405160208183030381529060405280519060200120836040516020016148a491906155d5565b6040516020818303038152906040528051906020012014905092915050565b828054600181600116156101000203166002900490600052602060002090601f016020900481019282601f106148fc5780548555614939565b8280016001018555821561493957600052602060002091601f016020900482015b8281111561493857825482559160010191906001019061491d565b5b50905061494691906149dd565b5090565b8260148101928215614979579160200282015b8281111561497857825182559160200191906001019061495d565b5b50905061498691906149dd565b5090565b82601481019282156149cc579160200282015b828111156149cb5782518290805190602001906149bb929190614a02565b509160200191906001019061499d565b5b5090506149d99190614a82565b5090565b6149ff91905b808211156149fb5760008160009055506001016149e3565b5090565b90565b828054600181600116156101000203166002900490600052602060002090601f016020900481019282601f10614a4357805160ff1916838001178555614a71565b82800160010185558215614a71579182015b82811115614a70578251825591602001919060010190614a55565b5b509050614a7e91906149dd565b5090565b614aab91905b80821115614aa75760008181614a9e9190614aae565b50600101614a88565b5090565b90565b50805460018160011615610100020316600290046000825580601f10614ad45750614af3565b601f016020900490600052602060002090810190614af291906149dd565b5b50565b600081359050614b0581615cfe565b92915050565b600081519050614b1a81615cfe565b92915050565b600082601f830112614b3157600080fd5b6014614b44614b3f826159f6565b6159c9565b9150818360005b83811015614b7b5781358601614b618882614c4d565b845260208401935060208301925050600181019050614b4b565b5050505092915050565b600082601f830112614b9657600080fd5b6014614ba9614ba482615a18565b6159c9565b91508183856020840282011115614bbf57600080fd5b60005b83811015614bef5781614bd58882614d0a565b845260208401935060208301925050600181019050614bc2565b5050505092915050565b600081519050614c0881615d15565b92915050565b600081359050614c1d81615d2c565b92915050565b600081359050614c3281615d43565b92915050565b600081359050614c4781615d5a565b92915050565b600082601f830112614c5e57600080fd5b8135614c71614c6c82615a3a565b6159c9565b91508082526020830160208301858383011115614c8d57600080fd5b614c98838284615cab565b50505092915050565b600082601f830112614cb257600080fd5b8151614cc5614cc082615a66565b6159c9565b91508082526020830160208301858383011115614ce157600080fd5b614cec838284615cba565b50505092915050565b600081519050614d0481615d71565b92915050565b600081359050614d1981615d88565b92915050565b600081519050614d2e81615d88565b92915050565b600081519050614d4381615d9f565b92915050565b600060208284031215614d5b57600080fd5b6000614d6984828501614af6565b91505092915050565b600060208284031215614d8457600080fd5b6000614d9284828501614b0b565b91505092915050565b60008060408385031215614dae57600080fd5b6000614dbc85828601614af6565b9250506020614dcd85828601614d0a565b9150509250929050565b6000806102a08385031215614deb57600080fd5b6000614df985828601614b85565b92505061028083013567ffffffffffffffff811115614e1757600080fd5b614e2385828601614b20565b9150509250929050565b600060208284031215614e3f57600080fd5b6000614e4d84828501614bf9565b91505092915050565b600060208284031215614e6857600080fd5b6000614e7684828501614c0e565b91505092915050565b600060208284031215614e9157600080fd5b6000614e9f84828501614c23565b91505092915050565b600060208284031215614eba57600080fd5b6000614ec884828501614c38565b91505092915050565b600060208284031215614ee357600080fd5b600082015167ffffffffffffffff811115614efd57600080fd5b614f0984828501614ca1565b91505092915050565b600080600060608486031215614f2757600080fd5b6000614f3586828701614cf5565b9350506020614f4686828701614cf5565b9250506040614f5786828701614d34565b9150509250925092565b600060208284031215614f7357600080fd5b6000614f8184828501614d1f565b91505092915050565b614f9381615b79565b82525050565b614fa281615ad9565b82525050565b614fb181615aeb565b82525050565b614fc081615b8b565b82525050565b614fcf81615baf565b82525050565b614fde81615bd3565b82525050565b614fed81615bf7565b82525050565b614ffc81615c1b565b82525050565b61500b81615c3f565b82525050565b61501a81615c51565b82525050565b61502981615c63565b82525050565b61503881615c75565b82525050565b600061504982615ab2565b6150538185615abd565b9350615063818560208601615cba565b61506c81615ced565b840191505092915050565b600061508282615ab2565b61508c8185615ace565b935061509c818560208601615cba565b80840191505092915050565b60006150b382615aa7565b6150bd8185615abd565b93506150cd818560208601615cba565b6150d681615ced565b840191505092915050565b6000815460018116600081146150fe576001811461512457615168565b607f600283041661510f8187615abd565b955060ff198316865260208601935050615168565b600282046151328187615abd565b955061513d85615a92565b60005b8281101561515f57815481890152600182019150602081019050615140565b80880195505050505b505092915050565b600061517d602883615abd565b91507f596f75207374696c6c2068617665207468652073616d6520616d6f756e74206f60008301527f6620746f6b656e730000000000000000000000000000000000000000000000006020830152604082019050919050565b60006151e3601783615abd565b91507f417070726f7665206e6f7420696d706c656d656e7465640000000000000000006000830152602082019050919050565b6000615223601083615abd565b91507f496e636f7272656374207469636b6572000000000000000000000000000000006000830152602082019050919050565b6000615263603083615abd565b91507f596f7520646f206e6f7420686f6c642064756d6d79546f6b656e732e2042757960008301527f207468656d206f6e20556e6973776170000000000000000000000000000000006020830152604082019050919050565b60006152c9602e83615abd565b91507f596f7520646f206e6f7420686f6c64206c697175696469747920696e2074686560008301527f20726571756972656420706f6f6c0000000000000000000000000000000000006020830152604082019050919050565b600061532f602c83615abd565b91507f42616c616e63654f66206e6f7420696d706c656d656e746564206f7220696e6360008301527f6f72726563746c792073657400000000000000000000000000000000000000006020830152604082019050919050565b6000615395602e83615abd565b91507f596f75207374696c6c2068617665207468652073616d6520616d6f756e74206f60008301527f662064756d6d7920746f6b656e730000000000000000000000000000000000006020830152604082019050919050565b60006153fb602883615abd565b91507f4e6f206c6971756964697479206368616e676520696e20796f757220746f6b6560008301527f6e277320706f6f6c0000000000000000000000000000000000000000000000006020830152604082019050919050565b6000615461601083615abd565b91507f496e636f727265637420737570706c79000000000000000000000000000000006000830152602082019050919050565b60006154a1602983615abd565b91507f4e6f206c6971756964697479206368616e676520696e2064756d6d7920746f6b60008301527f656e277320706f6f6c00000000000000000000000000000000000000000000006020830152604082019050919050565b6000615507602c83615abd565b91507f416c6c6f77616e6365206e6f7420696d706c656d656e746564206f7220696e6360008301527f6f72726563746c792073657400000000000000000000000000000000000000006020830152604082019050919050565b600061556d602d83615abd565b91507f596f75207374696c6c2068617665207468652073616d6520616d6f756e74206f60008301527f6620796f757220746f6b656e73000000000000000000000000000000000000006020830152604082019050919050565b6155cf81615b5f565b82525050565b60006155e18284615077565b915081905092915050565b60006020820190506156016000830184614f99565b92915050565b600060208201905061561c6000830184614f8a565b92915050565b60006040820190506156376000830185614f8a565b6156446020830184614f8a565b9392505050565b60006040820190506156606000830185614f8a565b61566d6020830184615002565b9392505050565b60006040820190506156896000830185614f8a565b6156966020830184615011565b9392505050565b60006040820190506156b26000830185614f8a565b6156bf6020830184615020565b9392505050565b60006040820190506156db6000830185614f8a565b6156e8602083018461502f565b9392505050565b60006040820190506157046000830185614f99565b6157116020830184614f99565b9392505050565b600060208201905061572d6000830184614fa8565b92915050565b60006020820190506157486000830184614fb7565b92915050565b60006020820190506157636000830184614fc6565b92915050565b600060208201905061577e6000830184614fd5565b92915050565b60006020820190506157996000830184614fe4565b92915050565b60006020820190506157b46000830184614ff3565b92915050565b600060208201905081810360008301526157d481846150a8565b905092915050565b600060208201905081810360008301526157f6818461503e565b905092915050565b6000604082019050818103600083015261581881856150e1565b905061582760208301846155c6565b9392505050565b6000602082019050818103600083015261584781615170565b9050919050565b60006020820190508181036000830152615867816151d6565b9050919050565b6000602082019050818103600083015261588781615216565b9050919050565b600060208201905081810360008301526158a781615256565b9050919050565b600060208201905081810360008301526158c7816152bc565b9050919050565b600060208201905081810360008301526158e781615322565b9050919050565b6000602082019050818103600083015261590781615388565b9050919050565b60006020820190508181036000830152615927816153ee565b9050919050565b6000602082019050818103600083015261594781615454565b9050919050565b6000602082019050818103600083015261596781615494565b9050919050565b60006020820190508181036000830152615987816154fa565b9050919050565b600060208201905081810360008301526159a781615560565b9050919050565b60006020820190506159c360008301846155c6565b92915050565b6000604051905081810181811067ffffffffffffffff821117156159ec57600080fd5b8060405250919050565b600067ffffffffffffffff821115615a0d57600080fd5b602082029050919050565b600067ffffffffffffffff821115615a2f57600080fd5b602082029050919050565b600067ffffffffffffffff821115615a5157600080fd5b601f19601f8301169050602081019050919050565b600067ffffffffffffffff821115615a7d57600080fd5b601f19601f8301169050602081019050919050565b60008190508160005260206000209050919050565b600081519050919050565b600081519050919050565b600082825260208201905092915050565b600081905092915050565b6000615ae482615b3f565b9050919050565b60008115159050919050565b6000819050919050565b6000615b0c82615ad9565b9050919050565b6000615b1e82615ad9565b9050919050565b60006dffffffffffffffffffffffffffff82169050919050565b600073ffffffffffffffffffffffffffffffffffffffff82169050919050565b6000819050919050565b600063ffffffff82169050919050565b6000615b8482615c87565b9050919050565b6000615b9682615b9d565b9050919050565b6000615ba882615b3f565b9050919050565b6000615bba82615bc1565b9050919050565b6000615bcc82615b3f565b9050919050565b6000615bde82615be5565b9050919050565b6000615bf082615b3f565b9050919050565b6000615c0282615c09565b9050919050565b6000615c1482615b3f565b9050919050565b6000615c2682615c2d565b9050919050565b6000615c3882615b3f565b9050919050565b6000615c4a82615b5f565b9050919050565b6000615c5c82615b5f565b9050919050565b6000615c6e82615b5f565b9050919050565b6000615c8082615b5f565b9050919050565b6000615c9282615c99565b9050919050565b6000615ca482615b3f565b9050919050565b82818337600083830152505050565b60005b83811015615cd8578082015181840152602081019050615cbd565b83811115615ce7576000848401525b50505050565b6000601f19601f8301169050919050565b615d0781615ad9565b8114615d1257600080fd5b50565b615d1e81615aeb565b8114615d2957600080fd5b50565b615d3581615af7565b8114615d4057600080fd5b50565b615d4c81615b01565b8114615d5757600080fd5b50565b615d6381615b13565b8114615d6e57600080fd5b50565b615d7a81615b25565b8114615d8557600080fd5b50565b615d9181615b5f565b8114615d9c57600080fd5b50565b615da881615b69565b8114615db357600080fd5b5056fea26469706673582212206147b50015d3968a517239a0b744d1ff770309ce6e1c6a2125dabc115385b5ff64736f6c63430006020033",
  "source": "pragma solidity ^0.6.0;\npragma experimental ABIEncoderV2;\n\nimport \"./ERC20TD.sol\";\nimport \"./IExerciceSolution.sol\";\nimport \"./IRichERC20.sol\";\nimport \"./utils/IUniswapV2Factory.sol\";\nimport \"./utils/IUniswapV2Pair.sol\";\n\ncontract Evaluator \n{\n\n\tmapping(address => bool) public teachers;\n\tERC20TD public TDAMM;\n\n\tERC20 public dummyToken;\n\tIUniswapV2Factory public uniswapV2Factory;\n\taddress public WETH;\n\n\tuint256[20] private randomSupplies;\n\tstring[20] private randomTickers;\n \tuint public nextValueStoreRank;\n\n \tmapping(address => string) public assignedTicker;\n \tmapping(address => uint256) public assignedSupply;\n \tmapping(address => mapping(uint256 => bool)) public exerciceProgression;\n \tmapping(address => IRichERC20) public studentErc20;\n \tmapping(address => IExerciceSolution) public studentExercice;\n \tmapping(address => bool) public hasBeenPaired;\n\n \tevent newRandomTickerAndSupply(string ticker, uint256 supply);\n \tevent constructedCorrectly(address erc20Address, address dummyTokenAddress, address uniFactoryAddress, address wethAddress);\n\tconstructor(ERC20TD _TDAMM, ERC20 _dummyToken, IUniswapV2Factory _uniswapV2Factory, address _WETH) \n\tpublic \n\t{\n\t\tTDAMM = _TDAMM;\n\t\tdummyToken = _dummyToken;\n\t\tuniswapV2Factory = _uniswapV2Factory;\n\t\tWETH = _WETH;\n\t\temit constructedCorrectly(address(TDAMM), address(_dummyToken), address(_uniswapV2Factory), _WETH);\n\n\t}\n\n\tfallback () external payable \n\t{}\n\n\treceive () external payable \n\t{}\n\n\tfunction ex1_showIHaveTokens()\n\tpublic\n\t{\n\t\trequire(dummyToken.balanceOf(msg.sender) > 0, \"You do not hold dummyTokens. Buy them on Uniswap\");\n\n\t\tif (!exerciceProgression[msg.sender][1])\n\t\t{\n\t\t\texerciceProgression[msg.sender][1] = true;\n\t\t\tTDAMM.distributeTokens(msg.sender, 2);\n\t\t}\n\n\t}\n\n\tfunction ex2_showIProvidedLiquidity()\n\tpublic\n\t{\n\t\t// Getting address from factory for pair dummyToken / WETH\n\t\t(address token0, address token1) = address(dummyToken) < WETH ? (address(dummyToken), WETH) : (WETH, address(dummyToken));\n\t\taddress dummyTokenAndWethPair = uniswapV2Factory.getPair(token0, token1);\n\n\t\t// Checking if caller holds LP token\n\t\tERC20 dummyTokenAndWethPairAsERC20 = ERC20(dummyTokenAndWethPair);\n\t\trequire(dummyTokenAndWethPairAsERC20.balanceOf(msg.sender) > 0, \"You do not hold liquidity in the required pool\");\n\t\tif (!exerciceProgression[msg.sender][2])\n\t\t{\n\t\t\texerciceProgression[msg.sender][2] = true;\n\t\t\tTDAMM.distributeTokens(msg.sender, 2);\n\t\t}\n\t}\n\n\tfunction ex6a_getTickerAndSupply()\n\tpublic\n\t{\n\t\tassignedSupply[msg.sender] = randomSupplies[nextValueStoreRank]*1000000000000000000;\n\t\t// assignedTicker[msg.sender] = bytes32ToString(randomTickers[nextValueStoreRank]);\n\t\tassignedTicker[msg.sender] = randomTickers[nextValueStoreRank];\n\n\t\tnextValueStoreRank += 1;\n\t\tif (nextValueStoreRank >= 20)\n\t\t{\n\t\t\tnextValueStoreRank = 0;\n\t\t}\n\n\t\t// Crediting points\n\t\tif (!exerciceProgression[msg.sender][5])\n\t\t{\n\t\t\texerciceProgression[msg.sender][5] = true;\n\t\t\tTDAMM.distributeTokens(msg.sender, 2);\n\t\t}\n\t}\n\n\tfunction ex6b_testErc20TickerAndSupply()\n\tpublic\n\t{\n\t\t// Checking ticker and supply were received\n\t\trequire(exerciceProgression[msg.sender][5]);\n\n\t\t// Checking ticker was set properly\n\t\trequire(_compareStrings(assignedTicker[msg.sender], studentErc20[msg.sender].symbol()), \"Incorrect ticker\");\n\t\t// Checking supply was set properly\n\t\trequire(assignedSupply[msg.sender] == studentErc20[msg.sender].totalSupply(), \"Incorrect supply\");\n\t\t// Checking some ERC20 functions were created\n\t\trequire(studentErc20[msg.sender].allowance(address(this), msg.sender) == 0, \"Allowance not implemented or incorrectly set\");\n\t\trequire(studentErc20[msg.sender].balanceOf(address(this)) == 0, \"BalanceOf not implemented or incorrectly set\");\n\t\trequire(studentErc20[msg.sender].approve(msg.sender, 10), \"Approve not implemented\");\n\n\t\t// Crediting points\n\t\tif (!exerciceProgression[msg.sender][6])\n\t\t{\n\t\t\texerciceProgression[msg.sender][6] = true;\n\t\t\t// Creating ERC20\n\t\t\tTDAMM.distributeTokens(msg.sender, 2);\n\t\t}\n\n\t}\n\n\tfunction ex7_tokenIsTradableOnUniswap()\n\tpublic\n\t{\n\t\t// Retrieving address of pair from library\n\t\t(address token0, address token1) = address(studentErc20[msg.sender]) < WETH ? (address(studentErc20[msg.sender]), WETH) : (WETH, address(studentErc20[msg.sender]));\n\t\taddress studentTokenAndWethPair = uniswapV2Factory.getPair(token0, token1);\n\n\t\trequire(studentTokenAndWethPair != address(0));\n\n\t\t// Crediting points\n\t\tif (!exerciceProgression[msg.sender][7])\n\t\t{\n\t\t\texerciceProgression[msg.sender][7] = true;\n\t\t\t// Creating ERC20\n\t\t\tTDAMM.distributeTokens(msg.sender, 5);\n\t\t}\n\n\t}\n\n\tfunction ex8_contractCanSwapVsEth()\n\tpublic\n\t{\n\t\t// Retrieving address of pair from library\n\t\t(address token0, address token1) = address(studentErc20[msg.sender]) < WETH ? (address(studentErc20[msg.sender]), WETH) : (WETH, address(studentErc20[msg.sender]));\n\t\taddress studentTokenAndWethPair = uniswapV2Factory.getPair(token0, token1);\n\n\t\t// Checking pair balance before calling exercice contract\n\t\tIUniswapV2Pair studentTokenAndWethPairInstance = IUniswapV2Pair(studentTokenAndWethPair);\n\t\t(uint112 reserve0, uint112 reserve1, ) = studentTokenAndWethPairInstance.getReserves();\n\n\t\t// Checking caller balance before executing contract\n\t\tuint initBalance = studentErc20[msg.sender].balanceOf(address(studentExercice[msg.sender]));\n\n\t\t// Calling student contract to tell him to provide liquidity\n\t\tstudentExercice[msg.sender].swapYourTokenForEth();\n\n\t\t// Checking pair balance after calling exercice contract\n\t\t(uint112 reserve3, uint112 reserve4,) = studentTokenAndWethPairInstance.getReserves();\n\t\trequire((reserve0 != reserve3) && (reserve1 != reserve4), \"No liquidity change in your token's pool\");\n\n\t\t// Checking your token balance after calling the exercice\n\t\tuint endBalance = studentErc20[msg.sender].balanceOf(address(studentExercice[msg.sender]));\n\t\trequire(initBalance != endBalance, \"You still have the same amount of tokens\");\n\n\t\t// Crediting points\n\t\tif (!exerciceProgression[msg.sender][8])\n\t\t{\n\t\t\texerciceProgression[msg.sender][8] = true;\n\t\t\t// Creating ERC20\n\t\t\tTDAMM.distributeTokens(msg.sender, 1);\n\t\t}\n\n\t}\n\n\tfunction ex9_contractCanSwapVsDummyToken()\n\tpublic\n\t{\n\t\t// Retrieving address of the first pair from library\n\t\t(address token0, address token1) = address(studentErc20[msg.sender]) < WETH ? (address(studentErc20[msg.sender]), WETH) : (WETH, address(studentErc20[msg.sender]));\n\t\taddress studentTokenAndWethPair = uniswapV2Factory.getPair(token0, token1);\n\n\t\t// Retrieving address of the second pair from library\n\t\t(address token2, address token3) = WETH < address(dummyToken) ? (WETH, address(dummyToken)) : (address(dummyToken), WETH);\n\t\taddress dummyTokenAndWethPair = uniswapV2Factory.getPair(token2, token3);\n\n\t\t// Checking pair balance before calling exercice contract\n\t\tIUniswapV2Pair studentTokenAndWethPairInstance = IUniswapV2Pair(studentTokenAndWethPair);\n\t\tIUniswapV2Pair dummyTokenAndWethPairInstance = IUniswapV2Pair(dummyTokenAndWethPair);\n\t\t(uint112 reserve00, uint112 reserve01, ) = studentTokenAndWethPairInstance.getReserves();\n\t\t(uint112 reserve10, uint112 reserve11, ) = dummyTokenAndWethPairInstance.getReserves();\n\t\t\n\t\t// Checking caller balance before executing contract\n\t\tuint initTokenBalance = studentErc20[msg.sender].balanceOf(address(studentExercice[msg.sender]));\n\t\tuint initDummyBalance = dummyToken.balanceOf(address(studentExercice[msg.sender]));\n\n\t\t// Calling student contract to tell him to provide liquidity\n\t\tstudentExercice[msg.sender].swapYourTokenForDummyToken();\n\n\t\t// Checking pair balance after calling exercice contract\n\t\t(uint112 reserve03, uint112 reserve04,) = studentTokenAndWethPairInstance.getReserves();\n\t\t(uint112 reserve13, uint112 reserve14,) = dummyTokenAndWethPairInstance.getReserves();\n\t\trequire((reserve00 != reserve03) && (reserve01 != reserve04), \"No liquidity change in your token's pool\");\n\t\trequire((reserve10 != reserve13) && (reserve11 != reserve14), \"No liquidity change in dummy token's pool\");\n\n\t\t// Checking your token balance after calling the exercice\n\t\tuint endTokenBalance = studentErc20[msg.sender].balanceOf(address(studentExercice[msg.sender]));\n\t\trequire(initTokenBalance != endTokenBalance, \"You still have the same amount of your tokens\");\n\t\tuint endDummyBalance = dummyToken.balanceOf(address(studentExercice[msg.sender]));\n\t\trequire(initDummyBalance != endDummyBalance, \"You still have the same amount of dummy tokens\");\n\n\t\t// Crediting points\n\t\tif (!exerciceProgression[msg.sender][9])\n\t\t{\n\t\t\texerciceProgression[msg.sender][9] = true;\n\t\t\t// Creating ERC20\n\t\t\tTDAMM.distributeTokens(msg.sender, 2);\n\t\t}\n\n\t}\n\tfunction ex10_contractCanProvideLiquidity()\n\tpublic\n\t{\n\t\t// Retrieving address of pair from library\n\t\t(address token0, address token1) = address(studentErc20[msg.sender]) < WETH ? (address(studentErc20[msg.sender]), WETH) : (WETH, address(studentErc20[msg.sender]));\n\t\taddress studentTokenAndWethPair = uniswapV2Factory.getPair(token0, token1);\n\n\t\t// Checking pair balance before calling exercice contract\n\t\tIUniswapV2Pair studentTokenAndWethPairInstance = IUniswapV2Pair(studentTokenAndWethPair);\n\t\t(uint112 reserve0, uint112 reserve1, ) = studentTokenAndWethPairInstance.getReserves();\n\n\t\t// Calling student contract to tell him to provide liquidity\n\t\tstudentExercice[msg.sender].addLiquidity();\n\n\t\t// Checking pair balance after calling exercice contract\n\t\t(uint112 reserve3, uint112 reserve4,) = studentTokenAndWethPairInstance.getReserves();\n\n\t\trequire((reserve0 < reserve3) && (reserve1 < reserve4), \"No liquidity change in your token's pool\");\n\n\t\t// Crediting points\n\t\tif (!exerciceProgression[msg.sender][10])\n\t\t{\n\t\t\texerciceProgression[msg.sender][10] = true;\n\t\t\t// Creating ERC20\n\t\t\tTDAMM.distributeTokens(msg.sender, 2);\n\t\t}\n\n\t}\n\n\tfunction ex11_contractCanWithdrawLiquidity()\n\tpublic\n\t{\n\t\t// Retrieving address of pair from library\n\t\t(address token0, address token1) = address(studentErc20[msg.sender]) < WETH ? (address(studentErc20[msg.sender]), WETH) : (WETH, address(studentErc20[msg.sender]));\n\t\taddress studentTokenAndWethPair = uniswapV2Factory.getPair(token0, token1);\n\n\t\t// Checking pair balance before calling exercice contract\n\t\tIUniswapV2Pair studentTokenAndWethPairInstance = IUniswapV2Pair(studentTokenAndWethPair);\n\t\t(uint112 reserve0, uint112 reserve1, ) = studentTokenAndWethPairInstance.getReserves();\n\n\t\t// Calling student contract to tell him to provide liquidity\n\t\tstudentExercice[msg.sender].withdrawLiquidity();\n\n\t\t// Checking pair balance after calling exercice contract\n\t\t(uint112 reserve3, uint112 reserve4,) = studentTokenAndWethPairInstance.getReserves();\n\n\t\trequire((reserve0 > reserve3) && (reserve1 > reserve4), \"No liquidity change in your token's pool\");\n\n\t\t// Crediting points\n\t\tif (!exerciceProgression[msg.sender][11])\n\t\t{\n\t\t\texerciceProgression[msg.sender][11] = true;\n\t\t\t// Creating ERC20\n\t\t\tTDAMM.distributeTokens(msg.sender, 2);\n\t\t}\n\n\t}\n\n\n\tmodifier onlyTeachers() \n\t{\n\n\t    require(TDAMM.teachers(msg.sender));\n\t    _;\n\t}\n\n\tfunction submitExercice(IExerciceSolution studentExercice_)\n\tpublic\n\t{\n\t\t// Checking this contract was not used by another group before\n\t\trequire(!hasBeenPaired[address(studentExercice_)]);\n\n\t\t// Assigning passed ERC20 as student ERC20\n\t\tstudentExercice[msg.sender] = studentExercice_;\n\t\thasBeenPaired[address(studentExercice_)] = true;\n\t\t\t\n\t}\n\n\tfunction submitErc20(IRichERC20 studentErc20_)\n\tpublic\n\t{\n\t\t// Checking this contract was not used by another group before\n\t\trequire(!hasBeenPaired[address(studentErc20_)]);\n\t\t// Assigning passed ERC20 as student ERC20\n\t\tstudentErc20[msg.sender] = studentErc20_;\n\t\thasBeenPaired[address(studentErc20_)] = true;\n\t\t\t\n\t}\n\n\tfunction _compareStrings(string memory a, string memory b) \n\tinternal \n\tpure \n\treturns (bool) \n\t{\n    \treturn (keccak256(abi.encodePacked((a))) == keccak256(abi.encodePacked((b))));\n\t}\n\n\tfunction bytes32ToString(bytes32 _bytes32) \n\tpublic \n\tpure returns (string memory) \n\t{\n        uint8 i = 0;\n        while(i < 32 && _bytes32[i] != 0) {\n            i++;\n        }\n        bytes memory bytesArray = new bytes(i);\n        for (i = 0; i < 32 && _bytes32[i] != 0; i++) {\n            bytesArray[i] = _bytes32[i];\n        }\n        return string(bytesArray);\n    }\n\n\tfunction readTicker(address studentAddres)\n\tpublic\n\tview\n\treturns(string memory)\n\t{\n\t\treturn assignedTicker[studentAddres];\n\t}\n\n\tfunction readSupply(address studentAddres)\n\tpublic\n\tview\n\treturns(uint256)\n\t{\n\t\treturn assignedSupply[studentAddres];\n\t}\n\n\tfunction setRandomTickersAndSupply(uint256[20] memory _randomSupplies, string[20] memory _randomTickers) \n\tpublic \n\tonlyTeachers\n\t{\n\t\trandomSupplies = _randomSupplies;\n\t\trandomTickers = _randomTickers;\n\t\tnextValueStoreRank = 0;\n\t\tfor (uint i = 0; i < 20; i++)\n\t\t{\n\t\t\temit newRandomTickerAndSupply(randomTickers[i], randomSupplies[i]);\n\t\t}\n\t}\n\n\n\n\n}\n",
  "sourcePath": "/Users/henrilieutaud/Documents/Workshop/Solidity/amm-101/contracts/Evaluator.sol",
  "compiler": {
    "name": "solc",
    "version": "0.6.2+commit.bacdbe57.Emscripten.clang"
  },
  "schemaVersion": "3.4.7",
  "updatedAt": "2023-02-17T21:04:52.220Z",
  "networkType": "ethereum",
  "devdoc": {
    "methods": {}
  },
  "userdoc": {
    "methods": {}
  }
}